{"contracts/BinaryOptions.sol":{"BinaryOptions":{"abi":[{"inputs":[{"internalType":"address","name":"initialOwner","type":"address"}],"stateMutability":"nonpayable","type":"constructor"},{"inputs":[{"internalType":"address","name":"owner","type":"address"}],"name":"OwnableInvalidOwner","type":"error"},{"inputs":[{"internalType":"address","name":"account","type":"address"}],"name":"OwnableUnauthorizedAccount","type":"error"},{"inputs":[],"name":"ReentrancyGuardReentrantCall","type":"error"},{"anonymous":false,"inputs":[{"indexed":false,"internalType":"string","name":"asset","type":"string"},{"indexed":false,"internalType":"address","name":"priceFeed","type":"address"},{"indexed":false,"internalType":"uint256","name":"minAmount","type":"uint256"},{"indexed":false,"internalType":"uint256","name":"maxAmount","type":"uint256"},{"indexed":false,"internalType":"uint256","name":"feePercentage","type":"uint256"}],"name":"AssetConfigUpdated","type":"event"},{"anonymous":false,"inputs":[{"indexed":true,"internalType":"address","name":"owner","type":"address"},{"indexed":false,"internalType":"uint256","name":"amount","type":"uint256"}],"name":"FundsDeposited","type":"event"},{"anonymous":false,"inputs":[{"indexed":true,"internalType":"address","name":"owner","type":"address"},{"indexed":false,"internalType":"uint256","name":"amount","type":"uint256"}],"name":"FundsWithdrawn","type":"event"},{"anonymous":false,"inputs":[{"indexed":true,"internalType":"uint256","name":"optionId","type":"uint256"},{"indexed":true,"internalType":"address","name":"trader","type":"address"},{"indexed":false,"internalType":"string","name":"asset","type":"string"},{"indexed":false,"internalType":"uint256","name":"amount","type":"uint256"},{"indexed":false,"internalType":"uint256","name":"strikePrice","type":"uint256"},{"indexed":false,"internalType":"uint256","name":"expiryTime","type":"uint256"},{"indexed":false,"internalType":"bool","name":"isCall","type":"bool"}],"name":"OptionCreated","type":"event"},{"anonymous":false,"inputs":[{"indexed":true,"internalType":"uint256","name":"optionId","type":"uint256"},{"indexed":false,"internalType":"bool","name":"isWon","type":"bool"},{"indexed":false,"internalType":"bool","name":"isPush","type":"bool"},{"indexed":false,"internalType":"uint256","name":"payout","type":"uint256"},{"indexed":false,"internalType":"uint256","name":"finalPrice","type":"uint256"}],"name":"OptionExecuted","type":"event"},{"anonymous":false,"inputs":[{"indexed":true,"internalType":"address","name":"previousOwner","type":"address"},{"indexed":true,"internalType":"address","name":"newOwner","type":"address"}],"name":"OwnershipTransferred","type":"event"},{"anonymous":false,"inputs":[{"indexed":false,"internalType":"uint256","name":"newFee","type":"uint256"}],"name":"PlatformFeeUpdated","type":"event"},{"inputs":[{"internalType":"string","name":"","type":"string"}],"name":"assetConfigs","outputs":[{"internalType":"address","name":"priceFeed","type":"address"},{"internalType":"uint256","name":"minAmount","type":"uint256"},{"internalType":"uint256","name":"maxAmount","type":"uint256"},{"internalType":"uint256","name":"feePercentage","type":"uint256"},{"internalType":"bool","name":"isActive","type":"bool"}],"stateMutability":"view","type":"function"},{"inputs":[{"internalType":"string","name":"asset","type":"string"},{"internalType":"uint256","name":"amount","type":"uint256"},{"internalType":"uint256","name":"expiryTime","type":"uint256"},{"internalType":"bool","name":"isCall","type":"bool"}],"name":"createOption","outputs":[],"stateMutability":"payable","type":"function"},{"inputs":[{"internalType":"address","name":"beneficiary","type":"address"},{"internalType":"string","name":"asset","type":"string"},{"internalType":"uint256","name":"amount","type":"uint256"},{"internalType":"uint256","name":"strikePrice","type":"uint256"},{"internalType":"uint256","name":"expiryTime","type":"uint256"},{"internalType":"bool","name":"isCall","type":"bool"}],"name":"createOptionFor","outputs":[],"stateMutability":"payable","type":"function"},{"inputs":[{"internalType":"uint256","name":"optionId","type":"uint256"}],"name":"executeOption","outputs":[],"stateMutability":"nonpayable","type":"function"},{"inputs":[],"name":"fundContract","outputs":[],"stateMutability":"payable","type":"function"},{"inputs":[],"name":"getContractStats","outputs":[{"internalType":"uint256","name":"totalOptions","type":"uint256"},{"internalType":"uint256","name":"totalVolume","type":"uint256"},{"internalType":"uint256","name":"contractBalance","type":"uint256"}],"stateMutability":"view","type":"function"},{"inputs":[{"internalType":"string","name":"asset","type":"string"}],"name":"getCurrentPrice","outputs":[{"internalType":"uint256","name":"","type":"uint256"}],"stateMutability":"view","type":"function"},{"inputs":[{"internalType":"uint256","name":"optionId","type":"uint256"}],"name":"getOption","outputs":[{"components":[{"internalType":"uint256","name":"id","type":"uint256"},{"internalType":"address","name":"trader","type":"address"},{"internalType":"string","name":"asset","type":"string"},{"internalType":"uint256","name":"amount","type":"uint256"},{"internalType":"uint256","name":"strikePrice","type":"uint256"},{"internalType":"uint256","name":"expiryTime","type":"uint256"},{"internalType":"bool","name":"isCall","type":"bool"},{"internalType":"bool","name":"isExecuted","type":"bool"},{"internalType":"bool","name":"isWon","type":"bool"},{"internalType":"uint256","name":"payout","type":"uint256"},{"internalType":"uint256","name":"timestamp","type":"uint256"},{"internalType":"uint256","name":"finalPrice","type":"uint256"}],"internalType":"struct BinaryOptions.Option","name":"","type":"tuple"}],"stateMutability":"view","type":"function"},{"inputs":[{"internalType":"uint256","name":"optionId","type":"uint256"}],"name":"getOptionAmount","outputs":[{"internalType":"uint256","name":"","type":"uint256"}],"stateMutability":"view","type":"function"},{"inputs":[{"internalType":"uint256","name":"optionId","type":"uint256"}],"name":"getOptionAsset","outputs":[{"internalType":"string","name":"","type":"string"}],"stateMutability":"view","type":"function"},{"inputs":[{"internalType":"uint256","name":"optionId","type":"uint256"}],"name":"getOptionExpiryTime","outputs":[{"internalType":"uint256","name":"","type":"uint256"}],"stateMutability":"view","type":"function"},{"inputs":[{"internalType":"uint256","name":"optionId","type":"uint256"}],"name":"getOptionFinalPrice","outputs":[{"internalType":"uint256","name":"","type":"uint256"}],"stateMutability":"view","type":"function"},{"inputs":[{"internalType":"uint256","name":"optionId","type":"uint256"}],"name":"getOptionId","outputs":[{"internalType":"uint256","name":"","type":"uint256"}],"stateMutability":"view","type":"function"},{"inputs":[{"internalType":"uint256","name":"optionId","type":"uint256"}],"name":"getOptionIsCall","outputs":[{"internalType":"bool","name":"","type":"bool"}],"stateMutability":"view","type":"function"},{"inputs":[{"internalType":"uint256","name":"optionId","type":"uint256"}],"name":"getOptionIsExecuted","outputs":[{"internalType":"bool","name":"","type":"bool"}],"stateMutability":"view","type":"function"},{"inputs":[{"internalType":"uint256","name":"optionId","type":"uint256"}],"name":"getOptionIsWon","outputs":[{"internalType":"bool","name":"","type":"bool"}],"stateMutability":"view","type":"function"},{"inputs":[{"internalType":"uint256","name":"optionId","type":"uint256"}],"name":"getOptionPayout","outputs":[{"internalType":"uint256","name":"","type":"uint256"}],"stateMutability":"view","type":"function"},{"inputs":[{"internalType":"uint256","name":"optionId","type":"uint256"}],"name":"getOptionStrikePrice","outputs":[{"internalType":"uint256","name":"","type":"uint256"}],"stateMutability":"view","type":"function"},{"inputs":[{"internalType":"uint256","name":"optionId","type":"uint256"}],"name":"getOptionTimestamp","outputs":[{"internalType":"uint256","name":"","type":"uint256"}],"stateMutability":"view","type":"function"},{"inputs":[{"internalType":"uint256","name":"optionId","type":"uint256"}],"name":"getOptionTrader","outputs":[{"internalType":"address","name":"","type":"address"}],"stateMutability":"view","type":"function"},{"inputs":[{"internalType":"address","name":"user","type":"address"}],"name":"getUserOptions","outputs":[{"internalType":"uint256[]","name":"","type":"uint256[]"}],"stateMutability":"view","type":"function"},{"inputs":[],"name":"maxExpiryTime","outputs":[{"internalType":"uint256","name":"","type":"uint256"}],"stateMutability":"view","type":"function"},{"inputs":[],"name":"minExpiryTime","outputs":[{"internalType":"uint256","name":"","type":"uint256"}],"stateMutability":"view","type":"function"},{"inputs":[{"internalType":"uint256","name":"","type":"uint256"}],"name":"options","outputs":[{"internalType":"uint256","name":"id","type":"uint256"},{"internalType":"address","name":"trader","type":"address"},{"internalType":"string","name":"asset","type":"string"},{"internalType":"uint256","name":"amount","type":"uint256"},{"internalType":"uint256","name":"strikePrice","type":"uint256"},{"internalType":"uint256","name":"expiryTime","type":"uint256"},{"internalType":"bool","name":"isCall","type":"bool"},{"internalType":"bool","name":"isExecuted","type":"bool"},{"internalType":"bool","name":"isWon","type":"bool"},{"internalType":"uint256","name":"payout","type":"uint256"},{"internalType":"uint256","name":"timestamp","type":"uint256"},{"internalType":"uint256","name":"finalPrice","type":"uint256"}],"stateMutability":"view","type":"function"},{"inputs":[],"name":"owner","outputs":[{"internalType":"address","name":"","type":"address"}],"stateMutability":"view","type":"function"},{"inputs":[{"internalType":"string","name":"asset","type":"string"}],"name":"pauseAsset","outputs":[],"stateMutability":"nonpayable","type":"function"},{"inputs":[],"name":"platformFee","outputs":[{"internalType":"uint256","name":"","type":"uint256"}],"stateMutability":"view","type":"function"},{"inputs":[],"name":"renounceOwnership","outputs":[],"stateMutability":"nonpayable","type":"function"},{"inputs":[{"internalType":"string","name":"asset","type":"string"}],"name":"resumeAsset","outputs":[],"stateMutability":"nonpayable","type":"function"},{"inputs":[{"internalType":"address","name":"newOwner","type":"address"}],"name":"transferOwnership","outputs":[],"stateMutability":"nonpayable","type":"function"},{"inputs":[{"internalType":"string","name":"asset","type":"string"},{"internalType":"address","name":"priceFeed","type":"address"},{"internalType":"uint256","name":"minAmount","type":"uint256"},{"internalType":"uint256","name":"maxAmount","type":"uint256"},{"internalType":"uint256","name":"feePercentage","type":"uint256"}],"name":"updateAssetConfig","outputs":[],"stateMutability":"nonpayable","type":"function"},{"inputs":[{"internalType":"uint256","name":"newFee","type":"uint256"}],"name":"updatePlatformFee","outputs":[],"stateMutability":"nonpayable","type":"function"},{"inputs":[{"internalType":"address","name":"","type":"address"},{"internalType":"uint256","name":"","type":"uint256"}],"name":"userOptions","outputs":[{"internalType":"uint256","name":"","type":"uint256"}],"stateMutability":"view","type":"function"},{"inputs":[],"name":"withdrawFees","outputs":[],"stateMutability":"nonpayable","type":"function"},{"stateMutability":"payable","type":"receive"}],"evm":{"bytecode":{"linkReferences":{},"object":"608060405260c8600655601e600755620151806008553480156200002257600080fd5b5060405162002a5538038062002a55833981016040819052620000459162000274565b6001600055806001600160a01b0381166200007a57604051631e4fbdf760e01b81526000600482015260240160405180910390fd5b620000858162000174565b5060408051808201909152600381526208aa8960eb1b6020820152620000d39073694aa1769357215de4fac081bf1f309adc32530666038d7ea4c68000671bc16d674ec800006096620001c6565b60408051808201909152600381526242544360e81b60208201526200011f90731b44f3514812d835eb1bdb0acb33d3fa3351ee43655af3107a4000670de0b6b3a764000060c8620001c6565b6040805180820190915260048152634c494e4b60e01b60208201526200016d9073c59e3633baac79493d908e63626716e204a45edf6611c37937e080006714d1120d7b16000060c8620001c6565b50620002d7565b600180546001600160a01b038381166001600160a01b0319831681179093556040519116919082907f8be0079c531659141344cd1fd0a4f28419497f9722a3daafe3b4186f6b6457e090600090a35050565b6040518060a00160405280856001600160a01b03168152602001848152602001838152602001828152602001600115158152506004866040516200020b9190620002a6565b9081526040805160209281900383019020835181546001600160a01b0319166001600160a01b039091161781559183015160018301558201516002820155606082015160038201556080909101516004909101805460ff19169115159190911790555050505050565b6000602082840312156200028757600080fd5b81516001600160a01b03811681146200029f57600080fd5b9392505050565b6000825160005b81811015620002c95760208186018101518583015201620002ad565b506000920191825250919050565b61276e80620002e76000396000f3fe6080604052600436106101fd5760003560e01c8063733789c41161010d578063bb2fb90a116100a0578063dfe6b5d61161006f578063dfe6b5d6146106f5578063ee6660ca14610725578063f0cd1f3f1461075d578063f2fde38b1461077d578063fd507cf51461079d57600080fd5b8063bb2fb90a1461065d578063bb4e0f941461068a578063bd097e21146106ba578063da8bcc17146106c257600080fd5b80639ba0adeb116100dc5780639ba0adeb1461052b5780639ba543f614610574578063aa0b5988146105a5578063b0421c28146105c557600080fd5b8063733789c4146104a75780637a7f0a4b146104bd5780638da5cb5b146104ed5780639a5db8f31461050b57600080fd5b80634527143711610190578063602942051161015f57806360294205146103c457806360bdbace146103f4578063667aeb3314610414578063703eea2814610465578063715018a61461049257600080fd5b8063452714371461033c578063476343ee1461034f5780634dc9d2dc146103645780635206652f1461039457600080fd5b806337fb409c116101cc57806337fb409c146102ac5780633eb0063c146102ce578063409e2205146102e457806342a0f2431461031c57600080fd5b80630ad03cba146102095780631c858f2b146102495780631ce5e9a61461026957806326232a2e1461029657600080fd5b3661020457005b600080fd5b34801561021557600080fd5b50610236610224366004611f99565b60009081526003602052604090205490565b6040519081526020015b60405180910390f35b34801561025557600080fd5b50610236610264366004611fce565b6107b0565b34801561027557600080fd5b50610289610284366004611f99565b6107e1565b6040516102409190612048565b3480156102a257600080fd5b5061023660065481565b3480156102b857600080fd5b506102cc6102c7366004611f99565b610993565b005b3480156102da57600080fd5b5061023660075481565b3480156102f057600080fd5b506103046102ff366004611f99565b610edb565b6040516102409c9b9a99989796959493929190612114565b34801561032857600080fd5b5061023661033736600461222e565b610fd4565b6102cc61034a366004612273565b611118565b34801561035b57600080fd5b506102cc611582565b34801561037057600080fd5b5061023661037f366004611f99565b60009081526003602052604090206005015490565b3480156103a057600080fd5b506102366103af366004611f99565b60009081526003602052604090206008015490565b3480156103d057600080fd5b506102366103df366004611f99565b60009081526003602052604090206004015490565b34801561040057600080fd5b506102cc61040f3660046122ed565b6116c7565b34801561042057600080fd5b5061044d61042f366004611f99565b6000908152600360205260409020600101546001600160a01b031690565b6040516001600160a01b039091168152602001610240565b34801561047157600080fd5b50610485610480366004611f99565b6117b9565b6040516102409190612355565b34801561049e57600080fd5b506102cc61185e565b3480156104b357600080fd5b5061023660085481565b3480156104c957600080fd5b506102366104d8366004611f99565b60009081526003602052604090206009015490565b3480156104f957600080fd5b506001546001600160a01b031661044d565b34801561051757600080fd5b506102cc61052636600461222e565b611872565b34801561053757600080fd5b50610564610546366004611f99565b60009081526003602052604090206006015462010000900460ff1690565b6040519015158152602001610240565b34801561058057600080fd5b5061023661058f366004611f99565b6000908152600360208190526040909120015490565b3480156105b157600080fd5b506102cc6105c0366004611f99565b6118b2565b3480156105d157600080fd5b506106296105e036600461222e565b805160208183018101805160048083529383019290940191909120929052815460018301546002840154600385015494909301546001600160a01b039092169390929160ff1685565b604080516001600160a01b03909616865260208601949094529284019190915260608301521515608082015260a001610240565b34801561066957600080fd5b5061067d61067836600461236f565b611936565b604051610240919061238a565b34801561069657600080fd5b506102366106a5366004611f99565b60009081526003602052604090206007015490565b6102cc6119a1565b3480156106ce57600080fd5b506105646106dd366004611f99565b60009081526003602052604090206006015460ff1690565b34801561070157600080fd5b5061070a6119e0565b60408051938452602084019290925290820152606001610240565b34801561073157600080fd5b50610564610740366004611f99565b600090815260036020526040902060060154610100900460ff1690565b34801561076957600080fd5b506102cc61077836600461222e565b611a27565b34801561078957600080fd5b506102cc61079836600461236f565b611a41565b6102cc6107ab3660046123ce565b611a7c565b600560205281600052604060002081815481106107cc57600080fd5b90600052602060002001600091509150505481565b6108546040518061018001604052806000815260200160006001600160a01b03168152602001606081526020016000815260200160008152602001600081526020016000151581526020016000151581526020016000151581526020016000815260200160008152602001600081525090565b6000828152600360209081526040918290208251610180810184528154815260018201546001600160a01b031692810192909252600281018054929391929184019161089f9061242f565b80601f01602080910402602001604051908101604052809291908181526020018280546108cb9061242f565b80156109185780601f106108ed57610100808354040283529160200191610918565b820191906000526020600020905b8154815290600101906020018083116108fb57829003601f168201915b5050509183525050600382015460208201526004820154604082015260058201546060820152600682015460ff808216151560808401526101008083048216151560a08501526201000090920416151560c0830152600783015460e08301526008830154908201526009909101546101209091015292915050565b61099b611ef0565b600081815260036020526040902060018101546001600160a01b0316610a005760405162461bcd60e51b815260206004820152601560248201527413dc1d1a5bdb88191bd95cc81b9bdd08195e1a5cdd605a1b60448201526064015b60405180910390fd5b6006810154610100900460ff1615610a5a5760405162461bcd60e51b815260206004820152601760248201527f4f7074696f6e20616c726561647920657865637574656400000000000000000060448201526064016109f7565b8060050154421015610aa75760405162461bcd60e51b815260206004820152601660248201527513dc1d1a5bdb881b9bdd08195e1c1a5c9959081e595d60521b60448201526064016109f7565b6000610b3e826002018054610abb9061242f565b80601f0160208091040260200160405190810160405280929190818152602001828054610ae79061242f565b8015610b345780601f10610b0957610100808354040283529160200191610b34565b820191906000526020600020905b815481529060010190602001808311610b1757829003601f168201915b5050505050610fd4565b905060008111610b855760405162461bcd60e51b8152602060048201526012602482015271125b9d985b1a59081c1c9a58d9481999595960721b60448201526064016109f7565b6000610b94620f42408361247f565b9050600080600061271086600401546001610baf91906124a1565b610bb9919061247f565b9050600084876004015411610bdc576004870154610bd790866124be565b610bec565b848760040154610bec91906124be565b9050818111610c02576000935060019250610c2c565b600687015460ff1615610c1d57866004015485119350610c27565b8660040154851093505b600092505b60008315610d26578760030154905080471015610c8b5760405162461bcd60e51b815260206004820152601d60248201527f496e73756666696369656e7420636f6e74726163742062616c616e636500000060448201526064016109f7565b60018801546040516000916001600160a01b03169083908381818185875af1925050503d8060008114610cda576040519150601f19603f3d011682016040523d82523d6000602084013e610cdf565b606091505b5050905080610d205760405162461bcd60e51b815260206004820152600d60248201526c1499599d5b990819985a5b1959609a1b60448201526064016109f7565b50610e43565b8415610e4357606488600301546050610d3f91906124a1565b610d49919061247f565b8860030154610d5891906124d1565b905080471015610daa5760405162461bcd60e51b815260206004820152601d60248201527f496e73756666696369656e7420636f6e74726163742062616c616e636500000060448201526064016109f7565b60018801546040516000916001600160a01b03169083908381818185875af1925050503d8060008114610df9576040519150601f19603f3d011682016040523d82523d6000602084013e610dfe565b606091505b5050905080610e415760405162461bcd60e51b815260206004820152600f60248201526e151c985b9cd9995c8819985a5b1959608a1b60448201526064016109f7565b505b600688018054861515620100000262ffff001990911617610100179055600788018190556009880186905560405189907f51ebd0940511ef86cd4a31ee9de3f5deef7e0fe5af842a51de22fd0acb5b538290610ebe908890889086908c90931515845291151560208401526040830152606082015260800190565b60405180910390a25050505050505050610ed86001600055565b50565b60036020526000908152604090208054600182015460028301805492936001600160a01b0390921692610f0d9061242f565b80601f0160208091040260200160405190810160405280929190818152602001828054610f399061242f565b8015610f865780601f10610f5b57610100808354040283529160200191610f86565b820191906000526020600020905b815481529060010190602001808311610f6957829003601f168201915b5050506003840154600485015460058601546006870154600788015460088901546009909901549798949793965091945060ff8082169461010083048216946201000090930490911692918c565b600080600483604051610fe791906124e4565b90815260408051918290036020908101832060a08401835280546001600160a01b03168452600181015491840191909152600281015491830191909152600381015460608301526004015460ff1615156080820181905290915061105d5760405162461bcd60e51b81526004016109f790612500565b6000816000015190506000816001600160a01b031663feaf968c6040518163ffffffff1660e01b815260040160a060405180830381865afa1580156110a6573d6000803e3d6000fd5b505050506040513d601f19601f820116820180604052508101906110ca9190612547565b505050915050600081136111105760405162461bcd60e51b815260206004820152600d60248201526c496e76616c696420707269636560981b60448201526064016109f7565b949350505050565b8460048160405161112991906124e4565b9081526040519081900360200190206004015460ff1661115b5760405162461bcd60e51b81526004016109f790612500565b611163611ef0565b8434146111aa5760405162461bcd60e51b8152602060048201526015602482015274125b98dbdc9c9958dd08185b5bdd5b9d081cd95b9d605a1b60448201526064016109f7565b6004866040516111ba91906124e4565b90815260200160405180910390206001015485101561120c5760405162461bcd60e51b815260206004820152600e60248201526d416d6f756e7420746f6f206c6f7760901b60448201526064016109f7565b60048660405161121c91906124e4565b90815260200160405180910390206002015485111561126f5760405162461bcd60e51b815260206004820152600f60248201526e082dadeeadce840e8dede40d0d2ced608b1b60448201526064016109f7565b6007548310156112b95760405162461bcd60e51b8152602060048201526015602482015274115e1c1a5c9e481d1a5b59481d1bdbc81cda1bdc9d605a1b60448201526064016109f7565b6008548311156113025760405162461bcd60e51b81526020600482015260146024820152734578706972792074696d6520746f6f206c6f6e6760601b60448201526064016109f7565b4261130d84826124d1565b116113505760405162461bcd60e51b8152602060048201526013602482015272496e76616c6964206578706972792074696d6560681b60448201526064016109f7565b600084116113975760405162461bcd60e51b8152602060048201526014602482015273496e76616c696420737472696b6520707269636560601b60448201526064016109f7565b600280549060006113a783612597565b909155505060025460408051610180810182528281526001600160a01b038a166020820152908101889052606081018790526080810186905260a081016113ee86426124d1565b81528415156020808301919091526000604080840182905260608401829052608084018290524260a085015260c09093018190528481526003825282902083518155908301516001820180546001600160a01b0319166001600160a01b0390921691909117905590820151600282019061146890826125ff565b50606082015160038201556080820151600482015560a082015160058083019190915560c083015160068301805460e08601516101008088015161ffff1990931694151561ff001916949094179015159093029290921762ff00001916620100009215159290920291909117905561012083015160078301556101408301516008830155610160909201516009909101556001600160a01b03891660008181526020928352604081208054600181018255908252929020909101829055817f85702efb180dfbd6c19343f6d8d8819c512ac5b9c70aa0631c0f05bf1fcc38e78989896115548a426124d1565b896040516115669594939291906126bf565b60405180910390a3506115796001600055565b50505050505050565b61158a611f1a565b47806115cf5760405162461bcd60e51b81526020600482015260146024820152734e6f2066756e647320746f20776974686472617760601b60448201526064016109f7565b60006115e36001546001600160a01b031690565b6001600160a01b03168260405160006040518083038185875af1925050503d806000811461162d576040519150601f19603f3d011682016040523d82523d6000602084013e611632565b606091505b50509050806116755760405162461bcd60e51b815260206004820152600f60248201526e151c985b9cd9995c8819985a5b1959608a1b60448201526064016109f7565b6001546001600160a01b03166001600160a01b03167feaff4b37086828766ad3268786972c0cd24259d4c87a80f9d3963a3c3d999b0d836040516116bb91815260200190565b60405180910390a25050565b6116cf611f1a565b6040518060a00160405280856001600160a01b031681526020018481526020018381526020018281526020016001151581525060048660405161171291906124e4565b9081526040805160209281900383018120845181546001600160a01b0319166001600160a01b03909116178155928401516001840155908301516002830155606083015160038301556080909201516004909101805460ff19169115159190911790557f0f6071fa29f95f864b4bc1ce9d536223fe504dc0901a3f600732d9c655325d61906117aa90879087908790879087906126f8565b60405180910390a15050505050565b60008181526003602052604090206002018054606091906117d99061242f565b80601f01602080910402602001604051908101604052809291908181526020018280546118059061242f565b80156118525780601f1061182757610100808354040283529160200191611852565b820191906000526020600020905b81548152906001019060200180831161183557829003601f168201915b50505050509050919050565b611866611f1a565b6118706000611f47565b565b61187a611f1a565b600060048260405161188c91906124e4565b908152604051908190036020019020600401805491151560ff1990921691909117905550565b6118ba611f1a565b6103e88111156118fb5760405162461bcd60e51b815260206004820152600c60248201526b08ccaca40e8dede40d0d2ced60a31b60448201526064016109f7565b60068190556040518181527f45610d581145924dd7090a5017e5f2b1d6f42213bb2e95707ff86846bbfcb1ca9060200160405180910390a150565b6001600160a01b03811660009081526005602090815260409182902080548351818402810184019094528084526060939283018282801561185257602002820191906000526020600020905b8154815260200190600101908083116119825750505050509050919050565b6119a9611f1a565b60405134815233907f543ba50a5eec5e6178218e364b1d0f396157b3c8fa278522c2cb7fd99407d4749060200160405180910390a2565b60025460004760015b838111611a215760008181526003602081905260409091200154611a0d90846124d1565b925080611a1981612597565b9150506119e9565b50909192565b611a2f611f1a565b600160048260405161188c91906124e4565b611a49611f1a565b6001600160a01b038116611a7357604051631e4fbdf760e01b8152600060048201526024016109f7565b610ed881611f47565b83600481604051611a8d91906124e4565b9081526040519081900360200190206004015460ff16611abf5760405162461bcd60e51b81526004016109f790612500565b611ac7611ef0565b833414611b0e5760405162461bcd60e51b8152602060048201526015602482015274125b98dbdc9c9958dd08185b5bdd5b9d081cd95b9d605a1b60448201526064016109f7565b600485604051611b1e91906124e4565b908152602001604051809103902060010154841015611b705760405162461bcd60e51b815260206004820152600e60248201526d416d6f756e7420746f6f206c6f7760901b60448201526064016109f7565b600485604051611b8091906124e4565b908152602001604051809103902060020154841115611bd35760405162461bcd60e51b815260206004820152600f60248201526e082dadeeadce840e8dede40d0d2ced608b1b60448201526064016109f7565b600754831015611c1d5760405162461bcd60e51b8152602060048201526015602482015274115e1c1a5c9e481d1a5b59481d1bdbc81cda1bdc9d605a1b60448201526064016109f7565b600854831115611c665760405162461bcd60e51b81526020600482015260146024820152734578706972792074696d6520746f6f206c6f6e6760601b60448201526064016109f7565b42611c7184826124d1565b11611cb45760405162461bcd60e51b8152602060048201526013602482015272496e76616c6964206578706972792074696d6560681b60448201526064016109f7565b6000611cbf86610fd4565b905060008111611d065760405162461bcd60e51b8152602060048201526012602482015271125b9d985b1a59081c1c9a58d9481999595960721b60448201526064016109f7565b6000611d15620f42408361247f565b600280549192506000611d2783612597565b90915550506002546040805161018081018252828152336020820152908101899052606081018890526080810183905260a08101611d6588426124d1565b81528615156020808301919091526000604080840182905260608401829052608084018290524260a085015260c09093018190528481526003825282902083518155908301516001820180546001600160a01b0319166001600160a01b03909216919091179055908201516002820190611ddf90826125ff565b50606082015160038201556080820151600482015560a082015160058083019190915560c083015160068301805460e08601516101008088015161ffff1990931694151561ff001916949094179015159093029290921762ff00001916620100009215159290920291909117905561012083015160078301556101408301516008830155610160909201516009909101553360008181526020928352604081208054600181018255908252929020909101829055817f85702efb180dfbd6c19343f6d8d8819c512ac5b9c70aa0631c0f05bf1fcc38e78a8a86611ec28c426124d1565b8b604051611ed49594939291906126bf565b60405180910390a3505050611ee96001600055565b5050505050565b600260005403611f1357604051633ee5aeb560e01b815260040160405180910390fd5b6002600055565b6001546001600160a01b031633146118705760405163118cdaa760e01b81523360048201526024016109f7565b600180546001600160a01b038381166001600160a01b0319831681179093556040519116919082907f8be0079c531659141344cd1fd0a4f28419497f9722a3daafe3b4186f6b6457e090600090a35050565b600060208284031215611fab57600080fd5b5035919050565b80356001600160a01b0381168114611fc957600080fd5b919050565b60008060408385031215611fe157600080fd5b611fea83611fb2565b946020939093013593505050565b60005b83811015612013578181015183820152602001611ffb565b50506000910152565b60008151808452612034816020860160208601611ff8565b601f01601f19169290920160200192915050565b60208152815160208201526000602083015161206f60408401826001600160a01b03169052565b50604083015161018080606085015261208c6101a085018361201c565b915060608501516080850152608085015160a085015260a085015160c085015260c08501516120bf60e086018215159052565b5060e08501516101006120d58187018315159052565b86015190506101206120ea8682018315159052565b86015161014086810191909152860151610160808701919091529095015193019290925250919050565b8c81526001600160a01b038c1660208201526101806040820181905260009061213f8382018e61201c565b606084019c909c525050608081019890985260a088019690965293151560c087015291151560e08601521515610100850152610120840152610140830152610160909101529392505050565b634e487b7160e01b600052604160045260246000fd5b600082601f8301126121b257600080fd5b813567ffffffffffffffff808211156121cd576121cd61218b565b604051601f8301601f19908116603f011681019082821181831017156121f5576121f561218b565b8160405283815286602085880101111561220e57600080fd5b836020870160208301376000602085830101528094505050505092915050565b60006020828403121561224057600080fd5b813567ffffffffffffffff81111561225757600080fd5b611110848285016121a1565b80358015158114611fc957600080fd5b60008060008060008060c0878903121561228c57600080fd5b61229587611fb2565b9550602087013567ffffffffffffffff8111156122b157600080fd5b6122bd89828a016121a1565b9550506040870135935060608701359250608087013591506122e160a08801612263565b90509295509295509295565b600080600080600060a0868803121561230557600080fd5b853567ffffffffffffffff81111561231c57600080fd5b612328888289016121a1565b95505061233760208701611fb2565b94979496505050506040830135926060810135926080909101359150565b602081526000612368602083018461201c565b9392505050565b60006020828403121561238157600080fd5b61236882611fb2565b6020808252825182820181905260009190848201906040850190845b818110156123c2578351835292840192918401916001016123a6565b50909695505050505050565b600080600080608085870312156123e457600080fd5b843567ffffffffffffffff8111156123fb57600080fd5b612407878288016121a1565b945050602085013592506040850135915061242460608601612263565b905092959194509250565b600181811c9082168061244357607f821691505b60208210810361246357634e487b7160e01b600052602260045260246000fd5b50919050565b634e487b7160e01b600052601160045260246000fd5b60008261249c57634e487b7160e01b600052601260045260246000fd5b500490565b80820281158282048414176124b8576124b8612469565b92915050565b818103818111156124b8576124b8612469565b808201808211156124b8576124b8612469565b600082516124f6818460208701611ff8565b9190910192915050565b602080825260139082015272105cdcd95d081b9bdd081cdd5c1c1bdc9d1959606a1b604082015260600190565b805169ffffffffffffffffffff81168114611fc957600080fd5b600080600080600060a0868803121561255f57600080fd5b6125688661252d565b945060208601519350604086015192506060860151915061258b6080870161252d565b90509295509295909350565b6000600182016125a9576125a9612469565b5060010190565b601f8211156125fa57600081815260208120601f850160051c810160208610156125d75750805b601f850160051c820191505b818110156125f6578281556001016125e3565b5050505b505050565b815167ffffffffffffffff8111156126195761261961218b565b61262d81612627845461242f565b846125b0565b602080601f831160018114612662576000841561264a5750858301515b600019600386901b1c1916600185901b1785556125f6565b600085815260208120601f198616915b8281101561269157888601518255948401946001909101908401612672565b50858210156126af5787850151600019600388901b60f8161c191681555b5050505050600190811b01905550565b60a0815260006126d260a083018861201c565b905085602083015284604083015283606083015282151560808301529695505050505050565b60a08152600061270b60a083018861201c565b6001600160a01b03969096166020830152506040810193909352606083019190915260809091015291905056fea2646970667358221220b0195e2fad6f4d35bd48bd1e6a09d5d78b46fe84500875cefb3ba2f1ea5a21c064736f6c63430008140033","opcodes":"PUSH1 0x80 PUSH1 0x40 MSTORE PUSH1 0xC8 PUSH1 0x6 SSTORE PUSH1 0x1E PUSH1 0x7 SSTORE PUSH3 0x15180 PUSH1 0x8 SSTORE CALLVALUE DUP1 ISZERO PUSH3 0x22 JUMPI PUSH1 0x0 DUP1 REVERT JUMPDEST POP PUSH1 0x40 MLOAD PUSH3 0x2A55 CODESIZE SUB DUP1 PUSH3 0x2A55 DUP4 CODECOPY DUP2 ADD PUSH1 0x40 DUP2 SWAP1 MSTORE PUSH3 0x45 SWAP2 PUSH3 0x274 JUMP JUMPDEST PUSH1 0x1 PUSH1 0x0 SSTORE DUP1 PUSH1 0x1 PUSH1 0x1 PUSH1 0xA0 SHL SUB DUP2 AND PUSH3 0x7A JUMPI PUSH1 0x40 MLOAD PUSH4 0x1E4FBDF7 PUSH1 0xE0 SHL DUP2 MSTORE PUSH1 0x0 PUSH1 0x4 DUP3 ADD MSTORE PUSH1 0x24 ADD PUSH1 0x40 MLOAD DUP1 SWAP2 SUB SWAP1 REVERT JUMPDEST PUSH3 0x85 DUP2 PUSH3 0x174 JUMP JUMPDEST POP PUSH1 0x40 DUP1 MLOAD DUP1 DUP3 ADD SWAP1 SWAP2 MSTORE PUSH1 0x3 DUP2 MSTORE PUSH3 0x8AA89 PUSH1 0xEB SHL PUSH1 0x20 DUP3 ADD MSTORE PUSH3 0xD3 SWAP1 PUSH20 0x694AA1769357215DE4FAC081BF1F309ADC325306 PUSH7 0x38D7EA4C68000 PUSH8 0x1BC16D674EC80000 PUSH1 0x96 PUSH3 0x1C6 JUMP JUMPDEST PUSH1 0x40 DUP1 MLOAD DUP1 DUP3 ADD SWAP1 SWAP2 MSTORE PUSH1 0x3 DUP2 MSTORE PUSH3 0x425443 PUSH1 0xE8 SHL PUSH1 0x20 DUP3 ADD MSTORE PUSH3 0x11F SWAP1 PUSH20 0x1B44F3514812D835EB1BDB0ACB33D3FA3351EE43 PUSH6 0x5AF3107A4000 PUSH8 0xDE0B6B3A7640000 PUSH1 0xC8 PUSH3 0x1C6 JUMP JUMPDEST PUSH1 0x40 DUP1 MLOAD DUP1 DUP3 ADD SWAP1 SWAP2 MSTORE PUSH1 0x4 DUP2 MSTORE PUSH4 0x4C494E4B PUSH1 0xE0 SHL PUSH1 0x20 DUP3 ADD MSTORE PUSH3 0x16D SWAP1 PUSH20 0xC59E3633BAAC79493D908E63626716E204A45EDF PUSH7 0x11C37937E08000 PUSH8 0x14D1120D7B160000 PUSH1 0xC8 PUSH3 0x1C6 JUMP JUMPDEST POP PUSH3 0x2D7 JUMP JUMPDEST PUSH1 0x1 DUP1 SLOAD PUSH1 0x1 PUSH1 0x1 PUSH1 0xA0 SHL SUB DUP4 DUP2 AND PUSH1 0x1 PUSH1 0x1 PUSH1 0xA0 SHL SUB NOT DUP4 AND DUP2 OR SWAP1 SWAP4 SSTORE PUSH1 0x40 MLOAD SWAP2 AND SWAP2 SWAP1 DUP3 SWAP1 PUSH32 0x8BE0079C531659141344CD1FD0A4F28419497F9722A3DAAFE3B4186F6B6457E0 SWAP1 PUSH1 0x0 SWAP1 LOG3 POP POP JUMP JUMPDEST PUSH1 0x40 MLOAD DUP1 PUSH1 0xA0 ADD PUSH1 0x40 MSTORE DUP1 DUP6 PUSH1 0x1 PUSH1 0x1 PUSH1 0xA0 SHL SUB AND DUP2 MSTORE PUSH1 0x20 ADD DUP5 DUP2 MSTORE PUSH1 0x20 ADD DUP4 DUP2 MSTORE PUSH1 0x20 ADD DUP3 DUP2 MSTORE PUSH1 0x20 ADD PUSH1 0x1 ISZERO ISZERO DUP2 MSTORE POP PUSH1 0x4 DUP7 PUSH1 0x40 MLOAD PUSH3 0x20B SWAP2 SWAP1 PUSH3 0x2A6 JUMP JUMPDEST SWAP1 DUP2 MSTORE PUSH1 0x40 DUP1 MLOAD PUSH1 0x20 SWAP3 DUP2 SWAP1 SUB DUP4 ADD SWAP1 KECCAK256 DUP4 MLOAD DUP2 SLOAD PUSH1 0x1 PUSH1 0x1 PUSH1 0xA0 SHL SUB NOT AND PUSH1 0x1 PUSH1 0x1 PUSH1 0xA0 SHL SUB SWAP1 SWAP2 AND OR DUP2 SSTORE SWAP2 DUP4 ADD MLOAD PUSH1 0x1 DUP4 ADD SSTORE DUP3 ADD MLOAD PUSH1 0x2 DUP3 ADD SSTORE PUSH1 0x60 DUP3 ADD MLOAD PUSH1 0x3 DUP3 ADD SSTORE PUSH1 0x80 SWAP1 SWAP2 ADD MLOAD PUSH1 0x4 SWAP1 SWAP2 ADD DUP1 SLOAD PUSH1 0xFF NOT AND SWAP2 ISZERO ISZERO SWAP2 SWAP1 SWAP2 OR SWAP1 SSTORE POP POP POP POP POP JUMP JUMPDEST PUSH1 0x0 PUSH1 0x20 DUP3 DUP5 SUB SLT ISZERO PUSH3 0x287 JUMPI PUSH1 0x0 DUP1 REVERT JUMPDEST DUP2 MLOAD PUSH1 0x1 PUSH1 0x1 PUSH1 0xA0 SHL SUB DUP2 AND DUP2 EQ PUSH3 0x29F JUMPI PUSH1 0x0 DUP1 REVERT JUMPDEST SWAP4 SWAP3 POP POP POP JUMP JUMPDEST PUSH1 0x0 DUP3 MLOAD PUSH1 0x0 JUMPDEST DUP2 DUP2 LT ISZERO PUSH3 0x2C9 JUMPI PUSH1 0x20 DUP2 DUP7 ADD DUP2 ADD MLOAD DUP6 DUP4 ADD MSTORE ADD PUSH3 0x2AD JUMP JUMPDEST POP PUSH1 0x0 SWAP3 ADD SWAP2 DUP3 MSTORE POP SWAP2 SWAP1 POP JUMP JUMPDEST PUSH2 0x276E DUP1 PUSH3 0x2E7 PUSH1 0x0 CODECOPY PUSH1 0x0 RETURN INVALID PUSH1 0x80 PUSH1 0x40 MSTORE PUSH1 0x4 CALLDATASIZE LT PUSH2 0x1FD JUMPI PUSH1 0x0 CALLDATALOAD PUSH1 0xE0 SHR DUP1 PUSH4 0x733789C4 GT PUSH2 0x10D JUMPI DUP1 PUSH4 0xBB2FB90A GT PUSH2 0xA0 JUMPI DUP1 PUSH4 0xDFE6B5D6 GT PUSH2 0x6F JUMPI DUP1 PUSH4 0xDFE6B5D6 EQ PUSH2 0x6F5 JUMPI DUP1 PUSH4 0xEE6660CA EQ PUSH2 0x725 JUMPI DUP1 PUSH4 0xF0CD1F3F EQ PUSH2 0x75D JUMPI DUP1 PUSH4 0xF2FDE38B EQ PUSH2 0x77D JUMPI DUP1 PUSH4 0xFD507CF5 EQ PUSH2 0x79D JUMPI PUSH1 0x0 DUP1 REVERT JUMPDEST DUP1 PUSH4 0xBB2FB90A EQ PUSH2 0x65D JUMPI DUP1 PUSH4 0xBB4E0F94 EQ PUSH2 0x68A JUMPI DUP1 PUSH4 0xBD097E21 EQ PUSH2 0x6BA JUMPI DUP1 PUSH4 0xDA8BCC17 EQ PUSH2 0x6C2 JUMPI PUSH1 0x0 DUP1 REVERT JUMPDEST DUP1 PUSH4 0x9BA0ADEB GT PUSH2 0xDC JUMPI DUP1 PUSH4 0x9BA0ADEB EQ PUSH2 0x52B JUMPI DUP1 PUSH4 0x9BA543F6 EQ PUSH2 0x574 JUMPI DUP1 PUSH4 0xAA0B5988 EQ PUSH2 0x5A5 JUMPI DUP1 PUSH4 0xB0421C28 EQ PUSH2 0x5C5 JUMPI PUSH1 0x0 DUP1 REVERT JUMPDEST DUP1 PUSH4 0x733789C4 EQ PUSH2 0x4A7 JUMPI DUP1 PUSH4 0x7A7F0A4B EQ PUSH2 0x4BD JUMPI DUP1 PUSH4 0x8DA5CB5B EQ PUSH2 0x4ED JUMPI DUP1 PUSH4 0x9A5DB8F3 EQ PUSH2 0x50B JUMPI PUSH1 0x0 DUP1 REVERT JUMPDEST DUP1 PUSH4 0x45271437 GT PUSH2 0x190 JUMPI DUP1 PUSH4 0x60294205 GT PUSH2 0x15F JUMPI DUP1 PUSH4 0x60294205 EQ PUSH2 0x3C4 JUMPI DUP1 PUSH4 0x60BDBACE EQ PUSH2 0x3F4 JUMPI DUP1 PUSH4 0x667AEB33 EQ PUSH2 0x414 JUMPI DUP1 PUSH4 0x703EEA28 EQ PUSH2 0x465 JUMPI DUP1 PUSH4 0x715018A6 EQ PUSH2 0x492 JUMPI PUSH1 0x0 DUP1 REVERT JUMPDEST DUP1 PUSH4 0x45271437 EQ PUSH2 0x33C JUMPI DUP1 PUSH4 0x476343EE EQ PUSH2 0x34F JUMPI DUP1 PUSH4 0x4DC9D2DC EQ PUSH2 0x364 JUMPI DUP1 PUSH4 0x5206652F EQ PUSH2 0x394 JUMPI PUSH1 0x0 DUP1 REVERT JUMPDEST DUP1 PUSH4 0x37FB409C GT PUSH2 0x1CC JUMPI DUP1 PUSH4 0x37FB409C EQ PUSH2 0x2AC JUMPI DUP1 PUSH4 0x3EB0063C EQ PUSH2 0x2CE JUMPI DUP1 PUSH4 0x409E2205 EQ PUSH2 0x2E4 JUMPI DUP1 PUSH4 0x42A0F243 EQ PUSH2 0x31C JUMPI PUSH1 0x0 DUP1 REVERT JUMPDEST DUP1 PUSH4 0xAD03CBA EQ PUSH2 0x209 JUMPI DUP1 PUSH4 0x1C858F2B EQ PUSH2 0x249 JUMPI DUP1 PUSH4 0x1CE5E9A6 EQ PUSH2 0x269 JUMPI DUP1 PUSH4 0x26232A2E EQ PUSH2 0x296 JUMPI PUSH1 0x0 DUP1 REVERT JUMPDEST CALLDATASIZE PUSH2 0x204 JUMPI STOP JUMPDEST PUSH1 0x0 DUP1 REVERT JUMPDEST CALLVALUE DUP1 ISZERO PUSH2 0x215 JUMPI PUSH1 0x0 DUP1 REVERT JUMPDEST POP PUSH2 0x236 PUSH2 0x224 CALLDATASIZE PUSH1 0x4 PUSH2 0x1F99 JUMP JUMPDEST PUSH1 0x0 SWAP1 DUP2 MSTORE PUSH1 0x3 PUSH1 0x20 MSTORE PUSH1 0x40 SWAP1 KECCAK256 SLOAD SWAP1 JUMP JUMPDEST PUSH1 0x40 MLOAD SWAP1 DUP2 MSTORE PUSH1 0x20 ADD JUMPDEST PUSH1 0x40 MLOAD DUP1 SWAP2 SUB SWAP1 RETURN JUMPDEST CALLVALUE DUP1 ISZERO PUSH2 0x255 JUMPI PUSH1 0x0 DUP1 REVERT JUMPDEST POP PUSH2 0x236 PUSH2 0x264 CALLDATASIZE PUSH1 0x4 PUSH2 0x1FCE JUMP JUMPDEST PUSH2 0x7B0 JUMP JUMPDEST CALLVALUE DUP1 ISZERO PUSH2 0x275 JUMPI PUSH1 0x0 DUP1 REVERT JUMPDEST POP PUSH2 0x289 PUSH2 0x284 CALLDATASIZE PUSH1 0x4 PUSH2 0x1F99 JUMP JUMPDEST PUSH2 0x7E1 JUMP JUMPDEST PUSH1 0x40 MLOAD PUSH2 0x240 SWAP2 SWAP1 PUSH2 0x2048 JUMP JUMPDEST CALLVALUE DUP1 ISZERO PUSH2 0x2A2 JUMPI PUSH1 0x0 DUP1 REVERT JUMPDEST POP PUSH2 0x236 PUSH1 0x6 SLOAD DUP2 JUMP JUMPDEST CALLVALUE DUP1 ISZERO PUSH2 0x2B8 JUMPI PUSH1 0x0 DUP1 REVERT JUMPDEST POP PUSH2 0x2CC PUSH2 0x2C7 CALLDATASIZE PUSH1 0x4 PUSH2 0x1F99 JUMP JUMPDEST PUSH2 0x993 JUMP JUMPDEST STOP JUMPDEST CALLVALUE DUP1 ISZERO PUSH2 0x2DA JUMPI PUSH1 0x0 DUP1 REVERT JUMPDEST POP PUSH2 0x236 PUSH1 0x7 SLOAD DUP2 JUMP JUMPDEST CALLVALUE DUP1 ISZERO PUSH2 0x2F0 JUMPI PUSH1 0x0 DUP1 REVERT JUMPDEST POP PUSH2 0x304 PUSH2 0x2FF CALLDATASIZE PUSH1 0x4 PUSH2 0x1F99 JUMP JUMPDEST PUSH2 0xEDB JUMP JUMPDEST PUSH1 0x40 MLOAD PUSH2 0x240 SWAP13 SWAP12 SWAP11 SWAP10 SWAP9 SWAP8 SWAP7 SWAP6 SWAP5 SWAP4 SWAP3 SWAP2 SWAP1 PUSH2 0x2114 JUMP JUMPDEST CALLVALUE DUP1 ISZERO PUSH2 0x328 JUMPI PUSH1 0x0 DUP1 REVERT JUMPDEST POP PUSH2 0x236 PUSH2 0x337 CALLDATASIZE PUSH1 0x4 PUSH2 0x222E JUMP JUMPDEST PUSH2 0xFD4 JUMP JUMPDEST PUSH2 0x2CC PUSH2 0x34A CALLDATASIZE PUSH1 0x4 PUSH2 0x2273 JUMP JUMPDEST PUSH2 0x1118 JUMP JUMPDEST CALLVALUE DUP1 ISZERO PUSH2 0x35B JUMPI PUSH1 0x0 DUP1 REVERT JUMPDEST POP PUSH2 0x2CC PUSH2 0x1582 JUMP JUMPDEST CALLVALUE DUP1 ISZERO PUSH2 0x370 JUMPI PUSH1 0x0 DUP1 REVERT JUMPDEST POP PUSH2 0x236 PUSH2 0x37F CALLDATASIZE PUSH1 0x4 PUSH2 0x1F99 JUMP JUMPDEST PUSH1 0x0 SWAP1 DUP2 MSTORE PUSH1 0x3 PUSH1 0x20 MSTORE PUSH1 0x40 SWAP1 KECCAK256 PUSH1 0x5 ADD SLOAD SWAP1 JUMP JUMPDEST CALLVALUE DUP1 ISZERO PUSH2 0x3A0 JUMPI PUSH1 0x0 DUP1 REVERT JUMPDEST POP PUSH2 0x236 PUSH2 0x3AF CALLDATASIZE PUSH1 0x4 PUSH2 0x1F99 JUMP JUMPDEST PUSH1 0x0 SWAP1 DUP2 MSTORE PUSH1 0x3 PUSH1 0x20 MSTORE PUSH1 0x40 SWAP1 KECCAK256 PUSH1 0x8 ADD SLOAD SWAP1 JUMP JUMPDEST CALLVALUE DUP1 ISZERO PUSH2 0x3D0 JUMPI PUSH1 0x0 DUP1 REVERT JUMPDEST POP PUSH2 0x236 PUSH2 0x3DF CALLDATASIZE PUSH1 0x4 PUSH2 0x1F99 JUMP JUMPDEST PUSH1 0x0 SWAP1 DUP2 MSTORE PUSH1 0x3 PUSH1 0x20 MSTORE PUSH1 0x40 SWAP1 KECCAK256 PUSH1 0x4 ADD SLOAD SWAP1 JUMP JUMPDEST CALLVALUE DUP1 ISZERO PUSH2 0x400 JUMPI PUSH1 0x0 DUP1 REVERT JUMPDEST POP PUSH2 0x2CC PUSH2 0x40F CALLDATASIZE PUSH1 0x4 PUSH2 0x22ED JUMP JUMPDEST PUSH2 0x16C7 JUMP JUMPDEST CALLVALUE DUP1 ISZERO PUSH2 0x420 JUMPI PUSH1 0x0 DUP1 REVERT JUMPDEST POP PUSH2 0x44D PUSH2 0x42F CALLDATASIZE PUSH1 0x4 PUSH2 0x1F99 JUMP JUMPDEST PUSH1 0x0 SWAP1 DUP2 MSTORE PUSH1 0x3 PUSH1 0x20 MSTORE PUSH1 0x40 SWAP1 KECCAK256 PUSH1 0x1 ADD SLOAD PUSH1 0x1 PUSH1 0x1 PUSH1 0xA0 SHL SUB AND SWAP1 JUMP JUMPDEST PUSH1 0x40 MLOAD PUSH1 0x1 PUSH1 0x1 PUSH1 0xA0 SHL SUB SWAP1 SWAP2 AND DUP2 MSTORE PUSH1 0x20 ADD PUSH2 0x240 JUMP JUMPDEST CALLVALUE DUP1 ISZERO PUSH2 0x471 JUMPI PUSH1 0x0 DUP1 REVERT JUMPDEST POP PUSH2 0x485 PUSH2 0x480 CALLDATASIZE PUSH1 0x4 PUSH2 0x1F99 JUMP JUMPDEST PUSH2 0x17B9 JUMP JUMPDEST PUSH1 0x40 MLOAD PUSH2 0x240 SWAP2 SWAP1 PUSH2 0x2355 JUMP JUMPDEST CALLVALUE DUP1 ISZERO PUSH2 0x49E JUMPI PUSH1 0x0 DUP1 REVERT JUMPDEST POP PUSH2 0x2CC PUSH2 0x185E JUMP JUMPDEST CALLVALUE DUP1 ISZERO PUSH2 0x4B3 JUMPI PUSH1 0x0 DUP1 REVERT JUMPDEST POP PUSH2 0x236 PUSH1 0x8 SLOAD DUP2 JUMP JUMPDEST CALLVALUE DUP1 ISZERO PUSH2 0x4C9 JUMPI PUSH1 0x0 DUP1 REVERT JUMPDEST POP PUSH2 0x236 PUSH2 0x4D8 CALLDATASIZE PUSH1 0x4 PUSH2 0x1F99 JUMP JUMPDEST PUSH1 0x0 SWAP1 DUP2 MSTORE PUSH1 0x3 PUSH1 0x20 MSTORE PUSH1 0x40 SWAP1 KECCAK256 PUSH1 0x9 ADD SLOAD SWAP1 JUMP JUMPDEST CALLVALUE DUP1 ISZERO PUSH2 0x4F9 JUMPI PUSH1 0x0 DUP1 REVERT JUMPDEST POP PUSH1 0x1 SLOAD PUSH1 0x1 PUSH1 0x1 PUSH1 0xA0 SHL SUB AND PUSH2 0x44D JUMP JUMPDEST CALLVALUE DUP1 ISZERO PUSH2 0x517 JUMPI PUSH1 0x0 DUP1 REVERT JUMPDEST POP PUSH2 0x2CC PUSH2 0x526 CALLDATASIZE PUSH1 0x4 PUSH2 0x222E JUMP JUMPDEST PUSH2 0x1872 JUMP JUMPDEST CALLVALUE DUP1 ISZERO PUSH2 0x537 JUMPI PUSH1 0x0 DUP1 REVERT JUMPDEST POP PUSH2 0x564 PUSH2 0x546 CALLDATASIZE PUSH1 0x4 PUSH2 0x1F99 JUMP JUMPDEST PUSH1 0x0 SWAP1 DUP2 MSTORE PUSH1 0x3 PUSH1 0x20 MSTORE PUSH1 0x40 SWAP1 KECCAK256 PUSH1 0x6 ADD SLOAD PUSH3 0x10000 SWAP1 DIV PUSH1 0xFF AND SWAP1 JUMP JUMPDEST PUSH1 0x40 MLOAD SWAP1 ISZERO ISZERO DUP2 MSTORE PUSH1 0x20 ADD PUSH2 0x240 JUMP JUMPDEST CALLVALUE DUP1 ISZERO PUSH2 0x580 JUMPI PUSH1 0x0 DUP1 REVERT JUMPDEST POP PUSH2 0x236 PUSH2 0x58F CALLDATASIZE PUSH1 0x4 PUSH2 0x1F99 JUMP JUMPDEST PUSH1 0x0 SWAP1 DUP2 MSTORE PUSH1 0x3 PUSH1 0x20 DUP2 SWAP1 MSTORE PUSH1 0x40 SWAP1 SWAP2 KECCAK256 ADD SLOAD SWAP1 JUMP JUMPDEST CALLVALUE DUP1 ISZERO PUSH2 0x5B1 JUMPI PUSH1 0x0 DUP1 REVERT JUMPDEST POP PUSH2 0x2CC PUSH2 0x5C0 CALLDATASIZE PUSH1 0x4 PUSH2 0x1F99 JUMP JUMPDEST PUSH2 0x18B2 JUMP JUMPDEST CALLVALUE DUP1 ISZERO PUSH2 0x5D1 JUMPI PUSH1 0x0 DUP1 REVERT JUMPDEST POP PUSH2 0x629 PUSH2 0x5E0 CALLDATASIZE PUSH1 0x4 PUSH2 0x222E JUMP JUMPDEST DUP1 MLOAD PUSH1 0x20 DUP2 DUP4 ADD DUP2 ADD DUP1 MLOAD PUSH1 0x4 DUP1 DUP4 MSTORE SWAP4 DUP4 ADD SWAP3 SWAP1 SWAP5 ADD SWAP2 SWAP1 SWAP2 KECCAK256 SWAP3 SWAP1 MSTORE DUP2 SLOAD PUSH1 0x1 DUP4 ADD SLOAD PUSH1 0x2 DUP5 ADD SLOAD PUSH1 0x3 DUP6 ADD SLOAD SWAP5 SWAP1 SWAP4 ADD SLOAD PUSH1 0x1 PUSH1 0x1 PUSH1 0xA0 SHL SUB SWAP1 SWAP3 AND SWAP4 SWAP1 SWAP3 SWAP2 PUSH1 0xFF AND DUP6 JUMP JUMPDEST PUSH1 0x40 DUP1 MLOAD PUSH1 0x1 PUSH1 0x1 PUSH1 0xA0 SHL SUB SWAP1 SWAP7 AND DUP7 MSTORE PUSH1 0x20 DUP7 ADD SWAP5 SWAP1 SWAP5 MSTORE SWAP3 DUP5 ADD SWAP2 SWAP1 SWAP2 MSTORE PUSH1 0x60 DUP4 ADD MSTORE ISZERO ISZERO PUSH1 0x80 DUP3 ADD MSTORE PUSH1 0xA0 ADD PUSH2 0x240 JUMP JUMPDEST CALLVALUE DUP1 ISZERO PUSH2 0x669 JUMPI PUSH1 0x0 DUP1 REVERT JUMPDEST POP PUSH2 0x67D PUSH2 0x678 CALLDATASIZE PUSH1 0x4 PUSH2 0x236F JUMP JUMPDEST PUSH2 0x1936 JUMP JUMPDEST PUSH1 0x40 MLOAD PUSH2 0x240 SWAP2 SWAP1 PUSH2 0x238A JUMP JUMPDEST CALLVALUE DUP1 ISZERO PUSH2 0x696 JUMPI PUSH1 0x0 DUP1 REVERT JUMPDEST POP PUSH2 0x236 PUSH2 0x6A5 CALLDATASIZE PUSH1 0x4 PUSH2 0x1F99 JUMP JUMPDEST PUSH1 0x0 SWAP1 DUP2 MSTORE PUSH1 0x3 PUSH1 0x20 MSTORE PUSH1 0x40 SWAP1 KECCAK256 PUSH1 0x7 ADD SLOAD SWAP1 JUMP JUMPDEST PUSH2 0x2CC PUSH2 0x19A1 JUMP JUMPDEST CALLVALUE DUP1 ISZERO PUSH2 0x6CE JUMPI PUSH1 0x0 DUP1 REVERT JUMPDEST POP PUSH2 0x564 PUSH2 0x6DD CALLDATASIZE PUSH1 0x4 PUSH2 0x1F99 JUMP JUMPDEST PUSH1 0x0 SWAP1 DUP2 MSTORE PUSH1 0x3 PUSH1 0x20 MSTORE PUSH1 0x40 SWAP1 KECCAK256 PUSH1 0x6 ADD SLOAD PUSH1 0xFF AND SWAP1 JUMP JUMPDEST CALLVALUE DUP1 ISZERO PUSH2 0x701 JUMPI PUSH1 0x0 DUP1 REVERT JUMPDEST POP PUSH2 0x70A PUSH2 0x19E0 JUMP JUMPDEST PUSH1 0x40 DUP1 MLOAD SWAP4 DUP5 MSTORE PUSH1 0x20 DUP5 ADD SWAP3 SWAP1 SWAP3 MSTORE SWAP1 DUP3 ADD MSTORE PUSH1 0x60 ADD PUSH2 0x240 JUMP JUMPDEST CALLVALUE DUP1 ISZERO PUSH2 0x731 JUMPI PUSH1 0x0 DUP1 REVERT JUMPDEST POP PUSH2 0x564 PUSH2 0x740 CALLDATASIZE PUSH1 0x4 PUSH2 0x1F99 JUMP JUMPDEST PUSH1 0x0 SWAP1 DUP2 MSTORE PUSH1 0x3 PUSH1 0x20 MSTORE PUSH1 0x40 SWAP1 KECCAK256 PUSH1 0x6 ADD SLOAD PUSH2 0x100 SWAP1 DIV PUSH1 0xFF AND SWAP1 JUMP JUMPDEST CALLVALUE DUP1 ISZERO PUSH2 0x769 JUMPI PUSH1 0x0 DUP1 REVERT JUMPDEST POP PUSH2 0x2CC PUSH2 0x778 CALLDATASIZE PUSH1 0x4 PUSH2 0x222E JUMP JUMPDEST PUSH2 0x1A27 JUMP JUMPDEST CALLVALUE DUP1 ISZERO PUSH2 0x789 JUMPI PUSH1 0x0 DUP1 REVERT JUMPDEST POP PUSH2 0x2CC PUSH2 0x798 CALLDATASIZE PUSH1 0x4 PUSH2 0x236F JUMP JUMPDEST PUSH2 0x1A41 JUMP JUMPDEST PUSH2 0x2CC PUSH2 0x7AB CALLDATASIZE PUSH1 0x4 PUSH2 0x23CE JUMP JUMPDEST PUSH2 0x1A7C JUMP JUMPDEST PUSH1 0x5 PUSH1 0x20 MSTORE DUP2 PUSH1 0x0 MSTORE PUSH1 0x40 PUSH1 0x0 KECCAK256 DUP2 DUP2 SLOAD DUP2 LT PUSH2 0x7CC JUMPI PUSH1 0x0 DUP1 REVERT JUMPDEST SWAP1 PUSH1 0x0 MSTORE PUSH1 0x20 PUSH1 0x0 KECCAK256 ADD PUSH1 0x0 SWAP2 POP SWAP2 POP POP SLOAD DUP2 JUMP JUMPDEST PUSH2 0x854 PUSH1 0x40 MLOAD DUP1 PUSH2 0x180 ADD PUSH1 0x40 MSTORE DUP1 PUSH1 0x0 DUP2 MSTORE PUSH1 0x20 ADD PUSH1 0x0 PUSH1 0x1 PUSH1 0x1 PUSH1 0xA0 SHL SUB AND DUP2 MSTORE PUSH1 0x20 ADD PUSH1 0x60 DUP2 MSTORE PUSH1 0x20 ADD PUSH1 0x0 DUP2 MSTORE PUSH1 0x20 ADD PUSH1 0x0 DUP2 MSTORE PUSH1 0x20 ADD PUSH1 0x0 DUP2 MSTORE PUSH1 0x20 ADD PUSH1 0x0 ISZERO ISZERO DUP2 MSTORE PUSH1 0x20 ADD PUSH1 0x0 ISZERO ISZERO DUP2 MSTORE PUSH1 0x20 ADD PUSH1 0x0 ISZERO ISZERO DUP2 MSTORE PUSH1 0x20 ADD PUSH1 0x0 DUP2 MSTORE PUSH1 0x20 ADD PUSH1 0x0 DUP2 MSTORE PUSH1 0x20 ADD PUSH1 0x0 DUP2 MSTORE POP SWAP1 JUMP JUMPDEST PUSH1 0x0 DUP3 DUP2 MSTORE PUSH1 0x3 PUSH1 0x20 SWAP1 DUP2 MSTORE PUSH1 0x40 SWAP2 DUP3 SWAP1 KECCAK256 DUP3 MLOAD PUSH2 0x180 DUP2 ADD DUP5 MSTORE DUP2 SLOAD DUP2 MSTORE PUSH1 0x1 DUP3 ADD SLOAD PUSH1 0x1 PUSH1 0x1 PUSH1 0xA0 SHL SUB AND SWAP3 DUP2 ADD SWAP3 SWAP1 SWAP3 MSTORE PUSH1 0x2 DUP2 ADD DUP1 SLOAD SWAP3 SWAP4 SWAP2 SWAP3 SWAP2 DUP5 ADD SWAP2 PUSH2 0x89F SWAP1 PUSH2 0x242F JUMP JUMPDEST DUP1 PUSH1 0x1F ADD PUSH1 0x20 DUP1 SWAP2 DIV MUL PUSH1 0x20 ADD PUSH1 0x40 MLOAD SWAP1 DUP2 ADD PUSH1 0x40 MSTORE DUP1 SWAP3 SWAP2 SWAP1 DUP2 DUP2 MSTORE PUSH1 0x20 ADD DUP3 DUP1 SLOAD PUSH2 0x8CB SWAP1 PUSH2 0x242F JUMP JUMPDEST DUP1 ISZERO PUSH2 0x918 JUMPI DUP1 PUSH1 0x1F LT PUSH2 0x8ED JUMPI PUSH2 0x100 DUP1 DUP4 SLOAD DIV MUL DUP4 MSTORE SWAP2 PUSH1 0x20 ADD SWAP2 PUSH2 0x918 JUMP JUMPDEST DUP3 ADD SWAP2 SWAP1 PUSH1 0x0 MSTORE PUSH1 0x20 PUSH1 0x0 KECCAK256 SWAP1 JUMPDEST DUP2 SLOAD DUP2 MSTORE SWAP1 PUSH1 0x1 ADD SWAP1 PUSH1 0x20 ADD DUP1 DUP4 GT PUSH2 0x8FB JUMPI DUP3 SWAP1 SUB PUSH1 0x1F AND DUP3 ADD SWAP2 JUMPDEST POP POP POP SWAP2 DUP4 MSTORE POP POP PUSH1 0x3 DUP3 ADD SLOAD PUSH1 0x20 DUP3 ADD MSTORE PUSH1 0x4 DUP3 ADD SLOAD PUSH1 0x40 DUP3 ADD MSTORE PUSH1 0x5 DUP3 ADD SLOAD PUSH1 0x60 DUP3 ADD MSTORE PUSH1 0x6 DUP3 ADD SLOAD PUSH1 0xFF DUP1 DUP3 AND ISZERO ISZERO PUSH1 0x80 DUP5 ADD MSTORE PUSH2 0x100 DUP1 DUP4 DIV DUP3 AND ISZERO ISZERO PUSH1 0xA0 DUP6 ADD MSTORE PUSH3 0x10000 SWAP1 SWAP3 DIV AND ISZERO ISZERO PUSH1 0xC0 DUP4 ADD MSTORE PUSH1 0x7 DUP4 ADD SLOAD PUSH1 0xE0 DUP4 ADD MSTORE PUSH1 0x8 DUP4 ADD SLOAD SWAP1 DUP3 ADD MSTORE PUSH1 0x9 SWAP1 SWAP2 ADD SLOAD PUSH2 0x120 SWAP1 SWAP2 ADD MSTORE SWAP3 SWAP2 POP POP JUMP JUMPDEST PUSH2 0x99B PUSH2 0x1EF0 JUMP JUMPDEST PUSH1 0x0 DUP2 DUP2 MSTORE PUSH1 0x3 PUSH1 0x20 MSTORE PUSH1 0x40 SWAP1 KECCAK256 PUSH1 0x1 DUP2 ADD SLOAD PUSH1 0x1 PUSH1 0x1 PUSH1 0xA0 SHL SUB AND PUSH2 0xA00 JUMPI PUSH1 0x40 MLOAD PUSH3 0x461BCD PUSH1 0xE5 SHL DUP2 MSTORE PUSH1 0x20 PUSH1 0x4 DUP3 ADD MSTORE PUSH1 0x15 PUSH1 0x24 DUP3 ADD MSTORE PUSH21 0x13DC1D1A5BDB88191BD95CC81B9BDD08195E1A5CDD PUSH1 0x5A SHL PUSH1 0x44 DUP3 ADD MSTORE PUSH1 0x64 ADD JUMPDEST PUSH1 0x40 MLOAD DUP1 SWAP2 SUB SWAP1 REVERT JUMPDEST PUSH1 0x6 DUP2 ADD SLOAD PUSH2 0x100 SWAP1 DIV PUSH1 0xFF AND ISZERO PUSH2 0xA5A JUMPI PUSH1 0x40 MLOAD PUSH3 0x461BCD PUSH1 0xE5 SHL DUP2 MSTORE PUSH1 0x20 PUSH1 0x4 DUP3 ADD MSTORE PUSH1 0x17 PUSH1 0x24 DUP3 ADD MSTORE PUSH32 0x4F7074696F6E20616C7265616479206578656375746564000000000000000000 PUSH1 0x44 DUP3 ADD MSTORE PUSH1 0x64 ADD PUSH2 0x9F7 JUMP JUMPDEST DUP1 PUSH1 0x5 ADD SLOAD TIMESTAMP LT ISZERO PUSH2 0xAA7 JUMPI PUSH1 0x40 MLOAD PUSH3 0x461BCD PUSH1 0xE5 SHL DUP2 MSTORE PUSH1 0x20 PUSH1 0x4 DUP3 ADD MSTORE PUSH1 0x16 PUSH1 0x24 DUP3 ADD MSTORE PUSH22 0x13DC1D1A5BDB881B9BDD08195E1C1A5C9959081E595D PUSH1 0x52 SHL PUSH1 0x44 DUP3 ADD MSTORE PUSH1 0x64 ADD PUSH2 0x9F7 JUMP JUMPDEST PUSH1 0x0 PUSH2 0xB3E DUP3 PUSH1 0x2 ADD DUP1 SLOAD PUSH2 0xABB SWAP1 PUSH2 0x242F JUMP JUMPDEST DUP1 PUSH1 0x1F ADD PUSH1 0x20 DUP1 SWAP2 DIV MUL PUSH1 0x20 ADD PUSH1 0x40 MLOAD SWAP1 DUP2 ADD PUSH1 0x40 MSTORE DUP1 SWAP3 SWAP2 SWAP1 DUP2 DUP2 MSTORE PUSH1 0x20 ADD DUP3 DUP1 SLOAD PUSH2 0xAE7 SWAP1 PUSH2 0x242F JUMP JUMPDEST DUP1 ISZERO PUSH2 0xB34 JUMPI DUP1 PUSH1 0x1F LT PUSH2 0xB09 JUMPI PUSH2 0x100 DUP1 DUP4 SLOAD DIV MUL DUP4 MSTORE SWAP2 PUSH1 0x20 ADD SWAP2 PUSH2 0xB34 JUMP JUMPDEST DUP3 ADD SWAP2 SWAP1 PUSH1 0x0 MSTORE PUSH1 0x20 PUSH1 0x0 KECCAK256 SWAP1 JUMPDEST DUP2 SLOAD DUP2 MSTORE SWAP1 PUSH1 0x1 ADD SWAP1 PUSH1 0x20 ADD DUP1 DUP4 GT PUSH2 0xB17 JUMPI DUP3 SWAP1 SUB PUSH1 0x1F AND DUP3 ADD SWAP2 JUMPDEST POP POP POP POP POP PUSH2 0xFD4 JUMP JUMPDEST SWAP1 POP PUSH1 0x0 DUP2 GT PUSH2 0xB85 JUMPI PUSH1 0x40 MLOAD PUSH3 0x461BCD PUSH1 0xE5 SHL DUP2 MSTORE PUSH1 0x20 PUSH1 0x4 DUP3 ADD MSTORE PUSH1 0x12 PUSH1 0x24 DUP3 ADD MSTORE PUSH18 0x125B9D985B1A59081C1C9A58D94819995959 PUSH1 0x72 SHL PUSH1 0x44 DUP3 ADD MSTORE PUSH1 0x64 ADD PUSH2 0x9F7 JUMP JUMPDEST PUSH1 0x0 PUSH2 0xB94 PUSH3 0xF4240 DUP4 PUSH2 0x247F JUMP JUMPDEST SWAP1 POP PUSH1 0x0 DUP1 PUSH1 0x0 PUSH2 0x2710 DUP7 PUSH1 0x4 ADD SLOAD PUSH1 0x1 PUSH2 0xBAF SWAP2 SWAP1 PUSH2 0x24A1 JUMP JUMPDEST PUSH2 0xBB9 SWAP2 SWAP1 PUSH2 0x247F JUMP JUMPDEST SWAP1 POP PUSH1 0x0 DUP5 DUP8 PUSH1 0x4 ADD SLOAD GT PUSH2 0xBDC JUMPI PUSH1 0x4 DUP8 ADD SLOAD PUSH2 0xBD7 SWAP1 DUP7 PUSH2 0x24BE JUMP JUMPDEST PUSH2 0xBEC JUMP JUMPDEST DUP5 DUP8 PUSH1 0x4 ADD SLOAD PUSH2 0xBEC SWAP2 SWAP1 PUSH2 0x24BE JUMP JUMPDEST SWAP1 POP DUP2 DUP2 GT PUSH2 0xC02 JUMPI PUSH1 0x0 SWAP4 POP PUSH1 0x1 SWAP3 POP PUSH2 0xC2C JUMP JUMPDEST PUSH1 0x6 DUP8 ADD SLOAD PUSH1 0xFF AND ISZERO PUSH2 0xC1D JUMPI DUP7 PUSH1 0x4 ADD SLOAD DUP6 GT SWAP4 POP PUSH2 0xC27 JUMP JUMPDEST DUP7 PUSH1 0x4 ADD SLOAD DUP6 LT SWAP4 POP JUMPDEST PUSH1 0x0 SWAP3 POP JUMPDEST PUSH1 0x0 DUP4 ISZERO PUSH2 0xD26 JUMPI DUP8 PUSH1 0x3 ADD SLOAD SWAP1 POP DUP1 SELFBALANCE LT ISZERO PUSH2 0xC8B JUMPI PUSH1 0x40 MLOAD PUSH3 0x461BCD PUSH1 0xE5 SHL DUP2 MSTORE PUSH1 0x20 PUSH1 0x4 DUP3 ADD MSTORE PUSH1 0x1D PUSH1 0x24 DUP3 ADD MSTORE PUSH32 0x496E73756666696369656E7420636F6E74726163742062616C616E6365000000 PUSH1 0x44 DUP3 ADD MSTORE PUSH1 0x64 ADD PUSH2 0x9F7 JUMP JUMPDEST PUSH1 0x1 DUP9 ADD SLOAD PUSH1 0x40 MLOAD PUSH1 0x0 SWAP2 PUSH1 0x1 PUSH1 0x1 PUSH1 0xA0 SHL SUB AND SWAP1 DUP4 SWAP1 DUP4 DUP2 DUP2 DUP2 DUP6 DUP8 GAS CALL SWAP3 POP POP POP RETURNDATASIZE DUP1 PUSH1 0x0 DUP2 EQ PUSH2 0xCDA JUMPI PUSH1 0x40 MLOAD SWAP2 POP PUSH1 0x1F NOT PUSH1 0x3F RETURNDATASIZE ADD AND DUP3 ADD PUSH1 0x40 MSTORE RETURNDATASIZE DUP3 MSTORE RETURNDATASIZE PUSH1 0x0 PUSH1 0x20 DUP5 ADD RETURNDATACOPY PUSH2 0xCDF JUMP JUMPDEST PUSH1 0x60 SWAP2 POP JUMPDEST POP POP SWAP1 POP DUP1 PUSH2 0xD20 JUMPI PUSH1 0x40 MLOAD PUSH3 0x461BCD PUSH1 0xE5 SHL DUP2 MSTORE PUSH1 0x20 PUSH1 0x4 DUP3 ADD MSTORE PUSH1 0xD PUSH1 0x24 DUP3 ADD MSTORE PUSH13 0x1499599D5B990819985A5B1959 PUSH1 0x9A SHL PUSH1 0x44 DUP3 ADD MSTORE PUSH1 0x64 ADD PUSH2 0x9F7 JUMP JUMPDEST POP PUSH2 0xE43 JUMP JUMPDEST DUP5 ISZERO PUSH2 0xE43 JUMPI PUSH1 0x64 DUP9 PUSH1 0x3 ADD SLOAD PUSH1 0x50 PUSH2 0xD3F SWAP2 SWAP1 PUSH2 0x24A1 JUMP JUMPDEST PUSH2 0xD49 SWAP2 SWAP1 PUSH2 0x247F JUMP JUMPDEST DUP9 PUSH1 0x3 ADD SLOAD PUSH2 0xD58 SWAP2 SWAP1 PUSH2 0x24D1 JUMP JUMPDEST SWAP1 POP DUP1 SELFBALANCE LT ISZERO PUSH2 0xDAA JUMPI PUSH1 0x40 MLOAD PUSH3 0x461BCD PUSH1 0xE5 SHL DUP2 MSTORE PUSH1 0x20 PUSH1 0x4 DUP3 ADD MSTORE PUSH1 0x1D PUSH1 0x24 DUP3 ADD MSTORE PUSH32 0x496E73756666696369656E7420636F6E74726163742062616C616E6365000000 PUSH1 0x44 DUP3 ADD MSTORE PUSH1 0x64 ADD PUSH2 0x9F7 JUMP JUMPDEST PUSH1 0x1 DUP9 ADD SLOAD PUSH1 0x40 MLOAD PUSH1 0x0 SWAP2 PUSH1 0x1 PUSH1 0x1 PUSH1 0xA0 SHL SUB AND SWAP1 DUP4 SWAP1 DUP4 DUP2 DUP2 DUP2 DUP6 DUP8 GAS CALL SWAP3 POP POP POP RETURNDATASIZE DUP1 PUSH1 0x0 DUP2 EQ PUSH2 0xDF9 JUMPI PUSH1 0x40 MLOAD SWAP2 POP PUSH1 0x1F NOT PUSH1 0x3F RETURNDATASIZE ADD AND DUP3 ADD PUSH1 0x40 MSTORE RETURNDATASIZE DUP3 MSTORE RETURNDATASIZE PUSH1 0x0 PUSH1 0x20 DUP5 ADD RETURNDATACOPY PUSH2 0xDFE JUMP JUMPDEST PUSH1 0x60 SWAP2 POP JUMPDEST POP POP SWAP1 POP DUP1 PUSH2 0xE41 JUMPI PUSH1 0x40 MLOAD PUSH3 0x461BCD PUSH1 0xE5 SHL DUP2 MSTORE PUSH1 0x20 PUSH1 0x4 DUP3 ADD MSTORE PUSH1 0xF PUSH1 0x24 DUP3 ADD MSTORE PUSH15 0x151C985B9CD9995C8819985A5B1959 PUSH1 0x8A SHL PUSH1 0x44 DUP3 ADD MSTORE PUSH1 0x64 ADD PUSH2 0x9F7 JUMP JUMPDEST POP JUMPDEST PUSH1 0x6 DUP9 ADD DUP1 SLOAD DUP7 ISZERO ISZERO PUSH3 0x10000 MUL PUSH3 0xFFFF00 NOT SWAP1 SWAP2 AND OR PUSH2 0x100 OR SWAP1 SSTORE PUSH1 0x7 DUP9 ADD DUP2 SWAP1 SSTORE PUSH1 0x9 DUP9 ADD DUP7 SWAP1 SSTORE PUSH1 0x40 MLOAD DUP10 SWAP1 PUSH32 0x51EBD0940511EF86CD4A31EE9DE3F5DEEF7E0FE5AF842A51DE22FD0ACB5B5382 SWAP1 PUSH2 0xEBE SWAP1 DUP9 SWAP1 DUP9 SWAP1 DUP7 SWAP1 DUP13 SWAP1 SWAP4 ISZERO ISZERO DUP5 MSTORE SWAP2 ISZERO ISZERO PUSH1 0x20 DUP5 ADD MSTORE PUSH1 0x40 DUP4 ADD MSTORE PUSH1 0x60 DUP3 ADD MSTORE PUSH1 0x80 ADD SWAP1 JUMP JUMPDEST PUSH1 0x40 MLOAD DUP1 SWAP2 SUB SWAP1 LOG2 POP POP POP POP POP POP POP POP PUSH2 0xED8 PUSH1 0x1 PUSH1 0x0 SSTORE JUMP JUMPDEST POP JUMP JUMPDEST PUSH1 0x3 PUSH1 0x20 MSTORE PUSH1 0x0 SWAP1 DUP2 MSTORE PUSH1 0x40 SWAP1 KECCAK256 DUP1 SLOAD PUSH1 0x1 DUP3 ADD SLOAD PUSH1 0x2 DUP4 ADD DUP1 SLOAD SWAP3 SWAP4 PUSH1 0x1 PUSH1 0x1 PUSH1 0xA0 SHL SUB SWAP1 SWAP3 AND SWAP3 PUSH2 0xF0D SWAP1 PUSH2 0x242F JUMP JUMPDEST DUP1 PUSH1 0x1F ADD PUSH1 0x20 DUP1 SWAP2 DIV MUL PUSH1 0x20 ADD PUSH1 0x40 MLOAD SWAP1 DUP2 ADD PUSH1 0x40 MSTORE DUP1 SWAP3 SWAP2 SWAP1 DUP2 DUP2 MSTORE PUSH1 0x20 ADD DUP3 DUP1 SLOAD PUSH2 0xF39 SWAP1 PUSH2 0x242F JUMP JUMPDEST DUP1 ISZERO PUSH2 0xF86 JUMPI DUP1 PUSH1 0x1F LT PUSH2 0xF5B JUMPI PUSH2 0x100 DUP1 DUP4 SLOAD DIV MUL DUP4 MSTORE SWAP2 PUSH1 0x20 ADD SWAP2 PUSH2 0xF86 JUMP JUMPDEST DUP3 ADD SWAP2 SWAP1 PUSH1 0x0 MSTORE PUSH1 0x20 PUSH1 0x0 KECCAK256 SWAP1 JUMPDEST DUP2 SLOAD DUP2 MSTORE SWAP1 PUSH1 0x1 ADD SWAP1 PUSH1 0x20 ADD DUP1 DUP4 GT PUSH2 0xF69 JUMPI DUP3 SWAP1 SUB PUSH1 0x1F AND DUP3 ADD SWAP2 JUMPDEST POP POP POP PUSH1 0x3 DUP5 ADD SLOAD PUSH1 0x4 DUP6 ADD SLOAD PUSH1 0x5 DUP7 ADD SLOAD PUSH1 0x6 DUP8 ADD SLOAD PUSH1 0x7 DUP9 ADD SLOAD PUSH1 0x8 DUP10 ADD SLOAD PUSH1 0x9 SWAP1 SWAP10 ADD SLOAD SWAP8 SWAP9 SWAP5 SWAP8 SWAP4 SWAP7 POP SWAP2 SWAP5 POP PUSH1 0xFF DUP1 DUP3 AND SWAP5 PUSH2 0x100 DUP4 DIV DUP3 AND SWAP5 PUSH3 0x10000 SWAP1 SWAP4 DIV SWAP1 SWAP2 AND SWAP3 SWAP2 DUP13 JUMP JUMPDEST PUSH1 0x0 DUP1 PUSH1 0x4 DUP4 PUSH1 0x40 MLOAD PUSH2 0xFE7 SWAP2 SWAP1 PUSH2 0x24E4 JUMP JUMPDEST SWAP1 DUP2 MSTORE PUSH1 0x40 DUP1 MLOAD SWAP2 DUP3 SWAP1 SUB PUSH1 0x20 SWAP1 DUP2 ADD DUP4 KECCAK256 PUSH1 0xA0 DUP5 ADD DUP4 MSTORE DUP1 SLOAD PUSH1 0x1 PUSH1 0x1 PUSH1 0xA0 SHL SUB AND DUP5 MSTORE PUSH1 0x1 DUP2 ADD SLOAD SWAP2 DUP5 ADD SWAP2 SWAP1 SWAP2 MSTORE PUSH1 0x2 DUP2 ADD SLOAD SWAP2 DUP4 ADD SWAP2 SWAP1 SWAP2 MSTORE PUSH1 0x3 DUP2 ADD SLOAD PUSH1 0x60 DUP4 ADD MSTORE PUSH1 0x4 ADD SLOAD PUSH1 0xFF AND ISZERO ISZERO PUSH1 0x80 DUP3 ADD DUP2 SWAP1 MSTORE SWAP1 SWAP2 POP PUSH2 0x105D JUMPI PUSH1 0x40 MLOAD PUSH3 0x461BCD PUSH1 0xE5 SHL DUP2 MSTORE PUSH1 0x4 ADD PUSH2 0x9F7 SWAP1 PUSH2 0x2500 JUMP JUMPDEST PUSH1 0x0 DUP2 PUSH1 0x0 ADD MLOAD SWAP1 POP PUSH1 0x0 DUP2 PUSH1 0x1 PUSH1 0x1 PUSH1 0xA0 SHL SUB AND PUSH4 0xFEAF968C PUSH1 0x40 MLOAD DUP2 PUSH4 0xFFFFFFFF AND PUSH1 0xE0 SHL DUP2 MSTORE PUSH1 0x4 ADD PUSH1 0xA0 PUSH1 0x40 MLOAD DUP1 DUP4 SUB DUP2 DUP7 GAS STATICCALL ISZERO DUP1 ISZERO PUSH2 0x10A6 JUMPI RETURNDATASIZE PUSH1 0x0 DUP1 RETURNDATACOPY RETURNDATASIZE PUSH1 0x0 REVERT JUMPDEST POP POP POP POP PUSH1 0x40 MLOAD RETURNDATASIZE PUSH1 0x1F NOT PUSH1 0x1F DUP3 ADD AND DUP3 ADD DUP1 PUSH1 0x40 MSTORE POP DUP2 ADD SWAP1 PUSH2 0x10CA SWAP2 SWAP1 PUSH2 0x2547 JUMP JUMPDEST POP POP POP SWAP2 POP POP PUSH1 0x0 DUP2 SGT PUSH2 0x1110 JUMPI PUSH1 0x40 MLOAD PUSH3 0x461BCD PUSH1 0xE5 SHL DUP2 MSTORE PUSH1 0x20 PUSH1 0x4 DUP3 ADD MSTORE PUSH1 0xD PUSH1 0x24 DUP3 ADD MSTORE PUSH13 0x496E76616C6964207072696365 PUSH1 0x98 SHL PUSH1 0x44 DUP3 ADD MSTORE PUSH1 0x64 ADD PUSH2 0x9F7 JUMP JUMPDEST SWAP5 SWAP4 POP POP POP POP JUMP JUMPDEST DUP5 PUSH1 0x4 DUP2 PUSH1 0x40 MLOAD PUSH2 0x1129 SWAP2 SWAP1 PUSH2 0x24E4 JUMP JUMPDEST SWAP1 DUP2 MSTORE PUSH1 0x40 MLOAD SWAP1 DUP2 SWAP1 SUB PUSH1 0x20 ADD SWAP1 KECCAK256 PUSH1 0x4 ADD SLOAD PUSH1 0xFF AND PUSH2 0x115B JUMPI PUSH1 0x40 MLOAD PUSH3 0x461BCD PUSH1 0xE5 SHL DUP2 MSTORE PUSH1 0x4 ADD PUSH2 0x9F7 SWAP1 PUSH2 0x2500 JUMP JUMPDEST PUSH2 0x1163 PUSH2 0x1EF0 JUMP JUMPDEST DUP5 CALLVALUE EQ PUSH2 0x11AA JUMPI PUSH1 0x40 MLOAD PUSH3 0x461BCD PUSH1 0xE5 SHL DUP2 MSTORE PUSH1 0x20 PUSH1 0x4 DUP3 ADD MSTORE PUSH1 0x15 PUSH1 0x24 DUP3 ADD MSTORE PUSH21 0x125B98DBDC9C9958DD08185B5BDD5B9D081CD95B9D PUSH1 0x5A SHL PUSH1 0x44 DUP3 ADD MSTORE PUSH1 0x64 ADD PUSH2 0x9F7 JUMP JUMPDEST PUSH1 0x4 DUP7 PUSH1 0x40 MLOAD PUSH2 0x11BA SWAP2 SWAP1 PUSH2 0x24E4 JUMP JUMPDEST SWAP1 DUP2 MSTORE PUSH1 0x20 ADD PUSH1 0x40 MLOAD DUP1 SWAP2 SUB SWAP1 KECCAK256 PUSH1 0x1 ADD SLOAD DUP6 LT ISZERO PUSH2 0x120C JUMPI PUSH1 0x40 MLOAD PUSH3 0x461BCD PUSH1 0xE5 SHL DUP2 MSTORE PUSH1 0x20 PUSH1 0x4 DUP3 ADD MSTORE PUSH1 0xE PUSH1 0x24 DUP3 ADD MSTORE PUSH14 0x416D6F756E7420746F6F206C6F77 PUSH1 0x90 SHL PUSH1 0x44 DUP3 ADD MSTORE PUSH1 0x64 ADD PUSH2 0x9F7 JUMP JUMPDEST PUSH1 0x4 DUP7 PUSH1 0x40 MLOAD PUSH2 0x121C SWAP2 SWAP1 PUSH2 0x24E4 JUMP JUMPDEST SWAP1 DUP2 MSTORE PUSH1 0x20 ADD PUSH1 0x40 MLOAD DUP1 SWAP2 SUB SWAP1 KECCAK256 PUSH1 0x2 ADD SLOAD DUP6 GT ISZERO PUSH2 0x126F JUMPI PUSH1 0x40 MLOAD PUSH3 0x461BCD PUSH1 0xE5 SHL DUP2 MSTORE PUSH1 0x20 PUSH1 0x4 DUP3 ADD MSTORE PUSH1 0xF PUSH1 0x24 DUP3 ADD MSTORE PUSH15 0x82DADEEADCE840E8DEDE40D0D2CED PUSH1 0x8B SHL PUSH1 0x44 DUP3 ADD MSTORE PUSH1 0x64 ADD PUSH2 0x9F7 JUMP JUMPDEST PUSH1 0x7 SLOAD DUP4 LT ISZERO PUSH2 0x12B9 JUMPI PUSH1 0x40 MLOAD PUSH3 0x461BCD PUSH1 0xE5 SHL DUP2 MSTORE PUSH1 0x20 PUSH1 0x4 DUP3 ADD MSTORE PUSH1 0x15 PUSH1 0x24 DUP3 ADD MSTORE PUSH21 0x115E1C1A5C9E481D1A5B59481D1BDBC81CDA1BDC9D PUSH1 0x5A SHL PUSH1 0x44 DUP3 ADD MSTORE PUSH1 0x64 ADD PUSH2 0x9F7 JUMP JUMPDEST PUSH1 0x8 SLOAD DUP4 GT ISZERO PUSH2 0x1302 JUMPI PUSH1 0x40 MLOAD PUSH3 0x461BCD PUSH1 0xE5 SHL DUP2 MSTORE PUSH1 0x20 PUSH1 0x4 DUP3 ADD MSTORE PUSH1 0x14 PUSH1 0x24 DUP3 ADD MSTORE PUSH20 0x4578706972792074696D6520746F6F206C6F6E67 PUSH1 0x60 SHL PUSH1 0x44 DUP3 ADD MSTORE PUSH1 0x64 ADD PUSH2 0x9F7 JUMP JUMPDEST TIMESTAMP PUSH2 0x130D DUP5 DUP3 PUSH2 0x24D1 JUMP JUMPDEST GT PUSH2 0x1350 JUMPI PUSH1 0x40 MLOAD PUSH3 0x461BCD PUSH1 0xE5 SHL DUP2 MSTORE PUSH1 0x20 PUSH1 0x4 DUP3 ADD MSTORE PUSH1 0x13 PUSH1 0x24 DUP3 ADD MSTORE PUSH19 0x496E76616C6964206578706972792074696D65 PUSH1 0x68 SHL PUSH1 0x44 DUP3 ADD MSTORE PUSH1 0x64 ADD PUSH2 0x9F7 JUMP JUMPDEST PUSH1 0x0 DUP5 GT PUSH2 0x1397 JUMPI PUSH1 0x40 MLOAD PUSH3 0x461BCD PUSH1 0xE5 SHL DUP2 MSTORE PUSH1 0x20 PUSH1 0x4 DUP3 ADD MSTORE PUSH1 0x14 PUSH1 0x24 DUP3 ADD MSTORE PUSH20 0x496E76616C696420737472696B65207072696365 PUSH1 0x60 SHL PUSH1 0x44 DUP3 ADD MSTORE PUSH1 0x64 ADD PUSH2 0x9F7 JUMP JUMPDEST PUSH1 0x2 DUP1 SLOAD SWAP1 PUSH1 0x0 PUSH2 0x13A7 DUP4 PUSH2 0x2597 JUMP JUMPDEST SWAP1 SWAP2 SSTORE POP POP PUSH1 0x2 SLOAD PUSH1 0x40 DUP1 MLOAD PUSH2 0x180 DUP2 ADD DUP3 MSTORE DUP3 DUP2 MSTORE PUSH1 0x1 PUSH1 0x1 PUSH1 0xA0 SHL SUB DUP11 AND PUSH1 0x20 DUP3 ADD MSTORE SWAP1 DUP2 ADD DUP9 SWAP1 MSTORE PUSH1 0x60 DUP2 ADD DUP8 SWAP1 MSTORE PUSH1 0x80 DUP2 ADD DUP7 SWAP1 MSTORE PUSH1 0xA0 DUP2 ADD PUSH2 0x13EE DUP7 TIMESTAMP PUSH2 0x24D1 JUMP JUMPDEST DUP2 MSTORE DUP5 ISZERO ISZERO PUSH1 0x20 DUP1 DUP4 ADD SWAP2 SWAP1 SWAP2 MSTORE PUSH1 0x0 PUSH1 0x40 DUP1 DUP5 ADD DUP3 SWAP1 MSTORE PUSH1 0x60 DUP5 ADD DUP3 SWAP1 MSTORE PUSH1 0x80 DUP5 ADD DUP3 SWAP1 MSTORE TIMESTAMP PUSH1 0xA0 DUP6 ADD MSTORE PUSH1 0xC0 SWAP1 SWAP4 ADD DUP2 SWAP1 MSTORE DUP5 DUP2 MSTORE PUSH1 0x3 DUP3 MSTORE DUP3 SWAP1 KECCAK256 DUP4 MLOAD DUP2 SSTORE SWAP1 DUP4 ADD MLOAD PUSH1 0x1 DUP3 ADD DUP1 SLOAD PUSH1 0x1 PUSH1 0x1 PUSH1 0xA0 SHL SUB NOT AND PUSH1 0x1 PUSH1 0x1 PUSH1 0xA0 SHL SUB SWAP1 SWAP3 AND SWAP2 SWAP1 SWAP2 OR SWAP1 SSTORE SWAP1 DUP3 ADD MLOAD PUSH1 0x2 DUP3 ADD SWAP1 PUSH2 0x1468 SWAP1 DUP3 PUSH2 0x25FF JUMP JUMPDEST POP PUSH1 0x60 DUP3 ADD MLOAD PUSH1 0x3 DUP3 ADD SSTORE PUSH1 0x80 DUP3 ADD MLOAD PUSH1 0x4 DUP3 ADD SSTORE PUSH1 0xA0 DUP3 ADD MLOAD PUSH1 0x5 DUP1 DUP4 ADD SWAP2 SWAP1 SWAP2 SSTORE PUSH1 0xC0 DUP4 ADD MLOAD PUSH1 0x6 DUP4 ADD DUP1 SLOAD PUSH1 0xE0 DUP7 ADD MLOAD PUSH2 0x100 DUP1 DUP9 ADD MLOAD PUSH2 0xFFFF NOT SWAP1 SWAP4 AND SWAP5 ISZERO ISZERO PUSH2 0xFF00 NOT AND SWAP5 SWAP1 SWAP5 OR SWAP1 ISZERO ISZERO SWAP1 SWAP4 MUL SWAP3 SWAP1 SWAP3 OR PUSH3 0xFF0000 NOT AND PUSH3 0x10000 SWAP3 ISZERO ISZERO SWAP3 SWAP1 SWAP3 MUL SWAP2 SWAP1 SWAP2 OR SWAP1 SSTORE PUSH2 0x120 DUP4 ADD MLOAD PUSH1 0x7 DUP4 ADD SSTORE PUSH2 0x140 DUP4 ADD MLOAD PUSH1 0x8 DUP4 ADD SSTORE PUSH2 0x160 SWAP1 SWAP3 ADD MLOAD PUSH1 0x9 SWAP1 SWAP2 ADD SSTORE PUSH1 0x1 PUSH1 0x1 PUSH1 0xA0 SHL SUB DUP10 AND PUSH1 0x0 DUP2 DUP2 MSTORE PUSH1 0x20 SWAP3 DUP4 MSTORE PUSH1 0x40 DUP2 KECCAK256 DUP1 SLOAD PUSH1 0x1 DUP2 ADD DUP3 SSTORE SWAP1 DUP3 MSTORE SWAP3 SWAP1 KECCAK256 SWAP1 SWAP2 ADD DUP3 SWAP1 SSTORE DUP2 PUSH32 0x85702EFB180DFBD6C19343F6D8D8819C512AC5B9C70AA0631C0F05BF1FCC38E7 DUP10 DUP10 DUP10 PUSH2 0x1554 DUP11 TIMESTAMP PUSH2 0x24D1 JUMP JUMPDEST DUP10 PUSH1 0x40 MLOAD PUSH2 0x1566 SWAP6 SWAP5 SWAP4 SWAP3 SWAP2 SWAP1 PUSH2 0x26BF JUMP JUMPDEST PUSH1 0x40 MLOAD DUP1 SWAP2 SUB SWAP1 LOG3 POP PUSH2 0x1579 PUSH1 0x1 PUSH1 0x0 SSTORE JUMP JUMPDEST POP POP POP POP POP POP POP JUMP JUMPDEST PUSH2 0x158A PUSH2 0x1F1A JUMP JUMPDEST SELFBALANCE DUP1 PUSH2 0x15CF JUMPI PUSH1 0x40 MLOAD PUSH3 0x461BCD PUSH1 0xE5 SHL DUP2 MSTORE PUSH1 0x20 PUSH1 0x4 DUP3 ADD MSTORE PUSH1 0x14 PUSH1 0x24 DUP3 ADD MSTORE PUSH20 0x4E6F2066756E647320746F207769746864726177 PUSH1 0x60 SHL PUSH1 0x44 DUP3 ADD MSTORE PUSH1 0x64 ADD PUSH2 0x9F7 JUMP JUMPDEST PUSH1 0x0 PUSH2 0x15E3 PUSH1 0x1 SLOAD PUSH1 0x1 PUSH1 0x1 PUSH1 0xA0 SHL SUB AND SWAP1 JUMP JUMPDEST PUSH1 0x1 PUSH1 0x1 PUSH1 0xA0 SHL SUB AND DUP3 PUSH1 0x40 MLOAD PUSH1 0x0 PUSH1 0x40 MLOAD DUP1 DUP4 SUB DUP2 DUP6 DUP8 GAS CALL SWAP3 POP POP POP RETURNDATASIZE DUP1 PUSH1 0x0 DUP2 EQ PUSH2 0x162D JUMPI PUSH1 0x40 MLOAD SWAP2 POP PUSH1 0x1F NOT PUSH1 0x3F RETURNDATASIZE ADD AND DUP3 ADD PUSH1 0x40 MSTORE RETURNDATASIZE DUP3 MSTORE RETURNDATASIZE PUSH1 0x0 PUSH1 0x20 DUP5 ADD RETURNDATACOPY PUSH2 0x1632 JUMP JUMPDEST PUSH1 0x60 SWAP2 POP JUMPDEST POP POP SWAP1 POP DUP1 PUSH2 0x1675 JUMPI PUSH1 0x40 MLOAD PUSH3 0x461BCD PUSH1 0xE5 SHL DUP2 MSTORE PUSH1 0x20 PUSH1 0x4 DUP3 ADD MSTORE PUSH1 0xF PUSH1 0x24 DUP3 ADD MSTORE PUSH15 0x151C985B9CD9995C8819985A5B1959 PUSH1 0x8A SHL PUSH1 0x44 DUP3 ADD MSTORE PUSH1 0x64 ADD PUSH2 0x9F7 JUMP JUMPDEST PUSH1 0x1 SLOAD PUSH1 0x1 PUSH1 0x1 PUSH1 0xA0 SHL SUB AND PUSH1 0x1 PUSH1 0x1 PUSH1 0xA0 SHL SUB AND PUSH32 0xEAFF4B37086828766AD3268786972C0CD24259D4C87A80F9D3963A3C3D999B0D DUP4 PUSH1 0x40 MLOAD PUSH2 0x16BB SWAP2 DUP2 MSTORE PUSH1 0x20 ADD SWAP1 JUMP JUMPDEST PUSH1 0x40 MLOAD DUP1 SWAP2 SUB SWAP1 LOG2 POP POP JUMP JUMPDEST PUSH2 0x16CF PUSH2 0x1F1A JUMP JUMPDEST PUSH1 0x40 MLOAD DUP1 PUSH1 0xA0 ADD PUSH1 0x40 MSTORE DUP1 DUP6 PUSH1 0x1 PUSH1 0x1 PUSH1 0xA0 SHL SUB AND DUP2 MSTORE PUSH1 0x20 ADD DUP5 DUP2 MSTORE PUSH1 0x20 ADD DUP4 DUP2 MSTORE PUSH1 0x20 ADD DUP3 DUP2 MSTORE PUSH1 0x20 ADD PUSH1 0x1 ISZERO ISZERO DUP2 MSTORE POP PUSH1 0x4 DUP7 PUSH1 0x40 MLOAD PUSH2 0x1712 SWAP2 SWAP1 PUSH2 0x24E4 JUMP JUMPDEST SWAP1 DUP2 MSTORE PUSH1 0x40 DUP1 MLOAD PUSH1 0x20 SWAP3 DUP2 SWAP1 SUB DUP4 ADD DUP2 KECCAK256 DUP5 MLOAD DUP2 SLOAD PUSH1 0x1 PUSH1 0x1 PUSH1 0xA0 SHL SUB NOT AND PUSH1 0x1 PUSH1 0x1 PUSH1 0xA0 SHL SUB SWAP1 SWAP2 AND OR DUP2 SSTORE SWAP3 DUP5 ADD MLOAD PUSH1 0x1 DUP5 ADD SSTORE SWAP1 DUP4 ADD MLOAD PUSH1 0x2 DUP4 ADD SSTORE PUSH1 0x60 DUP4 ADD MLOAD PUSH1 0x3 DUP4 ADD SSTORE PUSH1 0x80 SWAP1 SWAP3 ADD MLOAD PUSH1 0x4 SWAP1 SWAP2 ADD DUP1 SLOAD PUSH1 0xFF NOT AND SWAP2 ISZERO ISZERO SWAP2 SWAP1 SWAP2 OR SWAP1 SSTORE PUSH32 0xF6071FA29F95F864B4BC1CE9D536223FE504DC0901A3F600732D9C655325D61 SWAP1 PUSH2 0x17AA SWAP1 DUP8 SWAP1 DUP8 SWAP1 DUP8 SWAP1 DUP8 SWAP1 DUP8 SWAP1 PUSH2 0x26F8 JUMP JUMPDEST PUSH1 0x40 MLOAD DUP1 SWAP2 SUB SWAP1 LOG1 POP POP POP POP POP JUMP JUMPDEST PUSH1 0x0 DUP2 DUP2 MSTORE PUSH1 0x3 PUSH1 0x20 MSTORE PUSH1 0x40 SWAP1 KECCAK256 PUSH1 0x2 ADD DUP1 SLOAD PUSH1 0x60 SWAP2 SWAP1 PUSH2 0x17D9 SWAP1 PUSH2 0x242F JUMP JUMPDEST DUP1 PUSH1 0x1F ADD PUSH1 0x20 DUP1 SWAP2 DIV MUL PUSH1 0x20 ADD PUSH1 0x40 MLOAD SWAP1 DUP2 ADD PUSH1 0x40 MSTORE DUP1 SWAP3 SWAP2 SWAP1 DUP2 DUP2 MSTORE PUSH1 0x20 ADD DUP3 DUP1 SLOAD PUSH2 0x1805 SWAP1 PUSH2 0x242F JUMP JUMPDEST DUP1 ISZERO PUSH2 0x1852 JUMPI DUP1 PUSH1 0x1F LT PUSH2 0x1827 JUMPI PUSH2 0x100 DUP1 DUP4 SLOAD DIV MUL DUP4 MSTORE SWAP2 PUSH1 0x20 ADD SWAP2 PUSH2 0x1852 JUMP JUMPDEST DUP3 ADD SWAP2 SWAP1 PUSH1 0x0 MSTORE PUSH1 0x20 PUSH1 0x0 KECCAK256 SWAP1 JUMPDEST DUP2 SLOAD DUP2 MSTORE SWAP1 PUSH1 0x1 ADD SWAP1 PUSH1 0x20 ADD DUP1 DUP4 GT PUSH2 0x1835 JUMPI DUP3 SWAP1 SUB PUSH1 0x1F AND DUP3 ADD SWAP2 JUMPDEST POP POP POP POP POP SWAP1 POP SWAP2 SWAP1 POP JUMP JUMPDEST PUSH2 0x1866 PUSH2 0x1F1A JUMP JUMPDEST PUSH2 0x1870 PUSH1 0x0 PUSH2 0x1F47 JUMP JUMPDEST JUMP JUMPDEST PUSH2 0x187A PUSH2 0x1F1A JUMP JUMPDEST PUSH1 0x0 PUSH1 0x4 DUP3 PUSH1 0x40 MLOAD PUSH2 0x188C SWAP2 SWAP1 PUSH2 0x24E4 JUMP JUMPDEST SWAP1 DUP2 MSTORE PUSH1 0x40 MLOAD SWAP1 DUP2 SWAP1 SUB PUSH1 0x20 ADD SWAP1 KECCAK256 PUSH1 0x4 ADD DUP1 SLOAD SWAP2 ISZERO ISZERO PUSH1 0xFF NOT SWAP1 SWAP3 AND SWAP2 SWAP1 SWAP2 OR SWAP1 SSTORE POP JUMP JUMPDEST PUSH2 0x18BA PUSH2 0x1F1A JUMP JUMPDEST PUSH2 0x3E8 DUP2 GT ISZERO PUSH2 0x18FB JUMPI PUSH1 0x40 MLOAD PUSH3 0x461BCD PUSH1 0xE5 SHL DUP2 MSTORE PUSH1 0x20 PUSH1 0x4 DUP3 ADD MSTORE PUSH1 0xC PUSH1 0x24 DUP3 ADD MSTORE PUSH12 0x8CCACA40E8DEDE40D0D2CED PUSH1 0xA3 SHL PUSH1 0x44 DUP3 ADD MSTORE PUSH1 0x64 ADD PUSH2 0x9F7 JUMP JUMPDEST PUSH1 0x6 DUP2 SWAP1 SSTORE PUSH1 0x40 MLOAD DUP2 DUP2 MSTORE PUSH32 0x45610D581145924DD7090A5017E5F2B1D6F42213BB2E95707FF86846BBFCB1CA SWAP1 PUSH1 0x20 ADD PUSH1 0x40 MLOAD DUP1 SWAP2 SUB SWAP1 LOG1 POP JUMP JUMPDEST PUSH1 0x1 PUSH1 0x1 PUSH1 0xA0 SHL SUB DUP2 AND PUSH1 0x0 SWAP1 DUP2 MSTORE PUSH1 0x5 PUSH1 0x20 SWAP1 DUP2 MSTORE PUSH1 0x40 SWAP2 DUP3 SWAP1 KECCAK256 DUP1 SLOAD DUP4 MLOAD DUP2 DUP5 MUL DUP2 ADD DUP5 ADD SWAP1 SWAP5 MSTORE DUP1 DUP5 MSTORE PUSH1 0x60 SWAP4 SWAP3 DUP4 ADD DUP3 DUP3 DUP1 ISZERO PUSH2 0x1852 JUMPI PUSH1 0x20 MUL DUP3 ADD SWAP2 SWAP1 PUSH1 0x0 MSTORE PUSH1 0x20 PUSH1 0x0 KECCAK256 SWAP1 JUMPDEST DUP2 SLOAD DUP2 MSTORE PUSH1 0x20 ADD SWAP1 PUSH1 0x1 ADD SWAP1 DUP1 DUP4 GT PUSH2 0x1982 JUMPI POP POP POP POP POP SWAP1 POP SWAP2 SWAP1 POP JUMP JUMPDEST PUSH2 0x19A9 PUSH2 0x1F1A JUMP JUMPDEST PUSH1 0x40 MLOAD CALLVALUE DUP2 MSTORE CALLER SWAP1 PUSH32 0x543BA50A5EEC5E6178218E364B1D0F396157B3C8FA278522C2CB7FD99407D474 SWAP1 PUSH1 0x20 ADD PUSH1 0x40 MLOAD DUP1 SWAP2 SUB SWAP1 LOG2 JUMP JUMPDEST PUSH1 0x2 SLOAD PUSH1 0x0 SELFBALANCE PUSH1 0x1 JUMPDEST DUP4 DUP2 GT PUSH2 0x1A21 JUMPI PUSH1 0x0 DUP2 DUP2 MSTORE PUSH1 0x3 PUSH1 0x20 DUP2 SWAP1 MSTORE PUSH1 0x40 SWAP1 SWAP2 KECCAK256 ADD SLOAD PUSH2 0x1A0D SWAP1 DUP5 PUSH2 0x24D1 JUMP JUMPDEST SWAP3 POP DUP1 PUSH2 0x1A19 DUP2 PUSH2 0x2597 JUMP JUMPDEST SWAP2 POP POP PUSH2 0x19E9 JUMP JUMPDEST POP SWAP1 SWAP2 SWAP3 JUMP JUMPDEST PUSH2 0x1A2F PUSH2 0x1F1A JUMP JUMPDEST PUSH1 0x1 PUSH1 0x4 DUP3 PUSH1 0x40 MLOAD PUSH2 0x188C SWAP2 SWAP1 PUSH2 0x24E4 JUMP JUMPDEST PUSH2 0x1A49 PUSH2 0x1F1A JUMP JUMPDEST PUSH1 0x1 PUSH1 0x1 PUSH1 0xA0 SHL SUB DUP2 AND PUSH2 0x1A73 JUMPI PUSH1 0x40 MLOAD PUSH4 0x1E4FBDF7 PUSH1 0xE0 SHL DUP2 MSTORE PUSH1 0x0 PUSH1 0x4 DUP3 ADD MSTORE PUSH1 0x24 ADD PUSH2 0x9F7 JUMP JUMPDEST PUSH2 0xED8 DUP2 PUSH2 0x1F47 JUMP JUMPDEST DUP4 PUSH1 0x4 DUP2 PUSH1 0x40 MLOAD PUSH2 0x1A8D SWAP2 SWAP1 PUSH2 0x24E4 JUMP JUMPDEST SWAP1 DUP2 MSTORE PUSH1 0x40 MLOAD SWAP1 DUP2 SWAP1 SUB PUSH1 0x20 ADD SWAP1 KECCAK256 PUSH1 0x4 ADD SLOAD PUSH1 0xFF AND PUSH2 0x1ABF JUMPI PUSH1 0x40 MLOAD PUSH3 0x461BCD PUSH1 0xE5 SHL DUP2 MSTORE PUSH1 0x4 ADD PUSH2 0x9F7 SWAP1 PUSH2 0x2500 JUMP JUMPDEST PUSH2 0x1AC7 PUSH2 0x1EF0 JUMP JUMPDEST DUP4 CALLVALUE EQ PUSH2 0x1B0E JUMPI PUSH1 0x40 MLOAD PUSH3 0x461BCD PUSH1 0xE5 SHL DUP2 MSTORE PUSH1 0x20 PUSH1 0x4 DUP3 ADD MSTORE PUSH1 0x15 PUSH1 0x24 DUP3 ADD MSTORE PUSH21 0x125B98DBDC9C9958DD08185B5BDD5B9D081CD95B9D PUSH1 0x5A SHL PUSH1 0x44 DUP3 ADD MSTORE PUSH1 0x64 ADD PUSH2 0x9F7 JUMP JUMPDEST PUSH1 0x4 DUP6 PUSH1 0x40 MLOAD PUSH2 0x1B1E SWAP2 SWAP1 PUSH2 0x24E4 JUMP JUMPDEST SWAP1 DUP2 MSTORE PUSH1 0x20 ADD PUSH1 0x40 MLOAD DUP1 SWAP2 SUB SWAP1 KECCAK256 PUSH1 0x1 ADD SLOAD DUP5 LT ISZERO PUSH2 0x1B70 JUMPI PUSH1 0x40 MLOAD PUSH3 0x461BCD PUSH1 0xE5 SHL DUP2 MSTORE PUSH1 0x20 PUSH1 0x4 DUP3 ADD MSTORE PUSH1 0xE PUSH1 0x24 DUP3 ADD MSTORE PUSH14 0x416D6F756E7420746F6F206C6F77 PUSH1 0x90 SHL PUSH1 0x44 DUP3 ADD MSTORE PUSH1 0x64 ADD PUSH2 0x9F7 JUMP JUMPDEST PUSH1 0x4 DUP6 PUSH1 0x40 MLOAD PUSH2 0x1B80 SWAP2 SWAP1 PUSH2 0x24E4 JUMP JUMPDEST SWAP1 DUP2 MSTORE PUSH1 0x20 ADD PUSH1 0x40 MLOAD DUP1 SWAP2 SUB SWAP1 KECCAK256 PUSH1 0x2 ADD SLOAD DUP5 GT ISZERO PUSH2 0x1BD3 JUMPI PUSH1 0x40 MLOAD PUSH3 0x461BCD PUSH1 0xE5 SHL DUP2 MSTORE PUSH1 0x20 PUSH1 0x4 DUP3 ADD MSTORE PUSH1 0xF PUSH1 0x24 DUP3 ADD MSTORE PUSH15 0x82DADEEADCE840E8DEDE40D0D2CED PUSH1 0x8B SHL PUSH1 0x44 DUP3 ADD MSTORE PUSH1 0x64 ADD PUSH2 0x9F7 JUMP JUMPDEST PUSH1 0x7 SLOAD DUP4 LT ISZERO PUSH2 0x1C1D JUMPI PUSH1 0x40 MLOAD PUSH3 0x461BCD PUSH1 0xE5 SHL DUP2 MSTORE PUSH1 0x20 PUSH1 0x4 DUP3 ADD MSTORE PUSH1 0x15 PUSH1 0x24 DUP3 ADD MSTORE PUSH21 0x115E1C1A5C9E481D1A5B59481D1BDBC81CDA1BDC9D PUSH1 0x5A SHL PUSH1 0x44 DUP3 ADD MSTORE PUSH1 0x64 ADD PUSH2 0x9F7 JUMP JUMPDEST PUSH1 0x8 SLOAD DUP4 GT ISZERO PUSH2 0x1C66 JUMPI PUSH1 0x40 MLOAD PUSH3 0x461BCD PUSH1 0xE5 SHL DUP2 MSTORE PUSH1 0x20 PUSH1 0x4 DUP3 ADD MSTORE PUSH1 0x14 PUSH1 0x24 DUP3 ADD MSTORE PUSH20 0x4578706972792074696D6520746F6F206C6F6E67 PUSH1 0x60 SHL PUSH1 0x44 DUP3 ADD MSTORE PUSH1 0x64 ADD PUSH2 0x9F7 JUMP JUMPDEST TIMESTAMP PUSH2 0x1C71 DUP5 DUP3 PUSH2 0x24D1 JUMP JUMPDEST GT PUSH2 0x1CB4 JUMPI PUSH1 0x40 MLOAD PUSH3 0x461BCD PUSH1 0xE5 SHL DUP2 MSTORE PUSH1 0x20 PUSH1 0x4 DUP3 ADD MSTORE PUSH1 0x13 PUSH1 0x24 DUP3 ADD MSTORE PUSH19 0x496E76616C6964206578706972792074696D65 PUSH1 0x68 SHL PUSH1 0x44 DUP3 ADD MSTORE PUSH1 0x64 ADD PUSH2 0x9F7 JUMP JUMPDEST PUSH1 0x0 PUSH2 0x1CBF DUP7 PUSH2 0xFD4 JUMP JUMPDEST SWAP1 POP PUSH1 0x0 DUP2 GT PUSH2 0x1D06 JUMPI PUSH1 0x40 MLOAD PUSH3 0x461BCD PUSH1 0xE5 SHL DUP2 MSTORE PUSH1 0x20 PUSH1 0x4 DUP3 ADD MSTORE PUSH1 0x12 PUSH1 0x24 DUP3 ADD MSTORE PUSH18 0x125B9D985B1A59081C1C9A58D94819995959 PUSH1 0x72 SHL PUSH1 0x44 DUP3 ADD MSTORE PUSH1 0x64 ADD PUSH2 0x9F7 JUMP JUMPDEST PUSH1 0x0 PUSH2 0x1D15 PUSH3 0xF4240 DUP4 PUSH2 0x247F JUMP JUMPDEST PUSH1 0x2 DUP1 SLOAD SWAP2 SWAP3 POP PUSH1 0x0 PUSH2 0x1D27 DUP4 PUSH2 0x2597 JUMP JUMPDEST SWAP1 SWAP2 SSTORE POP POP PUSH1 0x2 SLOAD PUSH1 0x40 DUP1 MLOAD PUSH2 0x180 DUP2 ADD DUP3 MSTORE DUP3 DUP2 MSTORE CALLER PUSH1 0x20 DUP3 ADD MSTORE SWAP1 DUP2 ADD DUP10 SWAP1 MSTORE PUSH1 0x60 DUP2 ADD DUP9 SWAP1 MSTORE PUSH1 0x80 DUP2 ADD DUP4 SWAP1 MSTORE PUSH1 0xA0 DUP2 ADD PUSH2 0x1D65 DUP9 TIMESTAMP PUSH2 0x24D1 JUMP JUMPDEST DUP2 MSTORE DUP7 ISZERO ISZERO PUSH1 0x20 DUP1 DUP4 ADD SWAP2 SWAP1 SWAP2 MSTORE PUSH1 0x0 PUSH1 0x40 DUP1 DUP5 ADD DUP3 SWAP1 MSTORE PUSH1 0x60 DUP5 ADD DUP3 SWAP1 MSTORE PUSH1 0x80 DUP5 ADD DUP3 SWAP1 MSTORE TIMESTAMP PUSH1 0xA0 DUP6 ADD MSTORE PUSH1 0xC0 SWAP1 SWAP4 ADD DUP2 SWAP1 MSTORE DUP5 DUP2 MSTORE PUSH1 0x3 DUP3 MSTORE DUP3 SWAP1 KECCAK256 DUP4 MLOAD DUP2 SSTORE SWAP1 DUP4 ADD MLOAD PUSH1 0x1 DUP3 ADD DUP1 SLOAD PUSH1 0x1 PUSH1 0x1 PUSH1 0xA0 SHL SUB NOT AND PUSH1 0x1 PUSH1 0x1 PUSH1 0xA0 SHL SUB SWAP1 SWAP3 AND SWAP2 SWAP1 SWAP2 OR SWAP1 SSTORE SWAP1 DUP3 ADD MLOAD PUSH1 0x2 DUP3 ADD SWAP1 PUSH2 0x1DDF SWAP1 DUP3 PUSH2 0x25FF JUMP JUMPDEST POP PUSH1 0x60 DUP3 ADD MLOAD PUSH1 0x3 DUP3 ADD SSTORE PUSH1 0x80 DUP3 ADD MLOAD PUSH1 0x4 DUP3 ADD SSTORE PUSH1 0xA0 DUP3 ADD MLOAD PUSH1 0x5 DUP1 DUP4 ADD SWAP2 SWAP1 SWAP2 SSTORE PUSH1 0xC0 DUP4 ADD MLOAD PUSH1 0x6 DUP4 ADD DUP1 SLOAD PUSH1 0xE0 DUP7 ADD MLOAD PUSH2 0x100 DUP1 DUP9 ADD MLOAD PUSH2 0xFFFF NOT SWAP1 SWAP4 AND SWAP5 ISZERO ISZERO PUSH2 0xFF00 NOT AND SWAP5 SWAP1 SWAP5 OR SWAP1 ISZERO ISZERO SWAP1 SWAP4 MUL SWAP3 SWAP1 SWAP3 OR PUSH3 0xFF0000 NOT AND PUSH3 0x10000 SWAP3 ISZERO ISZERO SWAP3 SWAP1 SWAP3 MUL SWAP2 SWAP1 SWAP2 OR SWAP1 SSTORE PUSH2 0x120 DUP4 ADD MLOAD PUSH1 0x7 DUP4 ADD SSTORE PUSH2 0x140 DUP4 ADD MLOAD PUSH1 0x8 DUP4 ADD SSTORE PUSH2 0x160 SWAP1 SWAP3 ADD MLOAD PUSH1 0x9 SWAP1 SWAP2 ADD SSTORE CALLER PUSH1 0x0 DUP2 DUP2 MSTORE PUSH1 0x20 SWAP3 DUP4 MSTORE PUSH1 0x40 DUP2 KECCAK256 DUP1 SLOAD PUSH1 0x1 DUP2 ADD DUP3 SSTORE SWAP1 DUP3 MSTORE SWAP3 SWAP1 KECCAK256 SWAP1 SWAP2 ADD DUP3 SWAP1 SSTORE DUP2 PUSH32 0x85702EFB180DFBD6C19343F6D8D8819C512AC5B9C70AA0631C0F05BF1FCC38E7 DUP11 DUP11 DUP7 PUSH2 0x1EC2 DUP13 TIMESTAMP PUSH2 0x24D1 JUMP JUMPDEST DUP12 PUSH1 0x40 MLOAD PUSH2 0x1ED4 SWAP6 SWAP5 SWAP4 SWAP3 SWAP2 SWAP1 PUSH2 0x26BF JUMP JUMPDEST PUSH1 0x40 MLOAD DUP1 SWAP2 SUB SWAP1 LOG3 POP POP POP PUSH2 0x1EE9 PUSH1 0x1 PUSH1 0x0 SSTORE JUMP JUMPDEST POP POP POP POP POP JUMP JUMPDEST PUSH1 0x2 PUSH1 0x0 SLOAD SUB PUSH2 0x1F13 JUMPI PUSH1 0x40 MLOAD PUSH4 0x3EE5AEB5 PUSH1 0xE0 SHL DUP2 MSTORE PUSH1 0x4 ADD PUSH1 0x40 MLOAD DUP1 SWAP2 SUB SWAP1 REVERT JUMPDEST PUSH1 0x2 PUSH1 0x0 SSTORE JUMP JUMPDEST PUSH1 0x1 SLOAD PUSH1 0x1 PUSH1 0x1 PUSH1 0xA0 SHL SUB AND CALLER EQ PUSH2 0x1870 JUMPI PUSH1 0x40 MLOAD PUSH4 0x118CDAA7 PUSH1 0xE0 SHL DUP2 MSTORE CALLER PUSH1 0x4 DUP3 ADD MSTORE PUSH1 0x24 ADD PUSH2 0x9F7 JUMP JUMPDEST PUSH1 0x1 DUP1 SLOAD PUSH1 0x1 PUSH1 0x1 PUSH1 0xA0 SHL SUB DUP4 DUP2 AND PUSH1 0x1 PUSH1 0x1 PUSH1 0xA0 SHL SUB NOT DUP4 AND DUP2 OR SWAP1 SWAP4 SSTORE PUSH1 0x40 MLOAD SWAP2 AND SWAP2 SWAP1 DUP3 SWAP1 PUSH32 0x8BE0079C531659141344CD1FD0A4F28419497F9722A3DAAFE3B4186F6B6457E0 SWAP1 PUSH1 0x0 SWAP1 LOG3 POP POP JUMP JUMPDEST PUSH1 0x0 PUSH1 0x20 DUP3 DUP5 SUB SLT ISZERO PUSH2 0x1FAB JUMPI PUSH1 0x0 DUP1 REVERT JUMPDEST POP CALLDATALOAD SWAP2 SWAP1 POP JUMP JUMPDEST DUP1 CALLDATALOAD PUSH1 0x1 PUSH1 0x1 PUSH1 0xA0 SHL SUB DUP2 AND DUP2 EQ PUSH2 0x1FC9 JUMPI PUSH1 0x0 DUP1 REVERT JUMPDEST SWAP2 SWAP1 POP JUMP JUMPDEST PUSH1 0x0 DUP1 PUSH1 0x40 DUP4 DUP6 SUB SLT ISZERO PUSH2 0x1FE1 JUMPI PUSH1 0x0 DUP1 REVERT JUMPDEST PUSH2 0x1FEA DUP4 PUSH2 0x1FB2 JUMP JUMPDEST SWAP5 PUSH1 0x20 SWAP4 SWAP1 SWAP4 ADD CALLDATALOAD SWAP4 POP POP POP JUMP JUMPDEST PUSH1 0x0 JUMPDEST DUP4 DUP2 LT ISZERO PUSH2 0x2013 JUMPI DUP2 DUP2 ADD MLOAD DUP4 DUP3 ADD MSTORE PUSH1 0x20 ADD PUSH2 0x1FFB JUMP JUMPDEST POP POP PUSH1 0x0 SWAP2 ADD MSTORE JUMP JUMPDEST PUSH1 0x0 DUP2 MLOAD DUP1 DUP5 MSTORE PUSH2 0x2034 DUP2 PUSH1 0x20 DUP7 ADD PUSH1 0x20 DUP7 ADD PUSH2 0x1FF8 JUMP JUMPDEST PUSH1 0x1F ADD PUSH1 0x1F NOT AND SWAP3 SWAP1 SWAP3 ADD PUSH1 0x20 ADD SWAP3 SWAP2 POP POP JUMP JUMPDEST PUSH1 0x20 DUP2 MSTORE DUP2 MLOAD PUSH1 0x20 DUP3 ADD MSTORE PUSH1 0x0 PUSH1 0x20 DUP4 ADD MLOAD PUSH2 0x206F PUSH1 0x40 DUP5 ADD DUP3 PUSH1 0x1 PUSH1 0x1 PUSH1 0xA0 SHL SUB AND SWAP1 MSTORE JUMP JUMPDEST POP PUSH1 0x40 DUP4 ADD MLOAD PUSH2 0x180 DUP1 PUSH1 0x60 DUP6 ADD MSTORE PUSH2 0x208C PUSH2 0x1A0 DUP6 ADD DUP4 PUSH2 0x201C JUMP JUMPDEST SWAP2 POP PUSH1 0x60 DUP6 ADD MLOAD PUSH1 0x80 DUP6 ADD MSTORE PUSH1 0x80 DUP6 ADD MLOAD PUSH1 0xA0 DUP6 ADD MSTORE PUSH1 0xA0 DUP6 ADD MLOAD PUSH1 0xC0 DUP6 ADD MSTORE PUSH1 0xC0 DUP6 ADD MLOAD PUSH2 0x20BF PUSH1 0xE0 DUP7 ADD DUP3 ISZERO ISZERO SWAP1 MSTORE JUMP JUMPDEST POP PUSH1 0xE0 DUP6 ADD MLOAD PUSH2 0x100 PUSH2 0x20D5 DUP2 DUP8 ADD DUP4 ISZERO ISZERO SWAP1 MSTORE JUMP JUMPDEST DUP7 ADD MLOAD SWAP1 POP PUSH2 0x120 PUSH2 0x20EA DUP7 DUP3 ADD DUP4 ISZERO ISZERO SWAP1 MSTORE JUMP JUMPDEST DUP7 ADD MLOAD PUSH2 0x140 DUP7 DUP2 ADD SWAP2 SWAP1 SWAP2 MSTORE DUP7 ADD MLOAD PUSH2 0x160 DUP1 DUP8 ADD SWAP2 SWAP1 SWAP2 MSTORE SWAP1 SWAP6 ADD MLOAD SWAP4 ADD SWAP3 SWAP1 SWAP3 MSTORE POP SWAP2 SWAP1 POP JUMP JUMPDEST DUP13 DUP2 MSTORE PUSH1 0x1 PUSH1 0x1 PUSH1 0xA0 SHL SUB DUP13 AND PUSH1 0x20 DUP3 ADD MSTORE PUSH2 0x180 PUSH1 0x40 DUP3 ADD DUP2 SWAP1 MSTORE PUSH1 0x0 SWAP1 PUSH2 0x213F DUP4 DUP3 ADD DUP15 PUSH2 0x201C JUMP JUMPDEST PUSH1 0x60 DUP5 ADD SWAP13 SWAP1 SWAP13 MSTORE POP POP PUSH1 0x80 DUP2 ADD SWAP9 SWAP1 SWAP9 MSTORE PUSH1 0xA0 DUP9 ADD SWAP7 SWAP1 SWAP7 MSTORE SWAP4 ISZERO ISZERO PUSH1 0xC0 DUP8 ADD MSTORE SWAP2 ISZERO ISZERO PUSH1 0xE0 DUP7 ADD MSTORE ISZERO ISZERO PUSH2 0x100 DUP6 ADD MSTORE PUSH2 0x120 DUP5 ADD MSTORE PUSH2 0x140 DUP4 ADD MSTORE PUSH2 0x160 SWAP1 SWAP2 ADD MSTORE SWAP4 SWAP3 POP POP POP JUMP JUMPDEST PUSH4 0x4E487B71 PUSH1 0xE0 SHL PUSH1 0x0 MSTORE PUSH1 0x41 PUSH1 0x4 MSTORE PUSH1 0x24 PUSH1 0x0 REVERT JUMPDEST PUSH1 0x0 DUP3 PUSH1 0x1F DUP4 ADD SLT PUSH2 0x21B2 JUMPI PUSH1 0x0 DUP1 REVERT JUMPDEST DUP2 CALLDATALOAD PUSH8 0xFFFFFFFFFFFFFFFF DUP1 DUP3 GT ISZERO PUSH2 0x21CD JUMPI PUSH2 0x21CD PUSH2 0x218B JUMP JUMPDEST PUSH1 0x40 MLOAD PUSH1 0x1F DUP4 ADD PUSH1 0x1F NOT SWAP1 DUP2 AND PUSH1 0x3F ADD AND DUP2 ADD SWAP1 DUP3 DUP3 GT DUP2 DUP4 LT OR ISZERO PUSH2 0x21F5 JUMPI PUSH2 0x21F5 PUSH2 0x218B JUMP JUMPDEST DUP2 PUSH1 0x40 MSTORE DUP4 DUP2 MSTORE DUP7 PUSH1 0x20 DUP6 DUP9 ADD ADD GT ISZERO PUSH2 0x220E JUMPI PUSH1 0x0 DUP1 REVERT JUMPDEST DUP4 PUSH1 0x20 DUP8 ADD PUSH1 0x20 DUP4 ADD CALLDATACOPY PUSH1 0x0 PUSH1 0x20 DUP6 DUP4 ADD ADD MSTORE DUP1 SWAP5 POP POP POP POP POP SWAP3 SWAP2 POP POP JUMP JUMPDEST PUSH1 0x0 PUSH1 0x20 DUP3 DUP5 SUB SLT ISZERO PUSH2 0x2240 JUMPI PUSH1 0x0 DUP1 REVERT JUMPDEST DUP2 CALLDATALOAD PUSH8 0xFFFFFFFFFFFFFFFF DUP2 GT ISZERO PUSH2 0x2257 JUMPI PUSH1 0x0 DUP1 REVERT JUMPDEST PUSH2 0x1110 DUP5 DUP3 DUP6 ADD PUSH2 0x21A1 JUMP JUMPDEST DUP1 CALLDATALOAD DUP1 ISZERO ISZERO DUP2 EQ PUSH2 0x1FC9 JUMPI PUSH1 0x0 DUP1 REVERT JUMPDEST PUSH1 0x0 DUP1 PUSH1 0x0 DUP1 PUSH1 0x0 DUP1 PUSH1 0xC0 DUP8 DUP10 SUB SLT ISZERO PUSH2 0x228C JUMPI PUSH1 0x0 DUP1 REVERT JUMPDEST PUSH2 0x2295 DUP8 PUSH2 0x1FB2 JUMP JUMPDEST SWAP6 POP PUSH1 0x20 DUP8 ADD CALLDATALOAD PUSH8 0xFFFFFFFFFFFFFFFF DUP2 GT ISZERO PUSH2 0x22B1 JUMPI PUSH1 0x0 DUP1 REVERT JUMPDEST PUSH2 0x22BD DUP10 DUP3 DUP11 ADD PUSH2 0x21A1 JUMP JUMPDEST SWAP6 POP POP PUSH1 0x40 DUP8 ADD CALLDATALOAD SWAP4 POP PUSH1 0x60 DUP8 ADD CALLDATALOAD SWAP3 POP PUSH1 0x80 DUP8 ADD CALLDATALOAD SWAP2 POP PUSH2 0x22E1 PUSH1 0xA0 DUP9 ADD PUSH2 0x2263 JUMP JUMPDEST SWAP1 POP SWAP3 SWAP6 POP SWAP3 SWAP6 POP SWAP3 SWAP6 JUMP JUMPDEST PUSH1 0x0 DUP1 PUSH1 0x0 DUP1 PUSH1 0x0 PUSH1 0xA0 DUP7 DUP9 SUB SLT ISZERO PUSH2 0x2305 JUMPI PUSH1 0x0 DUP1 REVERT JUMPDEST DUP6 CALLDATALOAD PUSH8 0xFFFFFFFFFFFFFFFF DUP2 GT ISZERO PUSH2 0x231C JUMPI PUSH1 0x0 DUP1 REVERT JUMPDEST PUSH2 0x2328 DUP9 DUP3 DUP10 ADD PUSH2 0x21A1 JUMP JUMPDEST SWAP6 POP POP PUSH2 0x2337 PUSH1 0x20 DUP8 ADD PUSH2 0x1FB2 JUMP JUMPDEST SWAP5 SWAP8 SWAP5 SWAP7 POP POP POP POP PUSH1 0x40 DUP4 ADD CALLDATALOAD SWAP3 PUSH1 0x60 DUP2 ADD CALLDATALOAD SWAP3 PUSH1 0x80 SWAP1 SWAP2 ADD CALLDATALOAD SWAP2 POP JUMP JUMPDEST PUSH1 0x20 DUP2 MSTORE PUSH1 0x0 PUSH2 0x2368 PUSH1 0x20 DUP4 ADD DUP5 PUSH2 0x201C JUMP JUMPDEST SWAP4 SWAP3 POP POP POP JUMP JUMPDEST PUSH1 0x0 PUSH1 0x20 DUP3 DUP5 SUB SLT ISZERO PUSH2 0x2381 JUMPI PUSH1 0x0 DUP1 REVERT JUMPDEST PUSH2 0x2368 DUP3 PUSH2 0x1FB2 JUMP JUMPDEST PUSH1 0x20 DUP1 DUP3 MSTORE DUP3 MLOAD DUP3 DUP3 ADD DUP2 SWAP1 MSTORE PUSH1 0x0 SWAP2 SWAP1 DUP5 DUP3 ADD SWAP1 PUSH1 0x40 DUP6 ADD SWAP1 DUP5 JUMPDEST DUP2 DUP2 LT ISZERO PUSH2 0x23C2 JUMPI DUP4 MLOAD DUP4 MSTORE SWAP3 DUP5 ADD SWAP3 SWAP2 DUP5 ADD SWAP2 PUSH1 0x1 ADD PUSH2 0x23A6 JUMP JUMPDEST POP SWAP1 SWAP7 SWAP6 POP POP POP POP POP POP JUMP JUMPDEST PUSH1 0x0 DUP1 PUSH1 0x0 DUP1 PUSH1 0x80 DUP6 DUP8 SUB SLT ISZERO PUSH2 0x23E4 JUMPI PUSH1 0x0 DUP1 REVERT JUMPDEST DUP5 CALLDATALOAD PUSH8 0xFFFFFFFFFFFFFFFF DUP2 GT ISZERO PUSH2 0x23FB JUMPI PUSH1 0x0 DUP1 REVERT JUMPDEST PUSH2 0x2407 DUP8 DUP3 DUP9 ADD PUSH2 0x21A1 JUMP JUMPDEST SWAP5 POP POP PUSH1 0x20 DUP6 ADD CALLDATALOAD SWAP3 POP PUSH1 0x40 DUP6 ADD CALLDATALOAD SWAP2 POP PUSH2 0x2424 PUSH1 0x60 DUP7 ADD PUSH2 0x2263 JUMP JUMPDEST SWAP1 POP SWAP3 SWAP6 SWAP2 SWAP5 POP SWAP3 POP JUMP JUMPDEST PUSH1 0x1 DUP2 DUP2 SHR SWAP1 DUP3 AND DUP1 PUSH2 0x2443 JUMPI PUSH1 0x7F DUP3 AND SWAP2 POP JUMPDEST PUSH1 0x20 DUP3 LT DUP2 SUB PUSH2 0x2463 JUMPI PUSH4 0x4E487B71 PUSH1 0xE0 SHL PUSH1 0x0 MSTORE PUSH1 0x22 PUSH1 0x4 MSTORE PUSH1 0x24 PUSH1 0x0 REVERT JUMPDEST POP SWAP2 SWAP1 POP JUMP JUMPDEST PUSH4 0x4E487B71 PUSH1 0xE0 SHL PUSH1 0x0 MSTORE PUSH1 0x11 PUSH1 0x4 MSTORE PUSH1 0x24 PUSH1 0x0 REVERT JUMPDEST PUSH1 0x0 DUP3 PUSH2 0x249C JUMPI PUSH4 0x4E487B71 PUSH1 0xE0 SHL PUSH1 0x0 MSTORE PUSH1 0x12 PUSH1 0x4 MSTORE PUSH1 0x24 PUSH1 0x0 REVERT JUMPDEST POP DIV SWAP1 JUMP JUMPDEST DUP1 DUP3 MUL DUP2 ISZERO DUP3 DUP3 DIV DUP5 EQ OR PUSH2 0x24B8 JUMPI PUSH2 0x24B8 PUSH2 0x2469 JUMP JUMPDEST SWAP3 SWAP2 POP POP JUMP JUMPDEST DUP2 DUP2 SUB DUP2 DUP2 GT ISZERO PUSH2 0x24B8 JUMPI PUSH2 0x24B8 PUSH2 0x2469 JUMP JUMPDEST DUP1 DUP3 ADD DUP1 DUP3 GT ISZERO PUSH2 0x24B8 JUMPI PUSH2 0x24B8 PUSH2 0x2469 JUMP JUMPDEST PUSH1 0x0 DUP3 MLOAD PUSH2 0x24F6 DUP2 DUP5 PUSH1 0x20 DUP8 ADD PUSH2 0x1FF8 JUMP JUMPDEST SWAP2 SWAP1 SWAP2 ADD SWAP3 SWAP2 POP POP JUMP JUMPDEST PUSH1 0x20 DUP1 DUP3 MSTORE PUSH1 0x13 SWAP1 DUP3 ADD MSTORE PUSH19 0x105CDCD95D081B9BDD081CDD5C1C1BDC9D1959 PUSH1 0x6A SHL PUSH1 0x40 DUP3 ADD MSTORE PUSH1 0x60 ADD SWAP1 JUMP JUMPDEST DUP1 MLOAD PUSH10 0xFFFFFFFFFFFFFFFFFFFF DUP2 AND DUP2 EQ PUSH2 0x1FC9 JUMPI PUSH1 0x0 DUP1 REVERT JUMPDEST PUSH1 0x0 DUP1 PUSH1 0x0 DUP1 PUSH1 0x0 PUSH1 0xA0 DUP7 DUP9 SUB SLT ISZERO PUSH2 0x255F JUMPI PUSH1 0x0 DUP1 REVERT JUMPDEST PUSH2 0x2568 DUP7 PUSH2 0x252D JUMP JUMPDEST SWAP5 POP PUSH1 0x20 DUP7 ADD MLOAD SWAP4 POP PUSH1 0x40 DUP7 ADD MLOAD SWAP3 POP PUSH1 0x60 DUP7 ADD MLOAD SWAP2 POP PUSH2 0x258B PUSH1 0x80 DUP8 ADD PUSH2 0x252D JUMP JUMPDEST SWAP1 POP SWAP3 SWAP6 POP SWAP3 SWAP6 SWAP1 SWAP4 POP JUMP JUMPDEST PUSH1 0x0 PUSH1 0x1 DUP3 ADD PUSH2 0x25A9 JUMPI PUSH2 0x25A9 PUSH2 0x2469 JUMP JUMPDEST POP PUSH1 0x1 ADD SWAP1 JUMP JUMPDEST PUSH1 0x1F DUP3 GT ISZERO PUSH2 0x25FA JUMPI PUSH1 0x0 DUP2 DUP2 MSTORE PUSH1 0x20 DUP2 KECCAK256 PUSH1 0x1F DUP6 ADD PUSH1 0x5 SHR DUP2 ADD PUSH1 0x20 DUP7 LT ISZERO PUSH2 0x25D7 JUMPI POP DUP1 JUMPDEST PUSH1 0x1F DUP6 ADD PUSH1 0x5 SHR DUP3 ADD SWAP2 POP JUMPDEST DUP2 DUP2 LT ISZERO PUSH2 0x25F6 JUMPI DUP3 DUP2 SSTORE PUSH1 0x1 ADD PUSH2 0x25E3 JUMP JUMPDEST POP POP POP JUMPDEST POP POP POP JUMP JUMPDEST DUP2 MLOAD PUSH8 0xFFFFFFFFFFFFFFFF DUP2 GT ISZERO PUSH2 0x2619 JUMPI PUSH2 0x2619 PUSH2 0x218B JUMP JUMPDEST PUSH2 0x262D DUP2 PUSH2 0x2627 DUP5 SLOAD PUSH2 0x242F JUMP JUMPDEST DUP5 PUSH2 0x25B0 JUMP JUMPDEST PUSH1 0x20 DUP1 PUSH1 0x1F DUP4 GT PUSH1 0x1 DUP2 EQ PUSH2 0x2662 JUMPI PUSH1 0x0 DUP5 ISZERO PUSH2 0x264A JUMPI POP DUP6 DUP4 ADD MLOAD JUMPDEST PUSH1 0x0 NOT PUSH1 0x3 DUP7 SWAP1 SHL SHR NOT AND PUSH1 0x1 DUP6 SWAP1 SHL OR DUP6 SSTORE PUSH2 0x25F6 JUMP JUMPDEST PUSH1 0x0 DUP6 DUP2 MSTORE PUSH1 0x20 DUP2 KECCAK256 PUSH1 0x1F NOT DUP7 AND SWAP2 JUMPDEST DUP3 DUP2 LT ISZERO PUSH2 0x2691 JUMPI DUP9 DUP7 ADD MLOAD DUP3 SSTORE SWAP5 DUP5 ADD SWAP5 PUSH1 0x1 SWAP1 SWAP2 ADD SWAP1 DUP5 ADD PUSH2 0x2672 JUMP JUMPDEST POP DUP6 DUP3 LT ISZERO PUSH2 0x26AF JUMPI DUP8 DUP6 ADD MLOAD PUSH1 0x0 NOT PUSH1 0x3 DUP9 SWAP1 SHL PUSH1 0xF8 AND SHR NOT AND DUP2 SSTORE JUMPDEST POP POP POP POP POP PUSH1 0x1 SWAP1 DUP2 SHL ADD SWAP1 SSTORE POP JUMP JUMPDEST PUSH1 0xA0 DUP2 MSTORE PUSH1 0x0 PUSH2 0x26D2 PUSH1 0xA0 DUP4 ADD DUP9 PUSH2 0x201C JUMP JUMPDEST SWAP1 POP DUP6 PUSH1 0x20 DUP4 ADD MSTORE DUP5 PUSH1 0x40 DUP4 ADD MSTORE DUP4 PUSH1 0x60 DUP4 ADD MSTORE DUP3 ISZERO ISZERO PUSH1 0x80 DUP4 ADD MSTORE SWAP7 SWAP6 POP POP POP POP POP POP JUMP JUMPDEST PUSH1 0xA0 DUP2 MSTORE PUSH1 0x0 PUSH2 0x270B PUSH1 0xA0 DUP4 ADD DUP9 PUSH2 0x201C JUMP JUMPDEST PUSH1 0x1 PUSH1 0x1 PUSH1 0xA0 SHL SUB SWAP7 SWAP1 SWAP7 AND PUSH1 0x20 DUP4 ADD MSTORE POP PUSH1 0x40 DUP2 ADD SWAP4 SWAP1 SWAP4 MSTORE PUSH1 0x60 DUP4 ADD SWAP2 SWAP1 SWAP2 MSTORE PUSH1 0x80 SWAP1 SWAP2 ADD MSTORE SWAP2 SWAP1 POP JUMP INVALID LOG2 PUSH5 0x6970667358 0x22 SLT KECCAK256 0xB0 NOT 0x5E 0x2F 0xAD PUSH16 0x4D35BD48BD1E6A09D5D78B46FE845008 PUSH22 0xCEFB3BA2F1EA5A21C064736F6C634300081400330000 "},"methodIdentifiers":{"assetConfigs(string)":"b0421c28","createOption(string,uint256,uint256,bool)":"fd507cf5","createOptionFor(address,string,uint256,uint256,uint256,bool)":"45271437","executeOption(uint256)":"37fb409c","fundContract()":"bd097e21","getContractStats()":"dfe6b5d6","getCurrentPrice(string)":"42a0f243","getOption(uint256)":"1ce5e9a6","getOptionAmount(uint256)":"9ba543f6","getOptionAsset(uint256)":"703eea28","getOptionExpiryTime(uint256)":"4dc9d2dc","getOptionFinalPrice(uint256)":"7a7f0a4b","getOptionId(uint256)":"0ad03cba","getOptionIsCall(uint256)":"da8bcc17","getOptionIsExecuted(uint256)":"ee6660ca","getOptionIsWon(uint256)":"9ba0adeb","getOptionPayout(uint256)":"bb4e0f94","getOptionStrikePrice(uint256)":"60294205","getOptionTimestamp(uint256)":"5206652f","getOptionTrader(uint256)":"667aeb33","getUserOptions(address)":"bb2fb90a","maxExpiryTime()":"733789c4","minExpiryTime()":"3eb0063c","options(uint256)":"409e2205","owner()":"8da5cb5b","pauseAsset(string)":"9a5db8f3","platformFee()":"26232a2e","renounceOwnership()":"715018a6","resumeAsset(string)":"f0cd1f3f","transferOwnership(address)":"f2fde38b","updateAssetConfig(string,address,uint256,uint256,uint256)":"60bdbace","updatePlatformFee(uint256)":"aa0b5988","userOptions(address,uint256)":"1c858f2b","withdrawFees()":"476343ee"}}}}}