{
  "_format": "hh-sol-artifact-1",
  "contractName": "BinaryOptions",
  "sourceName": "contracts/BinaryOptions.sol",
  "abi": [
    {
      "inputs": [
        {
          "internalType": "address",
          "name": "initialOwner",
          "type": "address"
        }
      ],
      "stateMutability": "nonpayable",
      "type": "constructor"
    },
    {
      "inputs": [
        {
          "internalType": "address",
          "name": "owner",
          "type": "address"
        }
      ],
      "name": "OwnableInvalidOwner",
      "type": "error"
    },
    {
      "inputs": [
        {
          "internalType": "address",
          "name": "account",
          "type": "address"
        }
      ],
      "name": "OwnableUnauthorizedAccount",
      "type": "error"
    },
    {
      "inputs": [],
      "name": "ReentrancyGuardReentrantCall",
      "type": "error"
    },
    {
      "anonymous": false,
      "inputs": [
        {
          "indexed": false,
          "internalType": "string",
          "name": "asset",
          "type": "string"
        },
        {
          "indexed": false,
          "internalType": "address",
          "name": "priceFeed",
          "type": "address"
        },
        {
          "indexed": false,
          "internalType": "uint256",
          "name": "minAmount",
          "type": "uint256"
        },
        {
          "indexed": false,
          "internalType": "uint256",
          "name": "maxAmount",
          "type": "uint256"
        },
        {
          "indexed": false,
          "internalType": "uint256",
          "name": "feePercentage",
          "type": "uint256"
        }
      ],
      "name": "AssetConfigUpdated",
      "type": "event"
    },
    {
      "anonymous": false,
      "inputs": [
        {
          "indexed": true,
          "internalType": "address",
          "name": "owner",
          "type": "address"
        },
        {
          "indexed": false,
          "internalType": "uint256",
          "name": "amount",
          "type": "uint256"
        }
      ],
      "name": "FundsWithdrawn",
      "type": "event"
    },
    {
      "anonymous": false,
      "inputs": [
        {
          "indexed": true,
          "internalType": "uint256",
          "name": "optionId",
          "type": "uint256"
        },
        {
          "indexed": true,
          "internalType": "address",
          "name": "trader",
          "type": "address"
        },
        {
          "indexed": false,
          "internalType": "string",
          "name": "asset",
          "type": "string"
        },
        {
          "indexed": false,
          "internalType": "uint256",
          "name": "amount",
          "type": "uint256"
        },
        {
          "indexed": false,
          "internalType": "uint256",
          "name": "strikePrice",
          "type": "uint256"
        },
        {
          "indexed": false,
          "internalType": "uint256",
          "name": "expiryTime",
          "type": "uint256"
        },
        {
          "indexed": false,
          "internalType": "bool",
          "name": "isCall",
          "type": "bool"
        }
      ],
      "name": "OptionCreated",
      "type": "event"
    },
    {
      "anonymous": false,
      "inputs": [
        {
          "indexed": true,
          "internalType": "uint256",
          "name": "optionId",
          "type": "uint256"
        },
        {
          "indexed": false,
          "internalType": "bool",
          "name": "isWon",
          "type": "bool"
        },
        {
          "indexed": false,
          "internalType": "uint256",
          "name": "payout",
          "type": "uint256"
        },
        {
          "indexed": false,
          "internalType": "uint256",
          "name": "finalPrice",
          "type": "uint256"
        }
      ],
      "name": "OptionExecuted",
      "type": "event"
    },
    {
      "anonymous": false,
      "inputs": [
        {
          "indexed": true,
          "internalType": "address",
          "name": "previousOwner",
          "type": "address"
        },
        {
          "indexed": true,
          "internalType": "address",
          "name": "newOwner",
          "type": "address"
        }
      ],
      "name": "OwnershipTransferred",
      "type": "event"
    },
    {
      "anonymous": false,
      "inputs": [
        {
          "indexed": false,
          "internalType": "uint256",
          "name": "newFee",
          "type": "uint256"
        }
      ],
      "name": "PlatformFeeUpdated",
      "type": "event"
    },
    {
      "inputs": [
        {
          "internalType": "string",
          "name": "",
          "type": "string"
        }
      ],
      "name": "assetConfigs",
      "outputs": [
        {
          "internalType": "address",
          "name": "priceFeed",
          "type": "address"
        },
        {
          "internalType": "uint256",
          "name": "minAmount",
          "type": "uint256"
        },
        {
          "internalType": "uint256",
          "name": "maxAmount",
          "type": "uint256"
        },
        {
          "internalType": "uint256",
          "name": "feePercentage",
          "type": "uint256"
        },
        {
          "internalType": "bool",
          "name": "isActive",
          "type": "bool"
        }
      ],
      "stateMutability": "view",
      "type": "function"
    },
    {
      "inputs": [
        {
          "internalType": "string",
          "name": "asset",
          "type": "string"
        },
        {
          "internalType": "uint256",
          "name": "amount",
          "type": "uint256"
        },
        {
          "internalType": "uint256",
          "name": "expiryTime",
          "type": "uint256"
        },
        {
          "internalType": "bool",
          "name": "isCall",
          "type": "bool"
        }
      ],
      "name": "createOption",
      "outputs": [],
      "stateMutability": "payable",
      "type": "function"
    },
    {
      "inputs": [
        {
          "internalType": "uint256",
          "name": "optionId",
          "type": "uint256"
        }
      ],
      "name": "executeOption",
      "outputs": [],
      "stateMutability": "nonpayable",
      "type": "function"
    },
    {
      "inputs": [],
      "name": "getContractStats",
      "outputs": [
        {
          "internalType": "uint256",
          "name": "totalOptions",
          "type": "uint256"
        },
        {
          "internalType": "uint256",
          "name": "totalVolume",
          "type": "uint256"
        },
        {
          "internalType": "uint256",
          "name": "contractBalance",
          "type": "uint256"
        }
      ],
      "stateMutability": "view",
      "type": "function"
    },
    {
      "inputs": [
        {
          "internalType": "string",
          "name": "asset",
          "type": "string"
        }
      ],
      "name": "getCurrentPrice",
      "outputs": [
        {
          "internalType": "uint256",
          "name": "",
          "type": "uint256"
        }
      ],
      "stateMutability": "view",
      "type": "function"
    },
    {
      "inputs": [
        {
          "internalType": "uint256",
          "name": "optionId",
          "type": "uint256"
        }
      ],
      "name": "getOption",
      "outputs": [
        {
          "components": [
            {
              "internalType": "uint256",
              "name": "id",
              "type": "uint256"
            },
            {
              "internalType": "address",
              "name": "trader",
              "type": "address"
            },
            {
              "internalType": "string",
              "name": "asset",
              "type": "string"
            },
            {
              "internalType": "uint256",
              "name": "amount",
              "type": "uint256"
            },
            {
              "internalType": "uint256",
              "name": "strikePrice",
              "type": "uint256"
            },
            {
              "internalType": "uint256",
              "name": "expiryTime",
              "type": "uint256"
            },
            {
              "internalType": "bool",
              "name": "isCall",
              "type": "bool"
            },
            {
              "internalType": "bool",
              "name": "isExecuted",
              "type": "bool"
            },
            {
              "internalType": "bool",
              "name": "isWon",
              "type": "bool"
            },
            {
              "internalType": "uint256",
              "name": "payout",
              "type": "uint256"
            },
            {
              "internalType": "uint256",
              "name": "timestamp",
              "type": "uint256"
            }
          ],
          "internalType": "struct BinaryOptions.Option",
          "name": "",
          "type": "tuple"
        }
      ],
      "stateMutability": "view",
      "type": "function"
    },
    {
      "inputs": [
        {
          "internalType": "address",
          "name": "user",
          "type": "address"
        }
      ],
      "name": "getUserOptions",
      "outputs": [
        {
          "internalType": "uint256[]",
          "name": "",
          "type": "uint256[]"
        }
      ],
      "stateMutability": "view",
      "type": "function"
    },
    {
      "inputs": [],
      "name": "maxExpiryTime",
      "outputs": [
        {
          "internalType": "uint256",
          "name": "",
          "type": "uint256"
        }
      ],
      "stateMutability": "view",
      "type": "function"
    },
    {
      "inputs": [],
      "name": "minExpiryTime",
      "outputs": [
        {
          "internalType": "uint256",
          "name": "",
          "type": "uint256"
        }
      ],
      "stateMutability": "view",
      "type": "function"
    },
    {
      "inputs": [
        {
          "internalType": "uint256",
          "name": "",
          "type": "uint256"
        }
      ],
      "name": "options",
      "outputs": [
        {
          "internalType": "uint256",
          "name": "id",
          "type": "uint256"
        },
        {
          "internalType": "address",
          "name": "trader",
          "type": "address"
        },
        {
          "internalType": "string",
          "name": "asset",
          "type": "string"
        },
        {
          "internalType": "uint256",
          "name": "amount",
          "type": "uint256"
        },
        {
          "internalType": "uint256",
          "name": "strikePrice",
          "type": "uint256"
        },
        {
          "internalType": "uint256",
          "name": "expiryTime",
          "type": "uint256"
        },
        {
          "internalType": "bool",
          "name": "isCall",
          "type": "bool"
        },
        {
          "internalType": "bool",
          "name": "isExecuted",
          "type": "bool"
        },
        {
          "internalType": "bool",
          "name": "isWon",
          "type": "bool"
        },
        {
          "internalType": "uint256",
          "name": "payout",
          "type": "uint256"
        },
        {
          "internalType": "uint256",
          "name": "timestamp",
          "type": "uint256"
        }
      ],
      "stateMutability": "view",
      "type": "function"
    },
    {
      "inputs": [],
      "name": "owner",
      "outputs": [
        {
          "internalType": "address",
          "name": "",
          "type": "address"
        }
      ],
      "stateMutability": "view",
      "type": "function"
    },
    {
      "inputs": [
        {
          "internalType": "string",
          "name": "asset",
          "type": "string"
        }
      ],
      "name": "pauseAsset",
      "outputs": [],
      "stateMutability": "nonpayable",
      "type": "function"
    },
    {
      "inputs": [],
      "name": "platformFee",
      "outputs": [
        {
          "internalType": "uint256",
          "name": "",
          "type": "uint256"
        }
      ],
      "stateMutability": "view",
      "type": "function"
    },
    {
      "inputs": [],
      "name": "renounceOwnership",
      "outputs": [],
      "stateMutability": "nonpayable",
      "type": "function"
    },
    {
      "inputs": [
        {
          "internalType": "string",
          "name": "asset",
          "type": "string"
        }
      ],
      "name": "resumeAsset",
      "outputs": [],
      "stateMutability": "nonpayable",
      "type": "function"
    },
    {
      "inputs": [
        {
          "internalType": "address",
          "name": "newOwner",
          "type": "address"
        }
      ],
      "name": "transferOwnership",
      "outputs": [],
      "stateMutability": "nonpayable",
      "type": "function"
    },
    {
      "inputs": [
        {
          "internalType": "string",
          "name": "asset",
          "type": "string"
        },
        {
          "internalType": "address",
          "name": "priceFeed",
          "type": "address"
        },
        {
          "internalType": "uint256",
          "name": "minAmount",
          "type": "uint256"
        },
        {
          "internalType": "uint256",
          "name": "maxAmount",
          "type": "uint256"
        },
        {
          "internalType": "uint256",
          "name": "feePercentage",
          "type": "uint256"
        }
      ],
      "name": "updateAssetConfig",
      "outputs": [],
      "stateMutability": "nonpayable",
      "type": "function"
    },
    {
      "inputs": [
        {
          "internalType": "uint256",
          "name": "newFee",
          "type": "uint256"
        }
      ],
      "name": "updatePlatformFee",
      "outputs": [],
      "stateMutability": "nonpayable",
      "type": "function"
    },
    {
      "inputs": [
        {
          "internalType": "address",
          "name": "",
          "type": "address"
        },
        {
          "internalType": "uint256",
          "name": "",
          "type": "uint256"
        }
      ],
      "name": "userOptions",
      "outputs": [
        {
          "internalType": "uint256",
          "name": "",
          "type": "uint256"
        }
      ],
      "stateMutability": "view",
      "type": "function"
    },
    {
      "inputs": [],
      "name": "withdrawFees",
      "outputs": [],
      "stateMutability": "nonpayable",
      "type": "function"
    },
    {
      "stateMutability": "payable",
      "type": "receive"
    }
  ],
  "bytecode": "0x608060405260c860065561012c600755620151806008553480156200002357600080fd5b5060405162001f8738038062001f878339810160408190526200004691620002c4565b6001600055806001600160a01b0381166200007b57604051631e4fbdf760e01b81526000600482015260240160405180910390fd5b6200008681620001c4565b5060408051808201909152600381526208aa8960eb1b6020820152620000d49073694aa1769357215de4fac081bf1f309adc32530666038d7ea4c68000671bc16d674ec80000609662000216565b60408051808201909152600381526242544360e81b60208201526200012090731b44f3514812d835eb1bdb0acb33d3fa3351ee43655af3107a4000670de0b6b3a764000060c862000216565b6040805180820190915260048152634c494e4b60e01b60208201526200016e9073c59e3633baac79493d908e63626716e204a45edf6611c37937e080006714d1120d7b16000060c862000216565b6040805180820190915260058152644d4154494360d81b6020820152620001bd9073d0d5e3db44de05e9f294bb0a3beeaf030de24ada662386f26fc10000671bc16d674ec8000060fa62000216565b5062000327565b600180546001600160a01b038381166001600160a01b0319831681179093556040519116919082907f8be0079c531659141344cd1fd0a4f28419497f9722a3daafe3b4186f6b6457e090600090a35050565b6040518060a00160405280856001600160a01b03168152602001848152602001838152602001828152602001600115158152506004866040516200025b9190620002f6565b9081526040805160209281900383019020835181546001600160a01b0319166001600160a01b039091161781559183015160018301558201516002820155606082015160038201556080909101516004909101805460ff19169115159190911790555050505050565b600060208284031215620002d757600080fd5b81516001600160a01b0381168114620002ef57600080fd5b9392505050565b6000825160005b81811015620003195760208186018101518583015201620002fd565b506000920191825250919050565b611c5080620003376000396000f3fe6080604052600436106101235760003560e01c8063733789c4116100a0578063bb2fb90a11610064578063bb2fb90a14610394578063dfe6b5d6146103c1578063f0cd1f3f146103f1578063f2fde38b14610411578063fd507cf51461043157600080fd5b8063733789c41461027e5780638da5cb5b146102945780639a5db8f3146102bc578063aa0b5988146102dc578063b0421c28146102fc57600080fd5b8063409e2205116100e7578063409e2205146101dd57806342a0f24314610214578063476343ee1461023457806360bdbace14610249578063715018a61461026957600080fd5b80631c858f2b1461012f5780631ce5e9a61461016257806326232a2e1461018f57806337fb409c146101a55780633eb0063c146101c757600080fd5b3661012a57005b600080fd5b34801561013b57600080fd5b5061014f61014a366004611587565b610444565b6040519081526020015b60405180910390f35b34801561016e57600080fd5b5061018261017d3660046115b1565b610475565b604051610159919061161a565b34801561019b57600080fd5b5061014f60065481565b3480156101b157600080fd5b506101c56101c03660046115b1565b610613565b005b3480156101d357600080fd5b5061014f60075481565b3480156101e957600080fd5b506101fd6101f83660046115b1565b6109b8565b6040516101599b9a999897969594939291906116d9565b34801561022057600080fd5b5061014f61022f3660046117ed565b610aab565b34801561024057600080fd5b506101c5610c15565b34801561025557600080fd5b506101c5610264366004611822565b610d5a565b34801561027557600080fd5b506101c5610e4c565b34801561028a57600080fd5b5061014f60085481565b3480156102a057600080fd5b506001546040516001600160a01b039091168152602001610159565b3480156102c857600080fd5b506101c56102d73660046117ed565b610e60565b3480156102e857600080fd5b506101c56102f73660046115b1565b610ea0565b34801561030857600080fd5b506103606103173660046117ed565b805160208183018101805160048083529383019290940191909120929052815460018301546002840154600385015494909301546001600160a01b039092169390929160ff1685565b604080516001600160a01b03909616865260208601949094529284019190915260608301521515608082015260a001610159565b3480156103a057600080fd5b506103b46103af36600461188a565b610f24565b60405161015991906118a5565b3480156103cd57600080fd5b506103d6610f90565b60408051938452602084019290925290820152606001610159565b3480156103fd57600080fd5b506101c561040c3660046117ed565b610fd7565b34801561041d57600080fd5b506101c561042c36600461188a565b610ff1565b6101c561043f3660046118e9565b61102c565b6005602052816000526040600020818154811061046057600080fd5b90600052602060002001600091509150505481565b6104e16040518061016001604052806000815260200160006001600160a01b031681526020016060815260200160008152602001600081526020016000815260200160001515815260200160001515815260200160001515815260200160008152602001600081525090565b6000828152600360209081526040918290208251610160810184528154815260018201546001600160a01b031692810192909252600281018054929391929184019161052c90611951565b80601f016020809104026020016040519081016040528092919081815260200182805461055890611951565b80156105a55780601f1061057a576101008083540402835291602001916105a5565b820191906000526020600020905b81548152906001019060200180831161058857829003601f168201915b5050509183525050600382015460208201526004820154604082015260058201546060820152600682015460ff808216151560808401526101008083048216151560a08501526201000090920416151560c0830152600783015460e083015260089092015491015292915050565b61061b6114a5565b600081815260036020526040902060018101546001600160a01b03166106805760405162461bcd60e51b815260206004820152601560248201527413dc1d1a5bdb88191bd95cc81b9bdd08195e1a5cdd605a1b60448201526064015b60405180910390fd5b6006810154610100900460ff16156106da5760405162461bcd60e51b815260206004820152601760248201527f4f7074696f6e20616c72656164792065786563757465640000000000000000006044820152606401610677565b80600501544210156107275760405162461bcd60e51b815260206004820152601660248201527513dc1d1a5bdb881b9bdd08195e1c1a5c9959081e595d60521b6044820152606401610677565b60006107be82600201805461073b90611951565b80601f016020809104026020016040519081016040528092919081815260200182805461076790611951565b80156107b45780601f10610789576101008083540402835291602001916107b4565b820191906000526020600020905b81548152906001019060200180831161079757829003601f168201915b5050505050610aab565b9050600081116108055760405162461bcd60e51b8152602060048201526012602482015271125b9d985b1a59081c1c9a58d9481999595960721b6044820152606401610677565b6004820154600683015460009161082091849060ff166114cf565b9050600081156109325760648460030154605061083d91906119a1565b61084791906119be565b9050804710156108995760405162461bcd60e51b815260206004820152601d60248201527f496e73756666696369656e7420636f6e74726163742062616c616e63650000006044820152606401610677565b60018401546040516000916001600160a01b03169083908381818185875af1925050503d80600081146108e8576040519150601f19603f3d011682016040523d82523d6000602084013e6108ed565b606091505b50509050806109305760405162461bcd60e51b815260206004820152600f60248201526e151c985b9cd9995c8819985a5b1959608a1b6044820152606401610677565b505b600684018054831515620100000262ffff0019909116176101001790556007840181905560405185907faa0abedd98e98a8056d303d96ef34983c6c9bb616ae1b2d44c20f130f5d623b49061099f9085908590889092151583526020830191909152604082015260600190565b60405180910390a2505050506109b56001600055565b50565b60036020526000908152604090208054600182015460028301805492936001600160a01b03909216926109ea90611951565b80601f0160208091040260200160405190810160405280929190818152602001828054610a1690611951565b8015610a635780601f10610a3857610100808354040283529160200191610a63565b820191906000526020600020905b815481529060010190602001808311610a4657829003601f168201915b505050600384015460048501546005860154600687015460078801546008909801549697939692955090935060ff80821693610100830482169362010000909304909116918b565b600080600483604051610abe91906119e0565b90815260408051918290036020908101832060a08401835280546001600160a01b03168452600181015491840191909152600281015491830191909152600381015460608301526004015460ff16151560808201819052909150610b5a5760405162461bcd60e51b8152602060048201526013602482015272105cdcd95d081b9bdd081cdd5c1c1bdc9d1959606a1b6044820152606401610677565b6000816000015190506000816001600160a01b031663feaf968c6040518163ffffffff1660e01b815260040160a060405180830381865afa158015610ba3573d6000803e3d6000fd5b505050506040513d601f19601f82011682018060405250810190610bc79190611a16565b50505091505060008113610c0d5760405162461bcd60e51b815260206004820152600d60248201526c496e76616c696420707269636560981b6044820152606401610677565b949350505050565b610c1d6114ec565b4780610c625760405162461bcd60e51b81526020600482015260146024820152734e6f2066756e647320746f20776974686472617760601b6044820152606401610677565b6000610c766001546001600160a01b031690565b6001600160a01b03168260405160006040518083038185875af1925050503d8060008114610cc0576040519150601f19603f3d011682016040523d82523d6000602084013e610cc5565b606091505b5050905080610d085760405162461bcd60e51b815260206004820152600f60248201526e151c985b9cd9995c8819985a5b1959608a1b6044820152606401610677565b6001546001600160a01b03166001600160a01b03167feaff4b37086828766ad3268786972c0cd24259d4c87a80f9d3963a3c3d999b0d83604051610d4e91815260200190565b60405180910390a25050565b610d626114ec565b6040518060a00160405280856001600160a01b0316815260200184815260200183815260200182815260200160011515815250600486604051610da591906119e0565b9081526040805160209281900383018120845181546001600160a01b0319166001600160a01b03909116178155928401516001840155908301516002830155606083015160038301556080909201516004909101805460ff19169115159190911790557f0f6071fa29f95f864b4bc1ce9d536223fe504dc0901a3f600732d9c655325d6190610e3d9087908790879087908790611a66565b60405180910390a15050505050565b610e546114ec565b610e5e6000611519565b565b610e686114ec565b6000600482604051610e7a91906119e0565b908152604051908190036020019020600401805491151560ff1990921691909117905550565b610ea86114ec565b6103e8811115610ee95760405162461bcd60e51b815260206004820152600c60248201526b08ccaca40e8dede40d0d2ced60a31b6044820152606401610677565b60068190556040518181527f45610d581145924dd7090a5017e5f2b1d6f42213bb2e95707ff86846bbfcb1ca9060200160405180910390a150565b6001600160a01b038116600090815260056020908152604091829020805483518184028101840190945280845260609392830182828015610f8457602002820191906000526020600020905b815481526020019060010190808311610f70575b50505050509050919050565b60025460004760015b838111610fd15760008181526003602081905260409091200154610fbd9084611aa6565b925080610fc981611ab9565b915050610f99565b50909192565b610fdf6114ec565b6001600482604051610e7a91906119e0565b610ff96114ec565b6001600160a01b03811661102357604051631e4fbdf760e01b815260006004820152602401610677565b6109b581611519565b8360048160405161103d91906119e0565b9081526040519081900360200190206004015460ff166110955760405162461bcd60e51b8152602060048201526013602482015272105cdcd95d081b9bdd081cdd5c1c1bdc9d1959606a1b6044820152606401610677565b61109d6114a5565b8334146110e45760405162461bcd60e51b8152602060048201526015602482015274125b98dbdc9c9958dd08185b5bdd5b9d081cd95b9d605a1b6044820152606401610677565b6004856040516110f491906119e0565b9081526020016040518091039020600101548410156111465760405162461bcd60e51b815260206004820152600e60248201526d416d6f756e7420746f6f206c6f7760901b6044820152606401610677565b60048560405161115691906119e0565b9081526020016040518091039020600201548411156111a95760405162461bcd60e51b815260206004820152600f60248201526e082dadeeadce840e8dede40d0d2ced608b1b6044820152606401610677565b6007548310156111f35760405162461bcd60e51b8152602060048201526015602482015274115e1c1a5c9e481d1a5b59481d1bdbc81cda1bdc9d605a1b6044820152606401610677565b60085483111561123c5760405162461bcd60e51b81526020600482015260146024820152734578706972792074696d6520746f6f206c6f6e6760601b6044820152606401610677565b426112478482611aa6565b1161128a5760405162461bcd60e51b8152602060048201526013602482015272496e76616c6964206578706972792074696d6560681b6044820152606401610677565b600061129586610aab565b9050600081116112dc5760405162461bcd60e51b8152602060048201526012602482015271125b9d985b1a59081c1c9a58d9481999595960721b6044820152606401610677565b600280549060006112ec83611ab9565b90915550506002546040805161016081018252828152336020820152908101889052606081018790526080810183905260a0810161132a8742611aa6565b81528515156020808301919091526000604080840182905260608401829052608084018290524260a0909401939093528481526003825282902083518155908301516001820180546001600160a01b0319166001600160a01b039092169190911790559082015160028201906113a09082611b21565b50606082015160038201556080820151600482015560a082015160058083019190915560c083015160068301805460e08601516101008088015161ffff1990931694151561ff001916949094179015159093029290921762ff0000191662010000921515929092029190911790556101208301516007830155610140909201516008909101553360008181526020928352604081208054600181018255908252929020909101829055817f85702efb180dfbd6c19343f6d8d8819c512ac5b9c70aa0631c0f05bf1fcc38e78989866114788b42611aa6565b8a60405161148a959493929190611be1565b60405180910390a3505061149e6001600055565b5050505050565b6002600054036114c857604051633ee5aeb560e01b815260040160405180910390fd5b6002600055565b600081156114e057508282116114e5565b508282105b9392505050565b6001546001600160a01b03163314610e5e5760405163118cdaa760e01b8152336004820152602401610677565b600180546001600160a01b038381166001600160a01b0319831681179093556040519116919082907f8be0079c531659141344cd1fd0a4f28419497f9722a3daafe3b4186f6b6457e090600090a35050565b80356001600160a01b038116811461158257600080fd5b919050565b6000806040838503121561159a57600080fd5b6115a38361156b565b946020939093013593505050565b6000602082840312156115c357600080fd5b5035919050565b60005b838110156115e55781810151838201526020016115cd565b50506000910152565b600081518084526116068160208601602086016115ca565b601f01601f19169290920160200192915050565b60208152815160208201526000602083015161164160408401826001600160a01b03169052565b50604083015161016080606085015261165e6101808501836115ee565b915060608501516080850152608085015160a085015260a085015160c085015260c085015161169160e086018215159052565b5060e08501516101006116a78187018315159052565b86015190506101206116bc8682018315159052565b860151610140868101919091529095015193019290925250919050565b8b81526001600160a01b038b166020820152610160604082018190526000906117048382018d6115ee565b606084019b909b525050608081019790975260a087019590955292151560c086015290151560e08501521515610100840152610120830152610140909101529392505050565b634e487b7160e01b600052604160045260246000fd5b600082601f83011261177157600080fd5b813567ffffffffffffffff8082111561178c5761178c61174a565b604051601f8301601f19908116603f011681019082821181831017156117b4576117b461174a565b816040528381528660208588010111156117cd57600080fd5b836020870160208301376000602085830101528094505050505092915050565b6000602082840312156117ff57600080fd5b813567ffffffffffffffff81111561181657600080fd5b610c0d84828501611760565b600080600080600060a0868803121561183a57600080fd5b853567ffffffffffffffff81111561185157600080fd5b61185d88828901611760565b95505061186c6020870161156b565b94979496505050506040830135926060810135926080909101359150565b60006020828403121561189c57600080fd5b6114e58261156b565b6020808252825182820181905260009190848201906040850190845b818110156118dd578351835292840192918401916001016118c1565b50909695505050505050565b600080600080608085870312156118ff57600080fd5b843567ffffffffffffffff81111561191657600080fd5b61192287828801611760565b94505060208501359250604085013591506060850135801515811461194657600080fd5b939692955090935050565b600181811c9082168061196557607f821691505b60208210810361198557634e487b7160e01b600052602260045260246000fd5b50919050565b634e487b7160e01b600052601160045260246000fd5b80820281158282048414176119b8576119b861198b565b92915050565b6000826119db57634e487b7160e01b600052601260045260246000fd5b500490565b600082516119f28184602087016115ca565b9190910192915050565b805169ffffffffffffffffffff8116811461158257600080fd5b600080600080600060a08688031215611a2e57600080fd5b611a37866119fc565b9450602086015193506040860151925060608601519150611a5a608087016119fc565b90509295509295909350565b60a081526000611a7960a08301886115ee565b6001600160a01b039690961660208301525060408101939093526060830191909152608090910152919050565b808201808211156119b8576119b861198b565b600060018201611acb57611acb61198b565b5060010190565b601f821115611b1c57600081815260208120601f850160051c81016020861015611af95750805b601f850160051c820191505b81811015611b1857828155600101611b05565b5050505b505050565b815167ffffffffffffffff811115611b3b57611b3b61174a565b611b4f81611b498454611951565b84611ad2565b602080601f831160018114611b845760008415611b6c5750858301515b600019600386901b1c1916600185901b178555611b18565b600085815260208120601f198616915b82811015611bb357888601518255948401946001909101908401611b94565b5085821015611bd15787850151600019600388901b60f8161c191681555b5050505050600190811b01905550565b60a081526000611bf460a08301886115ee565b90508560208301528460408301528360608301528215156080830152969550505050505056fea26469706673582212202ef82a5db4958dd6558c361ba89e07f51c9dccd431900018723fe8aae72b309d64736f6c63430008140033",
  "linkReferences": {},
  "deployedLinkReferences": {}
}