{
  "_format": "hh-sol-artifact-1",
  "contractName": "BinaryOptions",
  "sourceName": "contracts/BinaryOptions.sol",
  "abi": [
    {
      "inputs": [
        {
          "internalType": "address",
          "name": "initialOwner",
          "type": "address"
        }
      ],
      "stateMutability": "nonpayable",
      "type": "constructor"
    },
    {
      "inputs": [
        {
          "internalType": "address",
          "name": "owner",
          "type": "address"
        }
      ],
      "name": "OwnableInvalidOwner",
      "type": "error"
    },
    {
      "inputs": [
        {
          "internalType": "address",
          "name": "account",
          "type": "address"
        }
      ],
      "name": "OwnableUnauthorizedAccount",
      "type": "error"
    },
    {
      "inputs": [],
      "name": "ReentrancyGuardReentrantCall",
      "type": "error"
    },
    {
      "anonymous": false,
      "inputs": [
        {
          "indexed": false,
          "internalType": "string",
          "name": "asset",
          "type": "string"
        },
        {
          "indexed": false,
          "internalType": "address",
          "name": "priceFeed",
          "type": "address"
        },
        {
          "indexed": false,
          "internalType": "uint256",
          "name": "minAmount",
          "type": "uint256"
        },
        {
          "indexed": false,
          "internalType": "uint256",
          "name": "maxAmount",
          "type": "uint256"
        },
        {
          "indexed": false,
          "internalType": "uint256",
          "name": "feePercentage",
          "type": "uint256"
        }
      ],
      "name": "AssetConfigUpdated",
      "type": "event"
    },
    {
      "anonymous": false,
      "inputs": [
        {
          "indexed": true,
          "internalType": "address",
          "name": "owner",
          "type": "address"
        },
        {
          "indexed": false,
          "internalType": "uint256",
          "name": "amount",
          "type": "uint256"
        }
      ],
      "name": "FundsDeposited",
      "type": "event"
    },
    {
      "anonymous": false,
      "inputs": [
        {
          "indexed": true,
          "internalType": "address",
          "name": "owner",
          "type": "address"
        },
        {
          "indexed": false,
          "internalType": "uint256",
          "name": "amount",
          "type": "uint256"
        }
      ],
      "name": "FundsWithdrawn",
      "type": "event"
    },
    {
      "anonymous": false,
      "inputs": [
        {
          "indexed": true,
          "internalType": "uint256",
          "name": "optionId",
          "type": "uint256"
        },
        {
          "indexed": true,
          "internalType": "address",
          "name": "trader",
          "type": "address"
        },
        {
          "indexed": false,
          "internalType": "string",
          "name": "asset",
          "type": "string"
        },
        {
          "indexed": false,
          "internalType": "uint256",
          "name": "amount",
          "type": "uint256"
        },
        {
          "indexed": false,
          "internalType": "uint256",
          "name": "strikePrice",
          "type": "uint256"
        },
        {
          "indexed": false,
          "internalType": "uint256",
          "name": "expiryTime",
          "type": "uint256"
        },
        {
          "indexed": false,
          "internalType": "bool",
          "name": "isCall",
          "type": "bool"
        }
      ],
      "name": "OptionCreated",
      "type": "event"
    },
    {
      "anonymous": false,
      "inputs": [
        {
          "indexed": true,
          "internalType": "uint256",
          "name": "optionId",
          "type": "uint256"
        },
        {
          "indexed": false,
          "internalType": "bool",
          "name": "isWon",
          "type": "bool"
        },
        {
          "indexed": false,
          "internalType": "bool",
          "name": "isPush",
          "type": "bool"
        },
        {
          "indexed": false,
          "internalType": "uint256",
          "name": "payout",
          "type": "uint256"
        },
        {
          "indexed": false,
          "internalType": "uint256",
          "name": "finalPrice",
          "type": "uint256"
        }
      ],
      "name": "OptionExecuted",
      "type": "event"
    },
    {
      "anonymous": false,
      "inputs": [
        {
          "indexed": true,
          "internalType": "address",
          "name": "previousOwner",
          "type": "address"
        },
        {
          "indexed": true,
          "internalType": "address",
          "name": "newOwner",
          "type": "address"
        }
      ],
      "name": "OwnershipTransferred",
      "type": "event"
    },
    {
      "anonymous": false,
      "inputs": [
        {
          "indexed": false,
          "internalType": "uint256",
          "name": "newFee",
          "type": "uint256"
        }
      ],
      "name": "PlatformFeeUpdated",
      "type": "event"
    },
    {
      "inputs": [
        {
          "internalType": "string",
          "name": "",
          "type": "string"
        }
      ],
      "name": "assetConfigs",
      "outputs": [
        {
          "internalType": "address",
          "name": "priceFeed",
          "type": "address"
        },
        {
          "internalType": "uint256",
          "name": "minAmount",
          "type": "uint256"
        },
        {
          "internalType": "uint256",
          "name": "maxAmount",
          "type": "uint256"
        },
        {
          "internalType": "uint256",
          "name": "feePercentage",
          "type": "uint256"
        },
        {
          "internalType": "bool",
          "name": "isActive",
          "type": "bool"
        }
      ],
      "stateMutability": "view",
      "type": "function"
    },
    {
      "inputs": [
        {
          "internalType": "string",
          "name": "asset",
          "type": "string"
        },
        {
          "internalType": "uint256",
          "name": "amount",
          "type": "uint256"
        },
        {
          "internalType": "uint256",
          "name": "expiryTime",
          "type": "uint256"
        },
        {
          "internalType": "bool",
          "name": "isCall",
          "type": "bool"
        }
      ],
      "name": "createOption",
      "outputs": [],
      "stateMutability": "payable",
      "type": "function"
    },
    {
      "inputs": [
        {
          "internalType": "address",
          "name": "beneficiary",
          "type": "address"
        },
        {
          "internalType": "string",
          "name": "asset",
          "type": "string"
        },
        {
          "internalType": "uint256",
          "name": "amount",
          "type": "uint256"
        },
        {
          "internalType": "uint256",
          "name": "strikePrice",
          "type": "uint256"
        },
        {
          "internalType": "uint256",
          "name": "expiryTime",
          "type": "uint256"
        },
        {
          "internalType": "bool",
          "name": "isCall",
          "type": "bool"
        }
      ],
      "name": "createOptionFor",
      "outputs": [],
      "stateMutability": "payable",
      "type": "function"
    },
    {
      "inputs": [
        {
          "internalType": "uint256",
          "name": "optionId",
          "type": "uint256"
        }
      ],
      "name": "executeOption",
      "outputs": [],
      "stateMutability": "nonpayable",
      "type": "function"
    },
    {
      "inputs": [],
      "name": "fundContract",
      "outputs": [],
      "stateMutability": "payable",
      "type": "function"
    },
    {
      "inputs": [],
      "name": "getContractStats",
      "outputs": [
        {
          "internalType": "uint256",
          "name": "totalOptions",
          "type": "uint256"
        },
        {
          "internalType": "uint256",
          "name": "totalVolume",
          "type": "uint256"
        },
        {
          "internalType": "uint256",
          "name": "contractBalance",
          "type": "uint256"
        }
      ],
      "stateMutability": "view",
      "type": "function"
    },
    {
      "inputs": [
        {
          "internalType": "string",
          "name": "asset",
          "type": "string"
        }
      ],
      "name": "getCurrentPrice",
      "outputs": [
        {
          "internalType": "uint256",
          "name": "",
          "type": "uint256"
        }
      ],
      "stateMutability": "view",
      "type": "function"
    },
    {
      "inputs": [
        {
          "internalType": "uint256",
          "name": "optionId",
          "type": "uint256"
        }
      ],
      "name": "getOption",
      "outputs": [
        {
          "components": [
            {
              "internalType": "uint256",
              "name": "id",
              "type": "uint256"
            },
            {
              "internalType": "address",
              "name": "trader",
              "type": "address"
            },
            {
              "internalType": "string",
              "name": "asset",
              "type": "string"
            },
            {
              "internalType": "uint256",
              "name": "amount",
              "type": "uint256"
            },
            {
              "internalType": "uint256",
              "name": "strikePrice",
              "type": "uint256"
            },
            {
              "internalType": "uint256",
              "name": "expiryTime",
              "type": "uint256"
            },
            {
              "internalType": "bool",
              "name": "isCall",
              "type": "bool"
            },
            {
              "internalType": "bool",
              "name": "isExecuted",
              "type": "bool"
            },
            {
              "internalType": "bool",
              "name": "isWon",
              "type": "bool"
            },
            {
              "internalType": "uint256",
              "name": "payout",
              "type": "uint256"
            },
            {
              "internalType": "uint256",
              "name": "timestamp",
              "type": "uint256"
            },
            {
              "internalType": "uint256",
              "name": "finalPrice",
              "type": "uint256"
            }
          ],
          "internalType": "struct BinaryOptions.Option",
          "name": "",
          "type": "tuple"
        }
      ],
      "stateMutability": "view",
      "type": "function"
    },
    {
      "inputs": [
        {
          "internalType": "uint256",
          "name": "optionId",
          "type": "uint256"
        }
      ],
      "name": "getOptionAmount",
      "outputs": [
        {
          "internalType": "uint256",
          "name": "",
          "type": "uint256"
        }
      ],
      "stateMutability": "view",
      "type": "function"
    },
    {
      "inputs": [
        {
          "internalType": "uint256",
          "name": "optionId",
          "type": "uint256"
        }
      ],
      "name": "getOptionAsset",
      "outputs": [
        {
          "internalType": "string",
          "name": "",
          "type": "string"
        }
      ],
      "stateMutability": "view",
      "type": "function"
    },
    {
      "inputs": [
        {
          "internalType": "uint256",
          "name": "optionId",
          "type": "uint256"
        }
      ],
      "name": "getOptionExpiryTime",
      "outputs": [
        {
          "internalType": "uint256",
          "name": "",
          "type": "uint256"
        }
      ],
      "stateMutability": "view",
      "type": "function"
    },
    {
      "inputs": [
        {
          "internalType": "uint256",
          "name": "optionId",
          "type": "uint256"
        }
      ],
      "name": "getOptionFinalPrice",
      "outputs": [
        {
          "internalType": "uint256",
          "name": "",
          "type": "uint256"
        }
      ],
      "stateMutability": "view",
      "type": "function"
    },
    {
      "inputs": [
        {
          "internalType": "uint256",
          "name": "optionId",
          "type": "uint256"
        }
      ],
      "name": "getOptionId",
      "outputs": [
        {
          "internalType": "uint256",
          "name": "",
          "type": "uint256"
        }
      ],
      "stateMutability": "view",
      "type": "function"
    },
    {
      "inputs": [
        {
          "internalType": "uint256",
          "name": "optionId",
          "type": "uint256"
        }
      ],
      "name": "getOptionIsCall",
      "outputs": [
        {
          "internalType": "bool",
          "name": "",
          "type": "bool"
        }
      ],
      "stateMutability": "view",
      "type": "function"
    },
    {
      "inputs": [
        {
          "internalType": "uint256",
          "name": "optionId",
          "type": "uint256"
        }
      ],
      "name": "getOptionIsExecuted",
      "outputs": [
        {
          "internalType": "bool",
          "name": "",
          "type": "bool"
        }
      ],
      "stateMutability": "view",
      "type": "function"
    },
    {
      "inputs": [
        {
          "internalType": "uint256",
          "name": "optionId",
          "type": "uint256"
        }
      ],
      "name": "getOptionIsWon",
      "outputs": [
        {
          "internalType": "bool",
          "name": "",
          "type": "bool"
        }
      ],
      "stateMutability": "view",
      "type": "function"
    },
    {
      "inputs": [
        {
          "internalType": "uint256",
          "name": "optionId",
          "type": "uint256"
        }
      ],
      "name": "getOptionPayout",
      "outputs": [
        {
          "internalType": "uint256",
          "name": "",
          "type": "uint256"
        }
      ],
      "stateMutability": "view",
      "type": "function"
    },
    {
      "inputs": [
        {
          "internalType": "uint256",
          "name": "optionId",
          "type": "uint256"
        }
      ],
      "name": "getOptionStrikePrice",
      "outputs": [
        {
          "internalType": "uint256",
          "name": "",
          "type": "uint256"
        }
      ],
      "stateMutability": "view",
      "type": "function"
    },
    {
      "inputs": [
        {
          "internalType": "uint256",
          "name": "optionId",
          "type": "uint256"
        }
      ],
      "name": "getOptionTimestamp",
      "outputs": [
        {
          "internalType": "uint256",
          "name": "",
          "type": "uint256"
        }
      ],
      "stateMutability": "view",
      "type": "function"
    },
    {
      "inputs": [
        {
          "internalType": "uint256",
          "name": "optionId",
          "type": "uint256"
        }
      ],
      "name": "getOptionTrader",
      "outputs": [
        {
          "internalType": "address",
          "name": "",
          "type": "address"
        }
      ],
      "stateMutability": "view",
      "type": "function"
    },
    {
      "inputs": [
        {
          "internalType": "address",
          "name": "user",
          "type": "address"
        }
      ],
      "name": "getUserOptions",
      "outputs": [
        {
          "internalType": "uint256[]",
          "name": "",
          "type": "uint256[]"
        }
      ],
      "stateMutability": "view",
      "type": "function"
    },
    {
      "inputs": [],
      "name": "maxExpiryTime",
      "outputs": [
        {
          "internalType": "uint256",
          "name": "",
          "type": "uint256"
        }
      ],
      "stateMutability": "view",
      "type": "function"
    },
    {
      "inputs": [],
      "name": "minExpiryTime",
      "outputs": [
        {
          "internalType": "uint256",
          "name": "",
          "type": "uint256"
        }
      ],
      "stateMutability": "view",
      "type": "function"
    },
    {
      "inputs": [
        {
          "internalType": "uint256",
          "name": "",
          "type": "uint256"
        }
      ],
      "name": "options",
      "outputs": [
        {
          "internalType": "uint256",
          "name": "id",
          "type": "uint256"
        },
        {
          "internalType": "address",
          "name": "trader",
          "type": "address"
        },
        {
          "internalType": "string",
          "name": "asset",
          "type": "string"
        },
        {
          "internalType": "uint256",
          "name": "amount",
          "type": "uint256"
        },
        {
          "internalType": "uint256",
          "name": "strikePrice",
          "type": "uint256"
        },
        {
          "internalType": "uint256",
          "name": "expiryTime",
          "type": "uint256"
        },
        {
          "internalType": "bool",
          "name": "isCall",
          "type": "bool"
        },
        {
          "internalType": "bool",
          "name": "isExecuted",
          "type": "bool"
        },
        {
          "internalType": "bool",
          "name": "isWon",
          "type": "bool"
        },
        {
          "internalType": "uint256",
          "name": "payout",
          "type": "uint256"
        },
        {
          "internalType": "uint256",
          "name": "timestamp",
          "type": "uint256"
        },
        {
          "internalType": "uint256",
          "name": "finalPrice",
          "type": "uint256"
        }
      ],
      "stateMutability": "view",
      "type": "function"
    },
    {
      "inputs": [],
      "name": "owner",
      "outputs": [
        {
          "internalType": "address",
          "name": "",
          "type": "address"
        }
      ],
      "stateMutability": "view",
      "type": "function"
    },
    {
      "inputs": [
        {
          "internalType": "string",
          "name": "asset",
          "type": "string"
        }
      ],
      "name": "pauseAsset",
      "outputs": [],
      "stateMutability": "nonpayable",
      "type": "function"
    },
    {
      "inputs": [],
      "name": "platformFee",
      "outputs": [
        {
          "internalType": "uint256",
          "name": "",
          "type": "uint256"
        }
      ],
      "stateMutability": "view",
      "type": "function"
    },
    {
      "inputs": [],
      "name": "renounceOwnership",
      "outputs": [],
      "stateMutability": "nonpayable",
      "type": "function"
    },
    {
      "inputs": [
        {
          "internalType": "string",
          "name": "asset",
          "type": "string"
        }
      ],
      "name": "resumeAsset",
      "outputs": [],
      "stateMutability": "nonpayable",
      "type": "function"
    },
    {
      "inputs": [
        {
          "internalType": "address",
          "name": "newOwner",
          "type": "address"
        }
      ],
      "name": "transferOwnership",
      "outputs": [],
      "stateMutability": "nonpayable",
      "type": "function"
    },
    {
      "inputs": [
        {
          "internalType": "string",
          "name": "asset",
          "type": "string"
        },
        {
          "internalType": "address",
          "name": "priceFeed",
          "type": "address"
        },
        {
          "internalType": "uint256",
          "name": "minAmount",
          "type": "uint256"
        },
        {
          "internalType": "uint256",
          "name": "maxAmount",
          "type": "uint256"
        },
        {
          "internalType": "uint256",
          "name": "feePercentage",
          "type": "uint256"
        }
      ],
      "name": "updateAssetConfig",
      "outputs": [],
      "stateMutability": "nonpayable",
      "type": "function"
    },
    {
      "inputs": [
        {
          "internalType": "uint256",
          "name": "newFee",
          "type": "uint256"
        }
      ],
      "name": "updatePlatformFee",
      "outputs": [],
      "stateMutability": "nonpayable",
      "type": "function"
    },
    {
      "inputs": [
        {
          "internalType": "address",
          "name": "",
          "type": "address"
        },
        {
          "internalType": "uint256",
          "name": "",
          "type": "uint256"
        }
      ],
      "name": "userOptions",
      "outputs": [
        {
          "internalType": "uint256",
          "name": "",
          "type": "uint256"
        }
      ],
      "stateMutability": "view",
      "type": "function"
    },
    {
      "inputs": [],
      "name": "withdrawFees",
      "outputs": [],
      "stateMutability": "nonpayable",
      "type": "function"
    },
    {
      "stateMutability": "payable",
      "type": "receive"
    }
  ],
  "bytecode": "0x608060405260c8600655601e600755620151806008553480156200002257600080fd5b5060405162002a5538038062002a55833981016040819052620000459162000274565b6001600055806001600160a01b0381166200007a57604051631e4fbdf760e01b81526000600482015260240160405180910390fd5b620000858162000174565b5060408051808201909152600381526208aa8960eb1b6020820152620000d39073694aa1769357215de4fac081bf1f309adc32530666038d7ea4c68000671bc16d674ec800006096620001c6565b60408051808201909152600381526242544360e81b60208201526200011f90731b44f3514812d835eb1bdb0acb33d3fa3351ee43655af3107a4000670de0b6b3a764000060c8620001c6565b6040805180820190915260048152634c494e4b60e01b60208201526200016d9073c59e3633baac79493d908e63626716e204a45edf6611c37937e080006714d1120d7b16000060c8620001c6565b50620002d7565b600180546001600160a01b038381166001600160a01b0319831681179093556040519116919082907f8be0079c531659141344cd1fd0a4f28419497f9722a3daafe3b4186f6b6457e090600090a35050565b6040518060a00160405280856001600160a01b03168152602001848152602001838152602001828152602001600115158152506004866040516200020b9190620002a6565b9081526040805160209281900383019020835181546001600160a01b0319166001600160a01b039091161781559183015160018301558201516002820155606082015160038201556080909101516004909101805460ff19169115159190911790555050505050565b6000602082840312156200028757600080fd5b81516001600160a01b03811681146200029f57600080fd5b9392505050565b6000825160005b81811015620002c95760208186018101518583015201620002ad565b506000920191825250919050565b61276e80620002e76000396000f3fe6080604052600436106101fd5760003560e01c8063733789c41161010d578063bb2fb90a116100a0578063dfe6b5d61161006f578063dfe6b5d6146106f5578063ee6660ca14610725578063f0cd1f3f1461075d578063f2fde38b1461077d578063fd507cf51461079d57600080fd5b8063bb2fb90a1461065d578063bb4e0f941461068a578063bd097e21146106ba578063da8bcc17146106c257600080fd5b80639ba0adeb116100dc5780639ba0adeb1461052b5780639ba543f614610574578063aa0b5988146105a5578063b0421c28146105c557600080fd5b8063733789c4146104a75780637a7f0a4b146104bd5780638da5cb5b146104ed5780639a5db8f31461050b57600080fd5b80634527143711610190578063602942051161015f57806360294205146103c457806360bdbace146103f4578063667aeb3314610414578063703eea2814610465578063715018a61461049257600080fd5b8063452714371461033c578063476343ee1461034f5780634dc9d2dc146103645780635206652f1461039457600080fd5b806337fb409c116101cc57806337fb409c146102ac5780633eb0063c146102ce578063409e2205146102e457806342a0f2431461031c57600080fd5b80630ad03cba146102095780631c858f2b146102495780631ce5e9a61461026957806326232a2e1461029657600080fd5b3661020457005b600080fd5b34801561021557600080fd5b50610236610224366004611f99565b60009081526003602052604090205490565b6040519081526020015b60405180910390f35b34801561025557600080fd5b50610236610264366004611fce565b6107b0565b34801561027557600080fd5b50610289610284366004611f99565b6107e1565b6040516102409190612048565b3480156102a257600080fd5b5061023660065481565b3480156102b857600080fd5b506102cc6102c7366004611f99565b610993565b005b3480156102da57600080fd5b5061023660075481565b3480156102f057600080fd5b506103046102ff366004611f99565b610edb565b6040516102409c9b9a99989796959493929190612114565b34801561032857600080fd5b5061023661033736600461222e565b610fd4565b6102cc61034a366004612273565b611118565b34801561035b57600080fd5b506102cc611582565b34801561037057600080fd5b5061023661037f366004611f99565b60009081526003602052604090206005015490565b3480156103a057600080fd5b506102366103af366004611f99565b60009081526003602052604090206008015490565b3480156103d057600080fd5b506102366103df366004611f99565b60009081526003602052604090206004015490565b34801561040057600080fd5b506102cc61040f3660046122ed565b6116c7565b34801561042057600080fd5b5061044d61042f366004611f99565b6000908152600360205260409020600101546001600160a01b031690565b6040516001600160a01b039091168152602001610240565b34801561047157600080fd5b50610485610480366004611f99565b6117b9565b6040516102409190612355565b34801561049e57600080fd5b506102cc61185e565b3480156104b357600080fd5b5061023660085481565b3480156104c957600080fd5b506102366104d8366004611f99565b60009081526003602052604090206009015490565b3480156104f957600080fd5b506001546001600160a01b031661044d565b34801561051757600080fd5b506102cc61052636600461222e565b611872565b34801561053757600080fd5b50610564610546366004611f99565b60009081526003602052604090206006015462010000900460ff1690565b6040519015158152602001610240565b34801561058057600080fd5b5061023661058f366004611f99565b6000908152600360208190526040909120015490565b3480156105b157600080fd5b506102cc6105c0366004611f99565b6118b2565b3480156105d157600080fd5b506106296105e036600461222e565b805160208183018101805160048083529383019290940191909120929052815460018301546002840154600385015494909301546001600160a01b039092169390929160ff1685565b604080516001600160a01b03909616865260208601949094529284019190915260608301521515608082015260a001610240565b34801561066957600080fd5b5061067d61067836600461236f565b611936565b604051610240919061238a565b34801561069657600080fd5b506102366106a5366004611f99565b60009081526003602052604090206007015490565b6102cc6119a1565b3480156106ce57600080fd5b506105646106dd366004611f99565b60009081526003602052604090206006015460ff1690565b34801561070157600080fd5b5061070a6119e0565b60408051938452602084019290925290820152606001610240565b34801561073157600080fd5b50610564610740366004611f99565b600090815260036020526040902060060154610100900460ff1690565b34801561076957600080fd5b506102cc61077836600461222e565b611a27565b34801561078957600080fd5b506102cc61079836600461236f565b611a41565b6102cc6107ab3660046123ce565b611a7c565b600560205281600052604060002081815481106107cc57600080fd5b90600052602060002001600091509150505481565b6108546040518061018001604052806000815260200160006001600160a01b03168152602001606081526020016000815260200160008152602001600081526020016000151581526020016000151581526020016000151581526020016000815260200160008152602001600081525090565b6000828152600360209081526040918290208251610180810184528154815260018201546001600160a01b031692810192909252600281018054929391929184019161089f9061242f565b80601f01602080910402602001604051908101604052809291908181526020018280546108cb9061242f565b80156109185780601f106108ed57610100808354040283529160200191610918565b820191906000526020600020905b8154815290600101906020018083116108fb57829003601f168201915b5050509183525050600382015460208201526004820154604082015260058201546060820152600682015460ff808216151560808401526101008083048216151560a08501526201000090920416151560c0830152600783015460e08301526008830154908201526009909101546101209091015292915050565b61099b611ef0565b600081815260036020526040902060018101546001600160a01b0316610a005760405162461bcd60e51b815260206004820152601560248201527413dc1d1a5bdb88191bd95cc81b9bdd08195e1a5cdd605a1b60448201526064015b60405180910390fd5b6006810154610100900460ff1615610a5a5760405162461bcd60e51b815260206004820152601760248201527f4f7074696f6e20616c726561647920657865637574656400000000000000000060448201526064016109f7565b8060050154421015610aa75760405162461bcd60e51b815260206004820152601660248201527513dc1d1a5bdb881b9bdd08195e1c1a5c9959081e595d60521b60448201526064016109f7565b6000610b3e826002018054610abb9061242f565b80601f0160208091040260200160405190810160405280929190818152602001828054610ae79061242f565b8015610b345780601f10610b0957610100808354040283529160200191610b34565b820191906000526020600020905b815481529060010190602001808311610b1757829003601f168201915b5050505050610fd4565b905060008111610b855760405162461bcd60e51b8152602060048201526012602482015271125b9d985b1a59081c1c9a58d9481999595960721b60448201526064016109f7565b6000610b94620f42408361247f565b9050600080600061271086600401546001610baf91906124a1565b610bb9919061247f565b9050600084876004015411610bdc576004870154610bd790866124be565b610bec565b848760040154610bec91906124be565b9050818111610c02576000935060019250610c2c565b600687015460ff1615610c1d57866004015485119350610c27565b8660040154851093505b600092505b60008315610d26578760030154905080471015610c8b5760405162461bcd60e51b815260206004820152601d60248201527f496e73756666696369656e7420636f6e74726163742062616c616e636500000060448201526064016109f7565b60018801546040516000916001600160a01b03169083908381818185875af1925050503d8060008114610cda576040519150601f19603f3d011682016040523d82523d6000602084013e610cdf565b606091505b5050905080610d205760405162461bcd60e51b815260206004820152600d60248201526c1499599d5b990819985a5b1959609a1b60448201526064016109f7565b50610e43565b8415610e4357606488600301546050610d3f91906124a1565b610d49919061247f565b8860030154610d5891906124d1565b905080471015610daa5760405162461bcd60e51b815260206004820152601d60248201527f496e73756666696369656e7420636f6e74726163742062616c616e636500000060448201526064016109f7565b60018801546040516000916001600160a01b03169083908381818185875af1925050503d8060008114610df9576040519150601f19603f3d011682016040523d82523d6000602084013e610dfe565b606091505b5050905080610e415760405162461bcd60e51b815260206004820152600f60248201526e151c985b9cd9995c8819985a5b1959608a1b60448201526064016109f7565b505b600688018054861515620100000262ffff001990911617610100179055600788018190556009880186905560405189907f51ebd0940511ef86cd4a31ee9de3f5deef7e0fe5af842a51de22fd0acb5b538290610ebe908890889086908c90931515845291151560208401526040830152606082015260800190565b60405180910390a25050505050505050610ed86001600055565b50565b60036020526000908152604090208054600182015460028301805492936001600160a01b0390921692610f0d9061242f565b80601f0160208091040260200160405190810160405280929190818152602001828054610f399061242f565b8015610f865780601f10610f5b57610100808354040283529160200191610f86565b820191906000526020600020905b815481529060010190602001808311610f6957829003601f168201915b5050506003840154600485015460058601546006870154600788015460088901546009909901549798949793965091945060ff8082169461010083048216946201000090930490911692918c565b600080600483604051610fe791906124e4565b90815260408051918290036020908101832060a08401835280546001600160a01b03168452600181015491840191909152600281015491830191909152600381015460608301526004015460ff1615156080820181905290915061105d5760405162461bcd60e51b81526004016109f790612500565b6000816000015190506000816001600160a01b031663feaf968c6040518163ffffffff1660e01b815260040160a060405180830381865afa1580156110a6573d6000803e3d6000fd5b505050506040513d601f19601f820116820180604052508101906110ca9190612547565b505050915050600081136111105760405162461bcd60e51b815260206004820152600d60248201526c496e76616c696420707269636560981b60448201526064016109f7565b949350505050565b8460048160405161112991906124e4565b9081526040519081900360200190206004015460ff1661115b5760405162461bcd60e51b81526004016109f790612500565b611163611ef0565b8434146111aa5760405162461bcd60e51b8152602060048201526015602482015274125b98dbdc9c9958dd08185b5bdd5b9d081cd95b9d605a1b60448201526064016109f7565b6004866040516111ba91906124e4565b90815260200160405180910390206001015485101561120c5760405162461bcd60e51b815260206004820152600e60248201526d416d6f756e7420746f6f206c6f7760901b60448201526064016109f7565b60048660405161121c91906124e4565b90815260200160405180910390206002015485111561126f5760405162461bcd60e51b815260206004820152600f60248201526e082dadeeadce840e8dede40d0d2ced608b1b60448201526064016109f7565b6007548310156112b95760405162461bcd60e51b8152602060048201526015602482015274115e1c1a5c9e481d1a5b59481d1bdbc81cda1bdc9d605a1b60448201526064016109f7565b6008548311156113025760405162461bcd60e51b81526020600482015260146024820152734578706972792074696d6520746f6f206c6f6e6760601b60448201526064016109f7565b4261130d84826124d1565b116113505760405162461bcd60e51b8152602060048201526013602482015272496e76616c6964206578706972792074696d6560681b60448201526064016109f7565b600084116113975760405162461bcd60e51b8152602060048201526014602482015273496e76616c696420737472696b6520707269636560601b60448201526064016109f7565b600280549060006113a783612597565b909155505060025460408051610180810182528281526001600160a01b038a166020820152908101889052606081018790526080810186905260a081016113ee86426124d1565b81528415156020808301919091526000604080840182905260608401829052608084018290524260a085015260c09093018190528481526003825282902083518155908301516001820180546001600160a01b0319166001600160a01b0390921691909117905590820151600282019061146890826125ff565b50606082015160038201556080820151600482015560a082015160058083019190915560c083015160068301805460e08601516101008088015161ffff1990931694151561ff001916949094179015159093029290921762ff00001916620100009215159290920291909117905561012083015160078301556101408301516008830155610160909201516009909101556001600160a01b03891660008181526020928352604081208054600181018255908252929020909101829055817f85702efb180dfbd6c19343f6d8d8819c512ac5b9c70aa0631c0f05bf1fcc38e78989896115548a426124d1565b896040516115669594939291906126bf565b60405180910390a3506115796001600055565b50505050505050565b61158a611f1a565b47806115cf5760405162461bcd60e51b81526020600482015260146024820152734e6f2066756e647320746f20776974686472617760601b60448201526064016109f7565b60006115e36001546001600160a01b031690565b6001600160a01b03168260405160006040518083038185875af1925050503d806000811461162d576040519150601f19603f3d011682016040523d82523d6000602084013e611632565b606091505b50509050806116755760405162461bcd60e51b815260206004820152600f60248201526e151c985b9cd9995c8819985a5b1959608a1b60448201526064016109f7565b6001546001600160a01b03166001600160a01b03167feaff4b37086828766ad3268786972c0cd24259d4c87a80f9d3963a3c3d999b0d836040516116bb91815260200190565b60405180910390a25050565b6116cf611f1a565b6040518060a00160405280856001600160a01b031681526020018481526020018381526020018281526020016001151581525060048660405161171291906124e4565b9081526040805160209281900383018120845181546001600160a01b0319166001600160a01b03909116178155928401516001840155908301516002830155606083015160038301556080909201516004909101805460ff19169115159190911790557f0f6071fa29f95f864b4bc1ce9d536223fe504dc0901a3f600732d9c655325d61906117aa90879087908790879087906126f8565b60405180910390a15050505050565b60008181526003602052604090206002018054606091906117d99061242f565b80601f01602080910402602001604051908101604052809291908181526020018280546118059061242f565b80156118525780601f1061182757610100808354040283529160200191611852565b820191906000526020600020905b81548152906001019060200180831161183557829003601f168201915b50505050509050919050565b611866611f1a565b6118706000611f47565b565b61187a611f1a565b600060048260405161188c91906124e4565b908152604051908190036020019020600401805491151560ff1990921691909117905550565b6118ba611f1a565b6103e88111156118fb5760405162461bcd60e51b815260206004820152600c60248201526b08ccaca40e8dede40d0d2ced60a31b60448201526064016109f7565b60068190556040518181527f45610d581145924dd7090a5017e5f2b1d6f42213bb2e95707ff86846bbfcb1ca9060200160405180910390a150565b6001600160a01b03811660009081526005602090815260409182902080548351818402810184019094528084526060939283018282801561185257602002820191906000526020600020905b8154815260200190600101908083116119825750505050509050919050565b6119a9611f1a565b60405134815233907f543ba50a5eec5e6178218e364b1d0f396157b3c8fa278522c2cb7fd99407d4749060200160405180910390a2565b60025460004760015b838111611a215760008181526003602081905260409091200154611a0d90846124d1565b925080611a1981612597565b9150506119e9565b50909192565b611a2f611f1a565b600160048260405161188c91906124e4565b611a49611f1a565b6001600160a01b038116611a7357604051631e4fbdf760e01b8152600060048201526024016109f7565b610ed881611f47565b83600481604051611a8d91906124e4565b9081526040519081900360200190206004015460ff16611abf5760405162461bcd60e51b81526004016109f790612500565b611ac7611ef0565b833414611b0e5760405162461bcd60e51b8152602060048201526015602482015274125b98dbdc9c9958dd08185b5bdd5b9d081cd95b9d605a1b60448201526064016109f7565b600485604051611b1e91906124e4565b908152602001604051809103902060010154841015611b705760405162461bcd60e51b815260206004820152600e60248201526d416d6f756e7420746f6f206c6f7760901b60448201526064016109f7565b600485604051611b8091906124e4565b908152602001604051809103902060020154841115611bd35760405162461bcd60e51b815260206004820152600f60248201526e082dadeeadce840e8dede40d0d2ced608b1b60448201526064016109f7565b600754831015611c1d5760405162461bcd60e51b8152602060048201526015602482015274115e1c1a5c9e481d1a5b59481d1bdbc81cda1bdc9d605a1b60448201526064016109f7565b600854831115611c665760405162461bcd60e51b81526020600482015260146024820152734578706972792074696d6520746f6f206c6f6e6760601b60448201526064016109f7565b42611c7184826124d1565b11611cb45760405162461bcd60e51b8152602060048201526013602482015272496e76616c6964206578706972792074696d6560681b60448201526064016109f7565b6000611cbf86610fd4565b905060008111611d065760405162461bcd60e51b8152602060048201526012602482015271125b9d985b1a59081c1c9a58d9481999595960721b60448201526064016109f7565b6000611d15620f42408361247f565b600280549192506000611d2783612597565b90915550506002546040805161018081018252828152336020820152908101899052606081018890526080810183905260a08101611d6588426124d1565b81528615156020808301919091526000604080840182905260608401829052608084018290524260a085015260c09093018190528481526003825282902083518155908301516001820180546001600160a01b0319166001600160a01b03909216919091179055908201516002820190611ddf90826125ff565b50606082015160038201556080820151600482015560a082015160058083019190915560c083015160068301805460e08601516101008088015161ffff1990931694151561ff001916949094179015159093029290921762ff00001916620100009215159290920291909117905561012083015160078301556101408301516008830155610160909201516009909101553360008181526020928352604081208054600181018255908252929020909101829055817f85702efb180dfbd6c19343f6d8d8819c512ac5b9c70aa0631c0f05bf1fcc38e78a8a86611ec28c426124d1565b8b604051611ed49594939291906126bf565b60405180910390a3505050611ee96001600055565b5050505050565b600260005403611f1357604051633ee5aeb560e01b815260040160405180910390fd5b6002600055565b6001546001600160a01b031633146118705760405163118cdaa760e01b81523360048201526024016109f7565b600180546001600160a01b038381166001600160a01b0319831681179093556040519116919082907f8be0079c531659141344cd1fd0a4f28419497f9722a3daafe3b4186f6b6457e090600090a35050565b600060208284031215611fab57600080fd5b5035919050565b80356001600160a01b0381168114611fc957600080fd5b919050565b60008060408385031215611fe157600080fd5b611fea83611fb2565b946020939093013593505050565b60005b83811015612013578181015183820152602001611ffb565b50506000910152565b60008151808452612034816020860160208601611ff8565b601f01601f19169290920160200192915050565b60208152815160208201526000602083015161206f60408401826001600160a01b03169052565b50604083015161018080606085015261208c6101a085018361201c565b915060608501516080850152608085015160a085015260a085015160c085015260c08501516120bf60e086018215159052565b5060e08501516101006120d58187018315159052565b86015190506101206120ea8682018315159052565b86015161014086810191909152860151610160808701919091529095015193019290925250919050565b8c81526001600160a01b038c1660208201526101806040820181905260009061213f8382018e61201c565b606084019c909c525050608081019890985260a088019690965293151560c087015291151560e08601521515610100850152610120840152610140830152610160909101529392505050565b634e487b7160e01b600052604160045260246000fd5b600082601f8301126121b257600080fd5b813567ffffffffffffffff808211156121cd576121cd61218b565b604051601f8301601f19908116603f011681019082821181831017156121f5576121f561218b565b8160405283815286602085880101111561220e57600080fd5b836020870160208301376000602085830101528094505050505092915050565b60006020828403121561224057600080fd5b813567ffffffffffffffff81111561225757600080fd5b611110848285016121a1565b80358015158114611fc957600080fd5b60008060008060008060c0878903121561228c57600080fd5b61229587611fb2565b9550602087013567ffffffffffffffff8111156122b157600080fd5b6122bd89828a016121a1565b9550506040870135935060608701359250608087013591506122e160a08801612263565b90509295509295509295565b600080600080600060a0868803121561230557600080fd5b853567ffffffffffffffff81111561231c57600080fd5b612328888289016121a1565b95505061233760208701611fb2565b94979496505050506040830135926060810135926080909101359150565b602081526000612368602083018461201c565b9392505050565b60006020828403121561238157600080fd5b61236882611fb2565b6020808252825182820181905260009190848201906040850190845b818110156123c2578351835292840192918401916001016123a6565b50909695505050505050565b600080600080608085870312156123e457600080fd5b843567ffffffffffffffff8111156123fb57600080fd5b612407878288016121a1565b945050602085013592506040850135915061242460608601612263565b905092959194509250565b600181811c9082168061244357607f821691505b60208210810361246357634e487b7160e01b600052602260045260246000fd5b50919050565b634e487b7160e01b600052601160045260246000fd5b60008261249c57634e487b7160e01b600052601260045260246000fd5b500490565b80820281158282048414176124b8576124b8612469565b92915050565b818103818111156124b8576124b8612469565b808201808211156124b8576124b8612469565b600082516124f6818460208701611ff8565b9190910192915050565b602080825260139082015272105cdcd95d081b9bdd081cdd5c1c1bdc9d1959606a1b604082015260600190565b805169ffffffffffffffffffff81168114611fc957600080fd5b600080600080600060a0868803121561255f57600080fd5b6125688661252d565b945060208601519350604086015192506060860151915061258b6080870161252d565b90509295509295909350565b6000600182016125a9576125a9612469565b5060010190565b601f8211156125fa57600081815260208120601f850160051c810160208610156125d75750805b601f850160051c820191505b818110156125f6578281556001016125e3565b5050505b505050565b815167ffffffffffffffff8111156126195761261961218b565b61262d81612627845461242f565b846125b0565b602080601f831160018114612662576000841561264a5750858301515b600019600386901b1c1916600185901b1785556125f6565b600085815260208120601f198616915b8281101561269157888601518255948401946001909101908401612672565b50858210156126af5787850151600019600388901b60f8161c191681555b5050505050600190811b01905550565b60a0815260006126d260a083018861201c565b905085602083015284604083015283606083015282151560808301529695505050505050565b60a08152600061270b60a083018861201c565b6001600160a01b03969096166020830152506040810193909352606083019190915260809091015291905056fea2646970667358221220b0195e2fad6f4d35bd48bd1e6a09d5d78b46fe84500875cefb3ba2f1ea5a21c064736f6c63430008140033",
  "linkReferences": {},
  "deployedLinkReferences": {}
}